{"abi":[{"inputs":[{"internalType":"uint256","name":"minimumContributionProvided","type":"uint256"},{"internalType":"address","name":"creator","type":"address"}],"stateMutability":"nonpayable","type":"constructor"},{"inputs":[{"internalType":"uint256","name":"index","type":"uint256"}],"name":"approveRequest","outputs":[],"stateMutability":"nonpayable","type":"function"},{"inputs":[],"name":"contribute","outputs":[],"stateMutability":"payable","type":"function"},{"inputs":[{"internalType":"address","name":"","type":"address"}],"name":"contributors","outputs":[{"internalType":"bool","name":"","type":"bool"}],"stateMutability":"view","type":"function"},{"inputs":[],"name":"contributorsCount","outputs":[{"internalType":"uint256","name":"","type":"uint256"}],"stateMutability":"view","type":"function"},{"inputs":[{"internalType":"string","name":"description","type":"string"},{"internalType":"uint256","name":"value","type":"uint256"},{"internalType":"address","name":"recipient","type":"address"}],"name":"createRequest","outputs":[],"stateMutability":"nonpayable","type":"function"},{"inputs":[{"internalType":"uint256","name":"index","type":"uint256"}],"name":"finalizeRequest","outputs":[],"stateMutability":"nonpayable","type":"function"},{"inputs":[],"name":"manager","outputs":[{"internalType":"address","name":"","type":"address"}],"stateMutability":"view","type":"function"},{"inputs":[],"name":"minimumContribution","outputs":[{"internalType":"uint256","name":"","type":"uint256"}],"stateMutability":"view","type":"function"},{"inputs":[{"internalType":"uint256","name":"","type":"uint256"}],"name":"requests","outputs":[{"internalType":"uint256","name":"value","type":"uint256"},{"internalType":"bool","name":"isComplete","type":"bool"},{"internalType":"address","name":"recipient","type":"address"},{"internalType":"string","name":"description","type":"string"},{"internalType":"uint256","name":"approvalCount","type":"uint256"}],"stateMutability":"view","type":"function"}],"devdoc":{"kind":"dev","methods":{},"version":1},"evm":{"assembly":"    /* \"Campaign.sol\":481:2314  contract Campaign {... */\n  mstore(0x40, 0x80)\n    /* \"Campaign.sol\":1011:1167  constructor(uint minimumContributionProvided, address creator) {... */\n  callvalue\n  dup1\n  iszero\n  tag_1\n  jumpi\n  0x00\n  dup1\n  revert\ntag_1:\n  pop\n  mload(0x40)\n  sub(codesize, bytecodeSize)\n  dup1\n  bytecodeSize\n  dup4\n  codecopy\n  dup2\n  dup2\n  add\n  0x40\n  mstore\n  dup2\n  add\n  swap1\n  tag_2\n  swap2\n  swap1\n  tag_3\n  jump\t// in\ntag_2:\n    /* \"Campaign.sol\":1094:1101  creator */\n  dup1\n    /* \"Campaign.sol\":1084:1091  manager */\n  0x01\n  0x00\n    /* \"Campaign.sol\":1084:1101  manager = creator */\n  0x0100\n  exp\n  dup2\n  sload\n  dup2\n  0xffffffffffffffffffffffffffffffffffffffff\n  mul\n  not\n  and\n  swap1\n  dup4\n  0xffffffffffffffffffffffffffffffffffffffff\n  and\n  mul\n  or\n  swap1\n  sstore\n  pop\n    /* \"Campaign.sol\":1133:1160  minimumContributionProvided */\n  dup2\n    /* \"Campaign.sol\":1111:1130  minimumContribution */\n  0x03\n    /* \"Campaign.sol\":1111:1160  minimumContribution = minimumContributionProvided */\n  dup2\n  swap1\n  sstore\n  pop\n    /* \"Campaign.sol\":1011:1167  constructor(uint minimumContributionProvided, address creator) {... */\n  pop\n  pop\n    /* \"Campaign.sol\":481:2314  contract Campaign {... */\n  jump(tag_6)\n    /* \"#utility.yul\":88:205   */\ntag_8:\n    /* \"#utility.yul\":197:198   */\n  0x00\n    /* \"#utility.yul\":194:195   */\n  dup1\n    /* \"#utility.yul\":187:199   */\n  revert\n    /* \"#utility.yul\":334:411   */\ntag_10:\n    /* \"#utility.yul\":371:378   */\n  0x00\n    /* \"#utility.yul\":400:405   */\n  dup2\n    /* \"#utility.yul\":389:405   */\n  swap1\n  pop\n    /* \"#utility.yul\":334:411   */\n  swap2\n  swap1\n  pop\n  jump\t// out\n    /* \"#utility.yul\":417:539   */\ntag_11:\n    /* \"#utility.yul\":490:514   */\n  tag_23\n    /* \"#utility.yul\":508:513   */\n  dup2\n    /* \"#utility.yul\":490:514   */\n  tag_10\n  jump\t// in\ntag_23:\n    /* \"#utility.yul\":483:488   */\n  dup2\n    /* \"#utility.yul\":480:515   */\n  eq\n    /* \"#utility.yul\":470:533   */\n  tag_24\n  jumpi\n    /* \"#utility.yul\":529:530   */\n  0x00\n    /* \"#utility.yul\":526:527   */\n  dup1\n    /* \"#utility.yul\":519:531   */\n  revert\n    /* \"#utility.yul\":470:533   */\ntag_24:\n    /* \"#utility.yul\":417:539   */\n  pop\n  jump\t// out\n    /* \"#utility.yul\":545:688   */\ntag_12:\n    /* \"#utility.yul\":602:607   */\n  0x00\n    /* \"#utility.yul\":633:639   */\n  dup2\n    /* \"#utility.yul\":627:640   */\n  mload\n    /* \"#utility.yul\":618:640   */\n  swap1\n  pop\n    /* \"#utility.yul\":649:682   */\n  tag_26\n    /* \"#utility.yul\":676:681   */\n  dup2\n    /* \"#utility.yul\":649:682   */\n  tag_11\n  jump\t// in\ntag_26:\n    /* \"#utility.yul\":545:688   */\n  swap3\n  swap2\n  pop\n  pop\n  jump\t// out\n    /* \"#utility.yul\":694:820   */\ntag_13:\n    /* \"#utility.yul\":731:738   */\n  0x00\n    /* \"#utility.yul\":771:813   */\n  0xffffffffffffffffffffffffffffffffffffffff\n    /* \"#utility.yul\":764:769   */\n  dup3\n    /* \"#utility.yul\":760:814   */\n  and\n    /* \"#utility.yul\":749:814   */\n  swap1\n  pop\n    /* \"#utility.yul\":694:820   */\n  swap2\n  swap1\n  pop\n  jump\t// out\n    /* \"#utility.yul\":826:922   */\ntag_14:\n    /* \"#utility.yul\":863:870   */\n  0x00\n    /* \"#utility.yul\":892:916   */\n  tag_29\n    /* \"#utility.yul\":910:915   */\n  dup3\n    /* \"#utility.yul\":892:916   */\n  tag_13\n  jump\t// in\ntag_29:\n    /* \"#utility.yul\":881:916   */\n  swap1\n  pop\n    /* \"#utility.yul\":826:922   */\n  swap2\n  swap1\n  pop\n  jump\t// out\n    /* \"#utility.yul\":928:1050   */\ntag_15:\n    /* \"#utility.yul\":1001:1025   */\n  tag_31\n    /* \"#utility.yul\":1019:1024   */\n  dup2\n    /* \"#utility.yul\":1001:1025   */\n  tag_14\n  jump\t// in\ntag_31:\n    /* \"#utility.yul\":994:999   */\n  dup2\n    /* \"#utility.yul\":991:1026   */\n  eq\n    /* \"#utility.yul\":981:1044   */\n  tag_32\n  jumpi\n    /* \"#utility.yul\":1040:1041   */\n  0x00\n    /* \"#utility.yul\":1037:1038   */\n  dup1\n    /* \"#utility.yul\":1030:1042   */\n  revert\n    /* \"#utility.yul\":981:1044   */\ntag_32:\n    /* \"#utility.yul\":928:1050   */\n  pop\n  jump\t// out\n    /* \"#utility.yul\":1056:1199   */\ntag_16:\n    /* \"#utility.yul\":1113:1118   */\n  0x00\n    /* \"#utility.yul\":1144:1150   */\n  dup2\n    /* \"#utility.yul\":1138:1151   */\n  mload\n    /* \"#utility.yul\":1129:1151   */\n  swap1\n  pop\n    /* \"#utility.yul\":1160:1193   */\n  tag_34\n    /* \"#utility.yul\":1187:1192   */\n  dup2\n    /* \"#utility.yul\":1160:1193   */\n  tag_15\n  jump\t// in\ntag_34:\n    /* \"#utility.yul\":1056:1199   */\n  swap3\n  swap2\n  pop\n  pop\n  jump\t// out\n    /* \"#utility.yul\":1205:1712   */\ntag_3:\n    /* \"#utility.yul\":1284:1290   */\n  0x00\n    /* \"#utility.yul\":1292:1298   */\n  dup1\n    /* \"#utility.yul\":1341:1343   */\n  0x40\n    /* \"#utility.yul\":1329:1338   */\n  dup4\n    /* \"#utility.yul\":1320:1327   */\n  dup6\n    /* \"#utility.yul\":1316:1339   */\n  sub\n    /* \"#utility.yul\":1312:1344   */\n  slt\n    /* \"#utility.yul\":1309:1428   */\n  iszero\n  tag_36\n  jumpi\n    /* \"#utility.yul\":1347:1426   */\n  tag_37\n  tag_8\n  jump\t// in\ntag_37:\n    /* \"#utility.yul\":1309:1428   */\ntag_36:\n    /* \"#utility.yul\":1467:1468   */\n  0x00\n    /* \"#utility.yul\":1492:1556   */\n  tag_38\n    /* \"#utility.yul\":1548:1555   */\n  dup6\n    /* \"#utility.yul\":1539:1545   */\n  dup3\n    /* \"#utility.yul\":1528:1537   */\n  dup7\n    /* \"#utility.yul\":1524:1546   */\n  add\n    /* \"#utility.yul\":1492:1556   */\n  tag_12\n  jump\t// in\ntag_38:\n    /* \"#utility.yul\":1482:1556   */\n  swap3\n  pop\n    /* \"#utility.yul\":1438:1566   */\n  pop\n    /* \"#utility.yul\":1605:1607   */\n  0x20\n    /* \"#utility.yul\":1631:1695   */\n  tag_39\n    /* \"#utility.yul\":1687:1694   */\n  dup6\n    /* \"#utility.yul\":1678:1684   */\n  dup3\n    /* \"#utility.yul\":1667:1676   */\n  dup7\n    /* \"#utility.yul\":1663:1685   */\n  add\n    /* \"#utility.yul\":1631:1695   */\n  tag_16\n  jump\t// in\ntag_39:\n    /* \"#utility.yul\":1621:1695   */\n  swap2\n  pop\n    /* \"#utility.yul\":1576:1705   */\n  pop\n    /* \"#utility.yul\":1205:1712   */\n  swap3\n  pop\n  swap3\n  swap1\n  pop\n  jump\t// out\n    /* \"Campaign.sol\":481:2314  contract Campaign {... */\ntag_6:\n  dataSize(sub_0)\n  dup1\n  dataOffset(sub_0)\n  0x00\n  codecopy\n  0x00\n  return\nstop\n\nsub_0: assembly {\n        /* \"Campaign.sol\":481:2314  contract Campaign {... */\n      mstore(0x40, 0x80)\n      jumpi(tag_1, lt(calldatasize, 0x04))\n      shr(0xe0, calldataload(0x00))\n      dup1\n      0x81d12c58\n      gt\n      tag_11\n      jumpi\n      dup1\n      0x81d12c58\n      eq\n      tag_6\n      jumpi\n      dup1\n      0x8a9cfd55\n      eq\n      tag_7\n      jumpi\n      dup1\n      0x937e09b1\n      eq\n      tag_8\n      jumpi\n      dup1\n      0xd7bb99ba\n      eq\n      tag_9\n      jumpi\n      dup1\n      0xd7d1bbdb\n      eq\n      tag_10\n      jumpi\n      jump(tag_1)\n    tag_11:\n      dup1\n      0x03441006\n      eq\n      tag_2\n      jumpi\n      dup1\n      0x1f6d4942\n      eq\n      tag_3\n      jumpi\n      dup1\n      0x481c6a75\n      eq\n      tag_4\n      jumpi\n      dup1\n      0x7569b3d7\n      eq\n      tag_5\n      jumpi\n    tag_1:\n      0x00\n      dup1\n      revert\n        /* \"Campaign.sol\":1998:2312  function finalizeRequest(uint index) public restricted {... */\n    tag_2:\n      callvalue\n      dup1\n      iszero\n      tag_12\n      jumpi\n      0x00\n      dup1\n      revert\n    tag_12:\n      pop\n      tag_13\n      0x04\n      dup1\n      calldatasize\n      sub\n      dup2\n      add\n      swap1\n      tag_14\n      swap2\n      swap1\n      tag_15\n      jump\t// in\n    tag_14:\n      tag_16\n      jump\t// in\n    tag_13:\n      stop\n        /* \"Campaign.sol\":874:918  mapping(address => bool) public contributors */\n    tag_3:\n      callvalue\n      dup1\n      iszero\n      tag_17\n      jumpi\n      0x00\n      dup1\n      revert\n    tag_17:\n      pop\n      tag_18\n      0x04\n      dup1\n      calldatasize\n      sub\n      dup2\n      add\n      swap1\n      tag_19\n      swap2\n      swap1\n      tag_20\n      jump\t// in\n    tag_19:\n      tag_21\n      jump\t// in\n    tag_18:\n      mload(0x40)\n      tag_22\n      swap2\n      swap1\n      tag_23\n      jump\t// in\n    tag_22:\n      mload(0x40)\n      dup1\n      swap2\n      sub\n      swap1\n      return\n        /* \"Campaign.sol\":728:750  address public manager */\n    tag_4:\n      callvalue\n      dup1\n      iszero\n      tag_24\n      jumpi\n      0x00\n      dup1\n      revert\n    tag_24:\n      pop\n      tag_25\n      tag_26\n      jump\t// in\n    tag_25:\n      mload(0x40)\n      tag_27\n      swap2\n      swap1\n      tag_28\n      jump\t// in\n    tag_27:\n      mload(0x40)\n      dup1\n      swap2\n      sub\n      swap1\n      return\n        /* \"Campaign.sol\":756:785  uint public contributorsCount */\n    tag_5:\n      callvalue\n      dup1\n      iszero\n      tag_29\n      jumpi\n      0x00\n      dup1\n      revert\n    tag_29:\n      pop\n      tag_30\n      tag_31\n      jump\t// in\n    tag_30:\n      mload(0x40)\n      tag_32\n      swap2\n      swap1\n      tag_33\n      jump\t// in\n    tag_32:\n      mload(0x40)\n      dup1\n      swap2\n      sub\n      swap1\n      return\n        /* \"Campaign.sol\":828:868  mapping(uint => Request) public requests */\n    tag_6:\n      callvalue\n      dup1\n      iszero\n      tag_34\n      jumpi\n      0x00\n      dup1\n      revert\n    tag_34:\n      pop\n      tag_35\n      0x04\n      dup1\n      calldatasize\n      sub\n      dup2\n      add\n      swap1\n      tag_36\n      swap2\n      swap1\n      tag_15\n      jump\t// in\n    tag_36:\n      tag_37\n      jump\t// in\n    tag_35:\n      mload(0x40)\n      tag_38\n      swap6\n      swap5\n      swap4\n      swap3\n      swap2\n      swap1\n      tag_39\n      jump\t// in\n    tag_38:\n      mload(0x40)\n      dup1\n      swap2\n      sub\n      swap1\n      return\n        /* \"Campaign.sol\":1344:1712  function createRequest(string memory description, uint value, address recipient) public restricted {... */\n    tag_7:\n      callvalue\n      dup1\n      iszero\n      tag_40\n      jumpi\n      0x00\n      dup1\n      revert\n    tag_40:\n      pop\n      tag_41\n      0x04\n      dup1\n      calldatasize\n      sub\n      dup2\n      add\n      swap1\n      tag_42\n      swap2\n      swap1\n      tag_43\n      jump\t// in\n    tag_42:\n      tag_44\n      jump\t// in\n    tag_41:\n      stop\n        /* \"Campaign.sol\":791:822  uint public minimumContribution */\n    tag_8:\n      callvalue\n      dup1\n      iszero\n      tag_45\n      jumpi\n      0x00\n      dup1\n      revert\n    tag_45:\n      pop\n      tag_46\n      tag_47\n      jump\t// in\n    tag_46:\n      mload(0x40)\n      tag_48\n      swap2\n      swap1\n      tag_33\n      jump\t// in\n    tag_48:\n      mload(0x40)\n      dup1\n      swap2\n      sub\n      swap1\n      return\n        /* \"Campaign.sol\":1173:1338  function contribute() public payable {... */\n    tag_9:\n      tag_49\n      tag_50\n      jump\t// in\n    tag_49:\n      stop\n        /* \"Campaign.sol\":1718:1992  function approveRequest(uint index) public {... */\n    tag_10:\n      callvalue\n      dup1\n      iszero\n      tag_51\n      jumpi\n      0x00\n      dup1\n      revert\n    tag_51:\n      pop\n      tag_52\n      0x04\n      dup1\n      calldatasize\n      sub\n      dup2\n      add\n      swap1\n      tag_53\n      swap2\n      swap1\n      tag_15\n      jump\t// in\n    tag_53:\n      tag_54\n      jump\t// in\n    tag_52:\n      stop\n        /* \"Campaign.sol\":1998:2312  function finalizeRequest(uint index) public restricted {... */\n    tag_16:\n        /* \"Campaign.sol\":979:986  manager */\n      0x01\n      0x00\n      swap1\n      sload\n      swap1\n      0x0100\n      exp\n      swap1\n      div\n      0xffffffffffffffffffffffffffffffffffffffff\n      and\n        /* \"Campaign.sol\":965:986  msg.sender == manager */\n      0xffffffffffffffffffffffffffffffffffffffff\n      and\n        /* \"Campaign.sol\":965:975  msg.sender */\n      caller\n        /* \"Campaign.sol\":965:986  msg.sender == manager */\n      0xffffffffffffffffffffffffffffffffffffffff\n      and\n      eq\n        /* \"Campaign.sol\":957:987  require(msg.sender == manager) */\n      tag_56\n      jumpi\n      0x00\n      dup1\n      revert\n    tag_56:\n        /* \"Campaign.sol\":2063:2086  Request storage request */\n      0x00\n        /* \"Campaign.sol\":2089:2097  requests */\n      0x04\n        /* \"Campaign.sol\":2089:2104  requests[index] */\n      0x00\n        /* \"Campaign.sol\":2098:2103  index */\n      dup4\n        /* \"Campaign.sol\":2089:2104  requests[index] */\n      dup2\n      mstore\n      0x20\n      add\n      swap1\n      dup2\n      mstore\n      0x20\n      add\n      0x00\n      keccak256\n        /* \"Campaign.sol\":2063:2104  Request storage request = requests[index] */\n      swap1\n      pop\n        /* \"Campaign.sol\":2124:2131  request */\n      dup1\n        /* \"Campaign.sol\":2124:2142  request.isComplete */\n      0x01\n      add\n      0x00\n      swap1\n      sload\n      swap1\n      0x0100\n      exp\n      swap1\n      div\n      0xff\n      and\n        /* \"Campaign.sol\":2123:2142  !request.isComplete */\n      iszero\n        /* \"Campaign.sol\":2115:2143  require(!request.isComplete) */\n      tag_58\n      jumpi\n      0x00\n      dup1\n      revert\n    tag_58:\n        /* \"Campaign.sol\":2206:2207  2 */\n      0x02\n        /* \"Campaign.sol\":2186:2203  contributorsCount */\n      dup1\n      sload\n        /* \"Campaign.sol\":2186:2207  contributorsCount / 2 */\n      tag_59\n      swap2\n      swap1\n      tag_60\n      jump\t// in\n    tag_59:\n        /* \"Campaign.sol\":2161:2168  request */\n      dup2\n        /* \"Campaign.sol\":2161:2182  request.approvalCount */\n      0x03\n      add\n      sload\n        /* \"Campaign.sol\":2161:2208  request.approvalCount > (contributorsCount / 2) */\n      gt\n        /* \"Campaign.sol\":2153:2209  require(request.approvalCount > (contributorsCount / 2)) */\n      tag_61\n      jumpi\n      0x00\n      dup1\n      revert\n    tag_61:\n        /* \"Campaign.sol\":2241:2245  true */\n      0x01\n        /* \"Campaign.sol\":2220:2227  request */\n      dup2\n        /* \"Campaign.sol\":2220:2238  request.isComplete */\n      0x01\n      add\n      0x00\n        /* \"Campaign.sol\":2220:2245  request.isComplete = true */\n      0x0100\n      exp\n      dup2\n      sload\n      dup2\n      0xff\n      mul\n      not\n      and\n      swap1\n      dup4\n      iszero\n      iszero\n      mul\n      or\n      swap1\n      sstore\n      pop\n        /* \"Campaign.sol\":2263:2270  request */\n      dup1\n        /* \"Campaign.sol\":2263:2280  request.recipient */\n      0x01\n      add\n      0x01\n      swap1\n      sload\n      swap1\n      0x0100\n      exp\n      swap1\n      div\n      0xffffffffffffffffffffffffffffffffffffffff\n      and\n        /* \"Campaign.sol\":2255:2290  payable(request.recipient).transfer */\n      0xffffffffffffffffffffffffffffffffffffffff\n      and\n        /* \"Campaign.sol\":2255:2305  payable(request.recipient).transfer(request.value) */\n      0x08fc\n        /* \"Campaign.sol\":2291:2298  request */\n      dup3\n        /* \"Campaign.sol\":2291:2304  request.value */\n      0x00\n      add\n      sload\n        /* \"Campaign.sol\":2255:2305  payable(request.recipient).transfer(request.value) */\n      swap1\n      dup2\n      iszero\n      mul\n      swap1\n      mload(0x40)\n      0x00\n      mload(0x40)\n      dup1\n      dup4\n      sub\n      dup2\n      dup6\n      dup9\n      dup9\n      call\n      swap4\n      pop\n      pop\n      pop\n      pop\n      iszero\n      dup1\n      iszero\n      tag_63\n      jumpi\n      returndatasize\n      0x00\n      dup1\n      returndatacopy\n      revert(0x00, returndatasize)\n    tag_63:\n      pop\n        /* \"Campaign.sol\":2053:2312  {... */\n      pop\n        /* \"Campaign.sol\":1998:2312  function finalizeRequest(uint index) public restricted {... */\n      pop\n      jump\t// out\n        /* \"Campaign.sol\":874:918  mapping(address => bool) public contributors */\n    tag_21:\n      mstore(0x20, 0x05)\n      dup1\n      0x00\n      mstore\n      keccak256(0x00, 0x40)\n      0x00\n      swap2\n      pop\n      sload\n      swap1\n      0x0100\n      exp\n      swap1\n      div\n      0xff\n      and\n      dup2\n      jump\t// out\n        /* \"Campaign.sol\":728:750  address public manager */\n    tag_26:\n      0x01\n      0x00\n      swap1\n      sload\n      swap1\n      0x0100\n      exp\n      swap1\n      div\n      0xffffffffffffffffffffffffffffffffffffffff\n      and\n      dup2\n      jump\t// out\n        /* \"Campaign.sol\":756:785  uint public contributorsCount */\n    tag_31:\n      sload(0x02)\n      dup2\n      jump\t// out\n        /* \"Campaign.sol\":828:868  mapping(uint => Request) public requests */\n    tag_37:\n      mstore(0x20, 0x04)\n      dup1\n      0x00\n      mstore\n      keccak256(0x00, 0x40)\n      0x00\n      swap2\n      pop\n      swap1\n      pop\n      dup1\n      0x00\n      add\n      sload\n      swap1\n      dup1\n      0x01\n      add\n      0x00\n      swap1\n      sload\n      swap1\n      0x0100\n      exp\n      swap1\n      div\n      0xff\n      and\n      swap1\n      dup1\n      0x01\n      add\n      0x01\n      swap1\n      sload\n      swap1\n      0x0100\n      exp\n      swap1\n      div\n      0xffffffffffffffffffffffffffffffffffffffff\n      and\n      swap1\n      dup1\n      0x02\n      add\n      dup1\n      sload\n      tag_64\n      swap1\n      tag_65\n      jump\t// in\n    tag_64:\n      dup1\n      0x1f\n      add\n      0x20\n      dup1\n      swap2\n      div\n      mul\n      0x20\n      add\n      mload(0x40)\n      swap1\n      dup2\n      add\n      0x40\n      mstore\n      dup1\n      swap3\n      swap2\n      swap1\n      dup2\n      dup2\n      mstore\n      0x20\n      add\n      dup3\n      dup1\n      sload\n      tag_66\n      swap1\n      tag_65\n      jump\t// in\n    tag_66:\n      dup1\n      iszero\n      tag_67\n      jumpi\n      dup1\n      0x1f\n      lt\n      tag_68\n      jumpi\n      0x0100\n      dup1\n      dup4\n      sload\n      div\n      mul\n      dup4\n      mstore\n      swap2\n      0x20\n      add\n      swap2\n      jump(tag_67)\n    tag_68:\n      dup3\n      add\n      swap2\n      swap1\n      0x00\n      mstore\n      keccak256(0x00, 0x20)\n      swap1\n    tag_69:\n      dup2\n      sload\n      dup2\n      mstore\n      swap1\n      0x01\n      add\n      swap1\n      0x20\n      add\n      dup1\n      dup4\n      gt\n      tag_69\n      jumpi\n      dup3\n      swap1\n      sub\n      0x1f\n      and\n      dup3\n      add\n      swap2\n    tag_67:\n      pop\n      pop\n      pop\n      pop\n      pop\n      swap1\n      dup1\n      0x03\n      add\n      sload\n      swap1\n      pop\n      dup6\n      jump\t// out\n        /* \"Campaign.sol\":1344:1712  function createRequest(string memory description, uint value, address recipient) public restricted {... */\n    tag_44:\n        /* \"Campaign.sol\":979:986  manager */\n      0x01\n      0x00\n      swap1\n      sload\n      swap1\n      0x0100\n      exp\n      swap1\n      div\n      0xffffffffffffffffffffffffffffffffffffffff\n      and\n        /* \"Campaign.sol\":965:986  msg.sender == manager */\n      0xffffffffffffffffffffffffffffffffffffffff\n      and\n        /* \"Campaign.sol\":965:975  msg.sender */\n      caller\n        /* \"Campaign.sol\":965:986  msg.sender == manager */\n      0xffffffffffffffffffffffffffffffffffffffff\n      and\n      eq\n        /* \"Campaign.sol\":957:987  require(msg.sender == manager) */\n      tag_71\n      jumpi\n      0x00\n      dup1\n      revert\n    tag_71:\n        /* \"Campaign.sol\":1453:1479  Request storage newRequest */\n      0x00\n        /* \"Campaign.sol\":1482:1490  requests */\n      0x04\n        /* \"Campaign.sol\":1482:1506  requests[requestCount++] */\n      0x00\n        /* \"Campaign.sol\":1491:1503  requestCount */\n      dup1\n      0x00\n        /* \"Campaign.sol\":1491:1505  requestCount++ */\n      dup2\n      sload\n      dup1\n      swap3\n      swap2\n      swap1\n      tag_73\n      swap1\n      tag_74\n      jump\t// in\n    tag_73:\n      swap2\n      swap1\n      pop\n      sstore\n        /* \"Campaign.sol\":1482:1506  requests[requestCount++] */\n      dup2\n      mstore\n      0x20\n      add\n      swap1\n      dup2\n      mstore\n      0x20\n      add\n      0x00\n      keccak256\n        /* \"Campaign.sol\":1453:1506  Request storage newRequest = requests[requestCount++] */\n      swap1\n      pop\n        /* \"Campaign.sol\":1535:1540  value */\n      dup3\n        /* \"Campaign.sol\":1516:1526  newRequest */\n      dup2\n        /* \"Campaign.sol\":1516:1532  newRequest.value */\n      0x00\n      add\n        /* \"Campaign.sol\":1516:1540  newRequest.value = value */\n      dup2\n      swap1\n      sstore\n      pop\n        /* \"Campaign.sol\":1577:1578  0 */\n      0x00\n        /* \"Campaign.sol\":1550:1560  newRequest */\n      dup2\n        /* \"Campaign.sol\":1550:1574  newRequest.approvalCount */\n      0x03\n      add\n        /* \"Campaign.sol\":1550:1578  newRequest.approvalCount = 0 */\n      dup2\n      swap1\n      sstore\n      pop\n        /* \"Campaign.sol\":1612:1617  false */\n      0x00\n        /* \"Campaign.sol\":1588:1598  newRequest */\n      dup2\n        /* \"Campaign.sol\":1588:1609  newRequest.isComplete */\n      0x01\n      add\n      0x00\n        /* \"Campaign.sol\":1588:1617  newRequest.isComplete = false */\n      0x0100\n      exp\n      dup2\n      sload\n      dup2\n      0xff\n      mul\n      not\n      and\n      swap1\n      dup4\n      iszero\n      iszero\n      mul\n      or\n      swap1\n      sstore\n      pop\n        /* \"Campaign.sol\":1650:1659  recipient */\n      dup2\n        /* \"Campaign.sol\":1627:1637  newRequest */\n      dup2\n        /* \"Campaign.sol\":1627:1647  newRequest.recipient */\n      0x01\n      add\n      0x01\n        /* \"Campaign.sol\":1627:1659  newRequest.recipient = recipient */\n      0x0100\n      exp\n      dup2\n      sload\n      dup2\n      0xffffffffffffffffffffffffffffffffffffffff\n      mul\n      not\n      and\n      swap1\n      dup4\n      0xffffffffffffffffffffffffffffffffffffffff\n      and\n      mul\n      or\n      swap1\n      sstore\n      pop\n        /* \"Campaign.sol\":1694:1705  description */\n      dup4\n        /* \"Campaign.sol\":1669:1679  newRequest */\n      dup2\n        /* \"Campaign.sol\":1669:1691  newRequest.description */\n      0x02\n      add\n        /* \"Campaign.sol\":1669:1705  newRequest.description = description */\n      swap1\n      dup2\n      tag_75\n      swap2\n      swap1\n      tag_76\n      jump\t// in\n    tag_75:\n      pop\n        /* \"Campaign.sol\":1443:1712  {... */\n      pop\n        /* \"Campaign.sol\":1344:1712  function createRequest(string memory description, uint value, address recipient) public restricted {... */\n      pop\n      pop\n      pop\n      jump\t// out\n        /* \"Campaign.sol\":791:822  uint public minimumContribution */\n    tag_47:\n      sload(0x03)\n      dup2\n      jump\t// out\n        /* \"Campaign.sol\":1173:1338  function contribute() public payable {... */\n    tag_50:\n        /* \"Campaign.sol\":1240:1259  minimumContribution */\n      sload(0x03)\n        /* \"Campaign.sol\":1228:1237  msg.value */\n      callvalue\n        /* \"Campaign.sol\":1228:1259  msg.value > minimumContribution */\n      gt\n        /* \"Campaign.sol\":1220:1260  require(msg.value > minimumContribution) */\n      tag_78\n      jumpi\n      0x00\n      dup1\n      revert\n    tag_78:\n        /* \"Campaign.sol\":1298:1302  true */\n      0x01\n        /* \"Campaign.sol\":1271:1283  contributors */\n      0x05\n        /* \"Campaign.sol\":1271:1295  contributors[msg.sender] */\n      0x00\n        /* \"Campaign.sol\":1284:1294  msg.sender */\n      caller\n        /* \"Campaign.sol\":1271:1295  contributors[msg.sender] */\n      0xffffffffffffffffffffffffffffffffffffffff\n      and\n      0xffffffffffffffffffffffffffffffffffffffff\n      and\n      dup2\n      mstore\n      0x20\n      add\n      swap1\n      dup2\n      mstore\n      0x20\n      add\n      0x00\n      keccak256\n      0x00\n        /* \"Campaign.sol\":1271:1302  contributors[msg.sender] = true */\n      0x0100\n      exp\n      dup2\n      sload\n      dup2\n      0xff\n      mul\n      not\n      and\n      swap1\n      dup4\n      iszero\n      iszero\n      mul\n      or\n      swap1\n      sstore\n      pop\n        /* \"Campaign.sol\":1312:1329  contributorsCount */\n      0x02\n      0x00\n        /* \"Campaign.sol\":1312:1331  contributorsCount++ */\n      dup2\n      sload\n      dup1\n      swap3\n      swap2\n      swap1\n      tag_79\n      swap1\n      tag_74\n      jump\t// in\n    tag_79:\n      swap2\n      swap1\n      pop\n      sstore\n      pop\n        /* \"Campaign.sol\":1173:1338  function contribute() public payable {... */\n      jump\t// out\n        /* \"Campaign.sol\":1718:1992  function approveRequest(uint index) public {... */\n    tag_54:\n        /* \"Campaign.sol\":1771:1794  Request storage request */\n      0x00\n        /* \"Campaign.sol\":1797:1805  requests */\n      0x04\n        /* \"Campaign.sol\":1797:1812  requests[index] */\n      0x00\n        /* \"Campaign.sol\":1806:1811  index */\n      dup4\n        /* \"Campaign.sol\":1797:1812  requests[index] */\n      dup2\n      mstore\n      0x20\n      add\n      swap1\n      dup2\n      mstore\n      0x20\n      add\n      0x00\n      keccak256\n        /* \"Campaign.sol\":1771:1812  Request storage request = requests[index] */\n      swap1\n      pop\n        /* \"Campaign.sol\":1831:1843  contributors */\n      0x05\n        /* \"Campaign.sol\":1831:1855  contributors[msg.sender] */\n      0x00\n        /* \"Campaign.sol\":1844:1854  msg.sender */\n      caller\n        /* \"Campaign.sol\":1831:1855  contributors[msg.sender] */\n      0xffffffffffffffffffffffffffffffffffffffff\n      and\n      0xffffffffffffffffffffffffffffffffffffffff\n      and\n      dup2\n      mstore\n      0x20\n      add\n      swap1\n      dup2\n      mstore\n      0x20\n      add\n      0x00\n      keccak256\n      0x00\n      swap1\n      sload\n      swap1\n      0x0100\n      exp\n      swap1\n      div\n      0xff\n      and\n        /* \"Campaign.sol\":1823:1856  require(contributors[msg.sender]) */\n      tag_81\n      jumpi\n      0x00\n      dup1\n      revert\n    tag_81:\n        /* \"Campaign.sol\":1875:1882  request */\n      dup1\n        /* \"Campaign.sol\":1875:1892  request.approvals */\n      0x04\n      add\n        /* \"Campaign.sol\":1875:1904  request.approvals[msg.sender] */\n      0x00\n        /* \"Campaign.sol\":1893:1903  msg.sender */\n      caller\n        /* \"Campaign.sol\":1875:1904  request.approvals[msg.sender] */\n      0xffffffffffffffffffffffffffffffffffffffff\n      and\n      0xffffffffffffffffffffffffffffffffffffffff\n      and\n      dup2\n      mstore\n      0x20\n      add\n      swap1\n      dup2\n      mstore\n      0x20\n      add\n      0x00\n      keccak256\n      0x00\n      swap1\n      sload\n      swap1\n      0x0100\n      exp\n      swap1\n      div\n      0xff\n      and\n        /* \"Campaign.sol\":1874:1904  !request.approvals[msg.sender] */\n      iszero\n        /* \"Campaign.sol\":1866:1905  require(!request.approvals[msg.sender]) */\n      tag_82\n      jumpi\n      0x00\n      dup1\n      revert\n    tag_82:\n        /* \"Campaign.sol\":1916:1923  request */\n      dup1\n        /* \"Campaign.sol\":1916:1937  request.approvalCount */\n      0x03\n      add\n      0x00\n        /* \"Campaign.sol\":1916:1939  request.approvalCount++ */\n      dup2\n      sload\n      dup1\n      swap3\n      swap2\n      swap1\n      tag_83\n      swap1\n      tag_74\n      jump\t// in\n    tag_83:\n      swap2\n      swap1\n      pop\n      sstore\n      pop\n        /* \"Campaign.sol\":1981:1985  true */\n      0x01\n        /* \"Campaign.sol\":1949:1956  request */\n      dup2\n        /* \"Campaign.sol\":1949:1966  request.approvals */\n      0x04\n      add\n        /* \"Campaign.sol\":1949:1978  request.approvals[msg.sender] */\n      0x00\n        /* \"Campaign.sol\":1967:1977  msg.sender */\n      caller\n        /* \"Campaign.sol\":1949:1978  request.approvals[msg.sender] */\n      0xffffffffffffffffffffffffffffffffffffffff\n      and\n      0xffffffffffffffffffffffffffffffffffffffff\n      and\n      dup2\n      mstore\n      0x20\n      add\n      swap1\n      dup2\n      mstore\n      0x20\n      add\n      0x00\n      keccak256\n      0x00\n        /* \"Campaign.sol\":1949:1985  request.approvals[msg.sender] = true */\n      0x0100\n      exp\n      dup2\n      sload\n      dup2\n      0xff\n      mul\n      not\n      and\n      swap1\n      dup4\n      iszero\n      iszero\n      mul\n      or\n      swap1\n      sstore\n      pop\n        /* \"Campaign.sol\":1761:1992  {... */\n      pop\n        /* \"Campaign.sol\":1718:1992  function approveRequest(uint index) public {... */\n      pop\n      jump\t// out\n        /* \"#utility.yul\":7:82   */\n    tag_84:\n        /* \"#utility.yul\":40:46   */\n      0x00\n        /* \"#utility.yul\":73:75   */\n      0x40\n        /* \"#utility.yul\":67:76   */\n      mload\n        /* \"#utility.yul\":57:76   */\n      swap1\n      pop\n        /* \"#utility.yul\":7:82   */\n      swap1\n      jump\t// out\n        /* \"#utility.yul\":88:205   */\n    tag_85:\n        /* \"#utility.yul\":197:198   */\n      0x00\n        /* \"#utility.yul\":194:195   */\n      dup1\n        /* \"#utility.yul\":187:199   */\n      revert\n        /* \"#utility.yul\":211:328   */\n    tag_86:\n        /* \"#utility.yul\":320:321   */\n      0x00\n        /* \"#utility.yul\":317:318   */\n      dup1\n        /* \"#utility.yul\":310:322   */\n      revert\n        /* \"#utility.yul\":334:411   */\n    tag_87:\n        /* \"#utility.yul\":371:378   */\n      0x00\n        /* \"#utility.yul\":400:405   */\n      dup2\n        /* \"#utility.yul\":389:405   */\n      swap1\n      pop\n        /* \"#utility.yul\":334:411   */\n      swap2\n      swap1\n      pop\n      jump\t// out\n        /* \"#utility.yul\":417:539   */\n    tag_88:\n        /* \"#utility.yul\":490:514   */\n      tag_136\n        /* \"#utility.yul\":508:513   */\n      dup2\n        /* \"#utility.yul\":490:514   */\n      tag_87\n      jump\t// in\n    tag_136:\n        /* \"#utility.yul\":483:488   */\n      dup2\n        /* \"#utility.yul\":480:515   */\n      eq\n        /* \"#utility.yul\":470:533   */\n      tag_137\n      jumpi\n        /* \"#utility.yul\":529:530   */\n      0x00\n        /* \"#utility.yul\":526:527   */\n      dup1\n        /* \"#utility.yul\":519:531   */\n      revert\n        /* \"#utility.yul\":470:533   */\n    tag_137:\n        /* \"#utility.yul\":417:539   */\n      pop\n      jump\t// out\n        /* \"#utility.yul\":545:684   */\n    tag_89:\n        /* \"#utility.yul\":591:596   */\n      0x00\n        /* \"#utility.yul\":629:635   */\n      dup2\n        /* \"#utility.yul\":616:636   */\n      calldataload\n        /* \"#utility.yul\":607:636   */\n      swap1\n      pop\n        /* \"#utility.yul\":645:678   */\n      tag_139\n        /* \"#utility.yul\":672:677   */\n      dup2\n        /* \"#utility.yul\":645:678   */\n      tag_88\n      jump\t// in\n    tag_139:\n        /* \"#utility.yul\":545:684   */\n      swap3\n      swap2\n      pop\n      pop\n      jump\t// out\n        /* \"#utility.yul\":690:1019   */\n    tag_15:\n        /* \"#utility.yul\":749:755   */\n      0x00\n        /* \"#utility.yul\":798:800   */\n      0x20\n        /* \"#utility.yul\":786:795   */\n      dup3\n        /* \"#utility.yul\":777:784   */\n      dup5\n        /* \"#utility.yul\":773:796   */\n      sub\n        /* \"#utility.yul\":769:801   */\n      slt\n        /* \"#utility.yul\":766:885   */\n      iszero\n      tag_141\n      jumpi\n        /* \"#utility.yul\":804:883   */\n      tag_142\n      tag_85\n      jump\t// in\n    tag_142:\n        /* \"#utility.yul\":766:885   */\n    tag_141:\n        /* \"#utility.yul\":924:925   */\n      0x00\n        /* \"#utility.yul\":949:1002   */\n      tag_143\n        /* \"#utility.yul\":994:1001   */\n      dup5\n        /* \"#utility.yul\":985:991   */\n      dup3\n        /* \"#utility.yul\":974:983   */\n      dup6\n        /* \"#utility.yul\":970:992   */\n      add\n        /* \"#utility.yul\":949:1002   */\n      tag_89\n      jump\t// in\n    tag_143:\n        /* \"#utility.yul\":939:1002   */\n      swap2\n      pop\n        /* \"#utility.yul\":895:1012   */\n      pop\n        /* \"#utility.yul\":690:1019   */\n      swap3\n      swap2\n      pop\n      pop\n      jump\t// out\n        /* \"#utility.yul\":1025:1151   */\n    tag_90:\n        /* \"#utility.yul\":1062:1069   */\n      0x00\n        /* \"#utility.yul\":1102:1144   */\n      0xffffffffffffffffffffffffffffffffffffffff\n        /* \"#utility.yul\":1095:1100   */\n      dup3\n        /* \"#utility.yul\":1091:1145   */\n      and\n        /* \"#utility.yul\":1080:1145   */\n      swap1\n      pop\n        /* \"#utility.yul\":1025:1151   */\n      swap2\n      swap1\n      pop\n      jump\t// out\n        /* \"#utility.yul\":1157:1253   */\n    tag_91:\n        /* \"#utility.yul\":1194:1201   */\n      0x00\n        /* \"#utility.yul\":1223:1247   */\n      tag_146\n        /* \"#utility.yul\":1241:1246   */\n      dup3\n        /* \"#utility.yul\":1223:1247   */\n      tag_90\n      jump\t// in\n    tag_146:\n        /* \"#utility.yul\":1212:1247   */\n      swap1\n      pop\n        /* \"#utility.yul\":1157:1253   */\n      swap2\n      swap1\n      pop\n      jump\t// out\n        /* \"#utility.yul\":1259:1381   */\n    tag_92:\n        /* \"#utility.yul\":1332:1356   */\n      tag_148\n        /* \"#utility.yul\":1350:1355   */\n      dup2\n        /* \"#utility.yul\":1332:1356   */\n      tag_91\n      jump\t// in\n    tag_148:\n        /* \"#utility.yul\":1325:1330   */\n      dup2\n        /* \"#utility.yul\":1322:1357   */\n      eq\n        /* \"#utility.yul\":1312:1375   */\n      tag_149\n      jumpi\n        /* \"#utility.yul\":1371:1372   */\n      0x00\n        /* \"#utility.yul\":1368:1369   */\n      dup1\n        /* \"#utility.yul\":1361:1373   */\n      revert\n        /* \"#utility.yul\":1312:1375   */\n    tag_149:\n        /* \"#utility.yul\":1259:1381   */\n      pop\n      jump\t// out\n        /* \"#utility.yul\":1387:1526   */\n    tag_93:\n        /* \"#utility.yul\":1433:1438   */\n      0x00\n        /* \"#utility.yul\":1471:1477   */\n      dup2\n        /* \"#utility.yul\":1458:1478   */\n      calldataload\n        /* \"#utility.yul\":1449:1478   */\n      swap1\n      pop\n        /* \"#utility.yul\":1487:1520   */\n      tag_151\n        /* \"#utility.yul\":1514:1519   */\n      dup2\n        /* \"#utility.yul\":1487:1520   */\n      tag_92\n      jump\t// in\n    tag_151:\n        /* \"#utility.yul\":1387:1526   */\n      swap3\n      swap2\n      pop\n      pop\n      jump\t// out\n        /* \"#utility.yul\":1532:1861   */\n    tag_20:\n        /* \"#utility.yul\":1591:1597   */\n      0x00\n        /* \"#utility.yul\":1640:1642   */\n      0x20\n        /* \"#utility.yul\":1628:1637   */\n      dup3\n        /* \"#utility.yul\":1619:1626   */\n      dup5\n        /* \"#utility.yul\":1615:1638   */\n      sub\n        /* \"#utility.yul\":1611:1643   */\n      slt\n        /* \"#utility.yul\":1608:1727   */\n      iszero\n      tag_153\n      jumpi\n        /* \"#utility.yul\":1646:1725   */\n      tag_154\n      tag_85\n      jump\t// in\n    tag_154:\n        /* \"#utility.yul\":1608:1727   */\n    tag_153:\n        /* \"#utility.yul\":1766:1767   */\n      0x00\n        /* \"#utility.yul\":1791:1844   */\n      tag_155\n        /* \"#utility.yul\":1836:1843   */\n      dup5\n        /* \"#utility.yul\":1827:1833   */\n      dup3\n        /* \"#utility.yul\":1816:1825   */\n      dup6\n        /* \"#utility.yul\":1812:1834   */\n      add\n        /* \"#utility.yul\":1791:1844   */\n      tag_93\n      jump\t// in\n    tag_155:\n        /* \"#utility.yul\":1781:1844   */\n      swap2\n      pop\n        /* \"#utility.yul\":1737:1854   */\n      pop\n        /* \"#utility.yul\":1532:1861   */\n      swap3\n      swap2\n      pop\n      pop\n      jump\t// out\n        /* \"#utility.yul\":1867:1957   */\n    tag_94:\n        /* \"#utility.yul\":1901:1908   */\n      0x00\n        /* \"#utility.yul\":1944:1949   */\n      dup2\n        /* \"#utility.yul\":1937:1950   */\n      iszero\n        /* \"#utility.yul\":1930:1951   */\n      iszero\n        /* \"#utility.yul\":1919:1951   */\n      swap1\n      pop\n        /* \"#utility.yul\":1867:1957   */\n      swap2\n      swap1\n      pop\n      jump\t// out\n        /* \"#utility.yul\":1963:2072   */\n    tag_95:\n        /* \"#utility.yul\":2044:2065   */\n      tag_158\n        /* \"#utility.yul\":2059:2064   */\n      dup2\n        /* \"#utility.yul\":2044:2065   */\n      tag_94\n      jump\t// in\n    tag_158:\n        /* \"#utility.yul\":2039:2042   */\n      dup3\n        /* \"#utility.yul\":2032:2066   */\n      mstore\n        /* \"#utility.yul\":1963:2072   */\n      pop\n      pop\n      jump\t// out\n        /* \"#utility.yul\":2078:2288   */\n    tag_23:\n        /* \"#utility.yul\":2165:2169   */\n      0x00\n        /* \"#utility.yul\":2203:2205   */\n      0x20\n        /* \"#utility.yul\":2192:2201   */\n      dup3\n        /* \"#utility.yul\":2188:2206   */\n      add\n        /* \"#utility.yul\":2180:2206   */\n      swap1\n      pop\n        /* \"#utility.yul\":2216:2281   */\n      tag_160\n        /* \"#utility.yul\":2278:2279   */\n      0x00\n        /* \"#utility.yul\":2267:2276   */\n      dup4\n        /* \"#utility.yul\":2263:2280   */\n      add\n        /* \"#utility.yul\":2254:2260   */\n      dup5\n        /* \"#utility.yul\":2216:2281   */\n      tag_95\n      jump\t// in\n    tag_160:\n        /* \"#utility.yul\":2078:2288   */\n      swap3\n      swap2\n      pop\n      pop\n      jump\t// out\n        /* \"#utility.yul\":2294:2412   */\n    tag_96:\n        /* \"#utility.yul\":2381:2405   */\n      tag_162\n        /* \"#utility.yul\":2399:2404   */\n      dup2\n        /* \"#utility.yul\":2381:2405   */\n      tag_91\n      jump\t// in\n    tag_162:\n        /* \"#utility.yul\":2376:2379   */\n      dup3\n        /* \"#utility.yul\":2369:2406   */\n      mstore\n        /* \"#utility.yul\":2294:2412   */\n      pop\n      pop\n      jump\t// out\n        /* \"#utility.yul\":2418:2640   */\n    tag_28:\n        /* \"#utility.yul\":2511:2515   */\n      0x00\n        /* \"#utility.yul\":2549:2551   */\n      0x20\n        /* \"#utility.yul\":2538:2547   */\n      dup3\n        /* \"#utility.yul\":2534:2552   */\n      add\n        /* \"#utility.yul\":2526:2552   */\n      swap1\n      pop\n        /* \"#utility.yul\":2562:2633   */\n      tag_164\n        /* \"#utility.yul\":2630:2631   */\n      0x00\n        /* \"#utility.yul\":2619:2628   */\n      dup4\n        /* \"#utility.yul\":2615:2632   */\n      add\n        /* \"#utility.yul\":2606:2612   */\n      dup5\n        /* \"#utility.yul\":2562:2633   */\n      tag_96\n      jump\t// in\n    tag_164:\n        /* \"#utility.yul\":2418:2640   */\n      swap3\n      swap2\n      pop\n      pop\n      jump\t// out\n        /* \"#utility.yul\":2646:2764   */\n    tag_97:\n        /* \"#utility.yul\":2733:2757   */\n      tag_166\n        /* \"#utility.yul\":2751:2756   */\n      dup2\n        /* \"#utility.yul\":2733:2757   */\n      tag_87\n      jump\t// in\n    tag_166:\n        /* \"#utility.yul\":2728:2731   */\n      dup3\n        /* \"#utility.yul\":2721:2758   */\n      mstore\n        /* \"#utility.yul\":2646:2764   */\n      pop\n      pop\n      jump\t// out\n        /* \"#utility.yul\":2770:2992   */\n    tag_33:\n        /* \"#utility.yul\":2863:2867   */\n      0x00\n        /* \"#utility.yul\":2901:2903   */\n      0x20\n        /* \"#utility.yul\":2890:2899   */\n      dup3\n        /* \"#utility.yul\":2886:2904   */\n      add\n        /* \"#utility.yul\":2878:2904   */\n      swap1\n      pop\n        /* \"#utility.yul\":2914:2985   */\n      tag_168\n        /* \"#utility.yul\":2982:2983   */\n      0x00\n        /* \"#utility.yul\":2971:2980   */\n      dup4\n        /* \"#utility.yul\":2967:2984   */\n      add\n        /* \"#utility.yul\":2958:2964   */\n      dup5\n        /* \"#utility.yul\":2914:2985   */\n      tag_97\n      jump\t// in\n    tag_168:\n        /* \"#utility.yul\":2770:2992   */\n      swap3\n      swap2\n      pop\n      pop\n      jump\t// out\n        /* \"#utility.yul\":2998:3097   */\n    tag_98:\n        /* \"#utility.yul\":3050:3056   */\n      0x00\n        /* \"#utility.yul\":3084:3089   */\n      dup2\n        /* \"#utility.yul\":3078:3090   */\n      mload\n        /* \"#utility.yul\":3068:3090   */\n      swap1\n      pop\n        /* \"#utility.yul\":2998:3097   */\n      swap2\n      swap1\n      pop\n      jump\t// out\n        /* \"#utility.yul\":3103:3272   */\n    tag_99:\n        /* \"#utility.yul\":3187:3198   */\n      0x00\n        /* \"#utility.yul\":3221:3227   */\n      dup3\n        /* \"#utility.yul\":3216:3219   */\n      dup3\n        /* \"#utility.yul\":3209:3228   */\n      mstore\n        /* \"#utility.yul\":3261:3265   */\n      0x20\n        /* \"#utility.yul\":3256:3259   */\n      dup3\n        /* \"#utility.yul\":3252:3266   */\n      add\n        /* \"#utility.yul\":3237:3266   */\n      swap1\n      pop\n        /* \"#utility.yul\":3103:3272   */\n      swap3\n      swap2\n      pop\n      pop\n      jump\t// out\n        /* \"#utility.yul\":3278:3524   */\n    tag_100:\n        /* \"#utility.yul\":3359:3360   */\n      0x00\n        /* \"#utility.yul\":3369:3482   */\n    tag_172:\n        /* \"#utility.yul\":3383:3389   */\n      dup4\n        /* \"#utility.yul\":3380:3381   */\n      dup2\n        /* \"#utility.yul\":3377:3390   */\n      lt\n        /* \"#utility.yul\":3369:3482   */\n      iszero\n      tag_174\n      jumpi\n        /* \"#utility.yul\":3468:3469   */\n      dup1\n        /* \"#utility.yul\":3463:3466   */\n      dup3\n        /* \"#utility.yul\":3459:3470   */\n      add\n        /* \"#utility.yul\":3453:3471   */\n      mload\n        /* \"#utility.yul\":3449:3450   */\n      dup2\n        /* \"#utility.yul\":3444:3447   */\n      dup5\n        /* \"#utility.yul\":3440:3451   */\n      add\n        /* \"#utility.yul\":3433:3472   */\n      mstore\n        /* \"#utility.yul\":3405:3407   */\n      0x20\n        /* \"#utility.yul\":3402:3403   */\n      dup2\n        /* \"#utility.yul\":3398:3408   */\n      add\n        /* \"#utility.yul\":3393:3408   */\n      swap1\n      pop\n        /* \"#utility.yul\":3369:3482   */\n      jump(tag_172)\n    tag_174:\n        /* \"#utility.yul\":3516:3517   */\n      0x00\n        /* \"#utility.yul\":3507:3513   */\n      dup5\n        /* \"#utility.yul\":3502:3505   */\n      dup5\n        /* \"#utility.yul\":3498:3514   */\n      add\n        /* \"#utility.yul\":3491:3518   */\n      mstore\n        /* \"#utility.yul\":3340:3524   */\n      pop\n        /* \"#utility.yul\":3278:3524   */\n      pop\n      pop\n      pop\n      jump\t// out\n        /* \"#utility.yul\":3530:3632   */\n    tag_101:\n        /* \"#utility.yul\":3571:3577   */\n      0x00\n        /* \"#utility.yul\":3622:3624   */\n      0x1f\n        /* \"#utility.yul\":3618:3625   */\n      not\n        /* \"#utility.yul\":3613:3615   */\n      0x1f\n        /* \"#utility.yul\":3606:3611   */\n      dup4\n        /* \"#utility.yul\":3602:3616   */\n      add\n        /* \"#utility.yul\":3598:3626   */\n      and\n        /* \"#utility.yul\":3588:3626   */\n      swap1\n      pop\n        /* \"#utility.yul\":3530:3632   */\n      swap2\n      swap1\n      pop\n      jump\t// out\n        /* \"#utility.yul\":3638:4015   */\n    tag_102:\n        /* \"#utility.yul\":3726:3729   */\n      0x00\n        /* \"#utility.yul\":3754:3793   */\n      tag_177\n        /* \"#utility.yul\":3787:3792   */\n      dup3\n        /* \"#utility.yul\":3754:3793   */\n      tag_98\n      jump\t// in\n    tag_177:\n        /* \"#utility.yul\":3809:3880   */\n      tag_178\n        /* \"#utility.yul\":3873:3879   */\n      dup2\n        /* \"#utility.yul\":3868:3871   */\n      dup6\n        /* \"#utility.yul\":3809:3880   */\n      tag_99\n      jump\t// in\n    tag_178:\n        /* \"#utility.yul\":3802:3880   */\n      swap4\n      pop\n        /* \"#utility.yul\":3889:3954   */\n      tag_179\n        /* \"#utility.yul\":3947:3953   */\n      dup2\n        /* \"#utility.yul\":3942:3945   */\n      dup6\n        /* \"#utility.yul\":3935:3939   */\n      0x20\n        /* \"#utility.yul\":3928:3933   */\n      dup7\n        /* \"#utility.yul\":3924:3940   */\n      add\n        /* \"#utility.yul\":3889:3954   */\n      tag_100\n      jump\t// in\n    tag_179:\n        /* \"#utility.yul\":3979:4008   */\n      tag_180\n        /* \"#utility.yul\":4001:4007   */\n      dup2\n        /* \"#utility.yul\":3979:4008   */\n      tag_101\n      jump\t// in\n    tag_180:\n        /* \"#utility.yul\":3974:3977   */\n      dup5\n        /* \"#utility.yul\":3970:4009   */\n      add\n        /* \"#utility.yul\":3963:4009   */\n      swap2\n      pop\n        /* \"#utility.yul\":3730:4015   */\n      pop\n        /* \"#utility.yul\":3638:4015   */\n      swap3\n      swap2\n      pop\n      pop\n      jump\t// out\n        /* \"#utility.yul\":4021:4764   */\n    tag_39:\n        /* \"#utility.yul\":4240:4244   */\n      0x00\n        /* \"#utility.yul\":4278:4281   */\n      0xa0\n        /* \"#utility.yul\":4267:4276   */\n      dup3\n        /* \"#utility.yul\":4263:4282   */\n      add\n        /* \"#utility.yul\":4255:4282   */\n      swap1\n      pop\n        /* \"#utility.yul\":4292:4363   */\n      tag_182\n        /* \"#utility.yul\":4360:4361   */\n      0x00\n        /* \"#utility.yul\":4349:4358   */\n      dup4\n        /* \"#utility.yul\":4345:4362   */\n      add\n        /* \"#utility.yul\":4336:4342   */\n      dup9\n        /* \"#utility.yul\":4292:4363   */\n      tag_97\n      jump\t// in\n    tag_182:\n        /* \"#utility.yul\":4373:4439   */\n      tag_183\n        /* \"#utility.yul\":4435:4437   */\n      0x20\n        /* \"#utility.yul\":4424:4433   */\n      dup4\n        /* \"#utility.yul\":4420:4438   */\n      add\n        /* \"#utility.yul\":4411:4417   */\n      dup8\n        /* \"#utility.yul\":4373:4439   */\n      tag_95\n      jump\t// in\n    tag_183:\n        /* \"#utility.yul\":4449:4521   */\n      tag_184\n        /* \"#utility.yul\":4517:4519   */\n      0x40\n        /* \"#utility.yul\":4506:4515   */\n      dup4\n        /* \"#utility.yul\":4502:4520   */\n      add\n        /* \"#utility.yul\":4493:4499   */\n      dup7\n        /* \"#utility.yul\":4449:4521   */\n      tag_96\n      jump\t// in\n    tag_184:\n        /* \"#utility.yul\":4568:4577   */\n      dup2\n        /* \"#utility.yul\":4562:4566   */\n      dup2\n        /* \"#utility.yul\":4558:4578   */\n      sub\n        /* \"#utility.yul\":4553:4555   */\n      0x60\n        /* \"#utility.yul\":4542:4551   */\n      dup4\n        /* \"#utility.yul\":4538:4556   */\n      add\n        /* \"#utility.yul\":4531:4579   */\n      mstore\n        /* \"#utility.yul\":4596:4674   */\n      tag_185\n        /* \"#utility.yul\":4669:4673   */\n      dup2\n        /* \"#utility.yul\":4660:4666   */\n      dup6\n        /* \"#utility.yul\":4596:4674   */\n      tag_102\n      jump\t// in\n    tag_185:\n        /* \"#utility.yul\":4588:4674   */\n      swap1\n      pop\n        /* \"#utility.yul\":4684:4757   */\n      tag_186\n        /* \"#utility.yul\":4752:4755   */\n      0x80\n        /* \"#utility.yul\":4741:4750   */\n      dup4\n        /* \"#utility.yul\":4737:4756   */\n      add\n        /* \"#utility.yul\":4728:4734   */\n      dup5\n        /* \"#utility.yul\":4684:4757   */\n      tag_97\n      jump\t// in\n    tag_186:\n        /* \"#utility.yul\":4021:4764   */\n      swap7\n      swap6\n      pop\n      pop\n      pop\n      pop\n      pop\n      pop\n      jump\t// out\n        /* \"#utility.yul\":4770:4887   */\n    tag_103:\n        /* \"#utility.yul\":4879:4880   */\n      0x00\n        /* \"#utility.yul\":4876:4877   */\n      dup1\n        /* \"#utility.yul\":4869:4881   */\n      revert\n        /* \"#utility.yul\":4893:5010   */\n    tag_104:\n        /* \"#utility.yul\":5002:5003   */\n      0x00\n        /* \"#utility.yul\":4999:5000   */\n      dup1\n        /* \"#utility.yul\":4992:5004   */\n      revert\n        /* \"#utility.yul\":5016:5196   */\n    tag_105:\n        /* \"#utility.yul\":5064:5141   */\n      0x4e487b7100000000000000000000000000000000000000000000000000000000\n        /* \"#utility.yul\":5061:5062   */\n      0x00\n        /* \"#utility.yul\":5054:5142   */\n      mstore\n        /* \"#utility.yul\":5161:5165   */\n      0x41\n        /* \"#utility.yul\":5158:5159   */\n      0x04\n        /* \"#utility.yul\":5151:5166   */\n      mstore\n        /* \"#utility.yul\":5185:5189   */\n      0x24\n        /* \"#utility.yul\":5182:5183   */\n      0x00\n        /* \"#utility.yul\":5175:5190   */\n      revert\n        /* \"#utility.yul\":5202:5483   */\n    tag_106:\n        /* \"#utility.yul\":5285:5312   */\n      tag_191\n        /* \"#utility.yul\":5307:5311   */\n      dup3\n        /* \"#utility.yul\":5285:5312   */\n      tag_101\n      jump\t// in\n    tag_191:\n        /* \"#utility.yul\":5277:5283   */\n      dup2\n        /* \"#utility.yul\":5273:5313   */\n      add\n        /* \"#utility.yul\":5415:5421   */\n      dup2\n        /* \"#utility.yul\":5403:5413   */\n      dup2\n        /* \"#utility.yul\":5400:5422   */\n      lt\n        /* \"#utility.yul\":5379:5397   */\n      0xffffffffffffffff\n        /* \"#utility.yul\":5367:5377   */\n      dup3\n        /* \"#utility.yul\":5364:5398   */\n      gt\n        /* \"#utility.yul\":5361:5423   */\n      or\n        /* \"#utility.yul\":5358:5446   */\n      iszero\n      tag_192\n      jumpi\n        /* \"#utility.yul\":5426:5444   */\n      tag_193\n      tag_105\n      jump\t// in\n    tag_193:\n        /* \"#utility.yul\":5358:5446   */\n    tag_192:\n        /* \"#utility.yul\":5466:5476   */\n      dup1\n        /* \"#utility.yul\":5462:5464   */\n      0x40\n        /* \"#utility.yul\":5455:5477   */\n      mstore\n        /* \"#utility.yul\":5245:5483   */\n      pop\n        /* \"#utility.yul\":5202:5483   */\n      pop\n      pop\n      jump\t// out\n        /* \"#utility.yul\":5489:5618   */\n    tag_107:\n        /* \"#utility.yul\":5523:5529   */\n      0x00\n        /* \"#utility.yul\":5550:5570   */\n      tag_195\n      tag_84\n      jump\t// in\n    tag_195:\n        /* \"#utility.yul\":5540:5570   */\n      swap1\n      pop\n        /* \"#utility.yul\":5579:5612   */\n      tag_196\n        /* \"#utility.yul\":5607:5611   */\n      dup3\n        /* \"#utility.yul\":5599:5605   */\n      dup3\n        /* \"#utility.yul\":5579:5612   */\n      tag_106\n      jump\t// in\n    tag_196:\n        /* \"#utility.yul\":5489:5618   */\n      swap2\n      swap1\n      pop\n      jump\t// out\n        /* \"#utility.yul\":5624:5932   */\n    tag_108:\n        /* \"#utility.yul\":5686:5690   */\n      0x00\n        /* \"#utility.yul\":5776:5794   */\n      0xffffffffffffffff\n        /* \"#utility.yul\":5768:5774   */\n      dup3\n        /* \"#utility.yul\":5765:5795   */\n      gt\n        /* \"#utility.yul\":5762:5818   */\n      iszero\n      tag_198\n      jumpi\n        /* \"#utility.yul\":5798:5816   */\n      tag_199\n      tag_105\n      jump\t// in\n    tag_199:\n        /* \"#utility.yul\":5762:5818   */\n    tag_198:\n        /* \"#utility.yul\":5836:5865   */\n      tag_200\n        /* \"#utility.yul\":5858:5864   */\n      dup3\n        /* \"#utility.yul\":5836:5865   */\n      tag_101\n      jump\t// in\n    tag_200:\n        /* \"#utility.yul\":5828:5865   */\n      swap1\n      pop\n        /* \"#utility.yul\":5920:5924   */\n      0x20\n        /* \"#utility.yul\":5914:5918   */\n      dup2\n        /* \"#utility.yul\":5910:5925   */\n      add\n        /* \"#utility.yul\":5902:5925   */\n      swap1\n      pop\n        /* \"#utility.yul\":5624:5932   */\n      swap2\n      swap1\n      pop\n      jump\t// out\n        /* \"#utility.yul\":5938:6084   */\n    tag_109:\n        /* \"#utility.yul\":6035:6041   */\n      dup3\n        /* \"#utility.yul\":6030:6033   */\n      dup2\n        /* \"#utility.yul\":6025:6028   */\n      dup4\n        /* \"#utility.yul\":6012:6042   */\n      calldatacopy\n        /* \"#utility.yul\":6076:6077   */\n      0x00\n        /* \"#utility.yul\":6067:6073   */\n      dup4\n        /* \"#utility.yul\":6062:6065   */\n      dup4\n        /* \"#utility.yul\":6058:6074   */\n      add\n        /* \"#utility.yul\":6051:6078   */\n      mstore\n        /* \"#utility.yul\":5938:6084   */\n      pop\n      pop\n      pop\n      jump\t// out\n        /* \"#utility.yul\":6090:6515   */\n    tag_110:\n        /* \"#utility.yul\":6168:6173   */\n      0x00\n        /* \"#utility.yul\":6193:6259   */\n      tag_203\n        /* \"#utility.yul\":6209:6258   */\n      tag_204\n        /* \"#utility.yul\":6251:6257   */\n      dup5\n        /* \"#utility.yul\":6209:6258   */\n      tag_108\n      jump\t// in\n    tag_204:\n        /* \"#utility.yul\":6193:6259   */\n      tag_107\n      jump\t// in\n    tag_203:\n        /* \"#utility.yul\":6184:6259   */\n      swap1\n      pop\n        /* \"#utility.yul\":6282:6288   */\n      dup3\n        /* \"#utility.yul\":6275:6280   */\n      dup2\n        /* \"#utility.yul\":6268:6289   */\n      mstore\n        /* \"#utility.yul\":6320:6324   */\n      0x20\n        /* \"#utility.yul\":6313:6318   */\n      dup2\n        /* \"#utility.yul\":6309:6325   */\n      add\n        /* \"#utility.yul\":6358:6361   */\n      dup5\n        /* \"#utility.yul\":6349:6355   */\n      dup5\n        /* \"#utility.yul\":6344:6347   */\n      dup5\n        /* \"#utility.yul\":6340:6356   */\n      add\n        /* \"#utility.yul\":6337:6362   */\n      gt\n        /* \"#utility.yul\":6334:6446   */\n      iszero\n      tag_205\n      jumpi\n        /* \"#utility.yul\":6365:6444   */\n      tag_206\n      tag_104\n      jump\t// in\n    tag_206:\n        /* \"#utility.yul\":6334:6446   */\n    tag_205:\n        /* \"#utility.yul\":6455:6509   */\n      tag_207\n        /* \"#utility.yul\":6502:6508   */\n      dup5\n        /* \"#utility.yul\":6497:6500   */\n      dup3\n        /* \"#utility.yul\":6492:6495   */\n      dup6\n        /* \"#utility.yul\":6455:6509   */\n      tag_109\n      jump\t// in\n    tag_207:\n        /* \"#utility.yul\":6174:6515   */\n      pop\n        /* \"#utility.yul\":6090:6515   */\n      swap4\n      swap3\n      pop\n      pop\n      pop\n      jump\t// out\n        /* \"#utility.yul\":6535:6875   */\n    tag_111:\n        /* \"#utility.yul\":6591:6596   */\n      0x00\n        /* \"#utility.yul\":6640:6643   */\n      dup3\n        /* \"#utility.yul\":6633:6637   */\n      0x1f\n        /* \"#utility.yul\":6625:6631   */\n      dup4\n        /* \"#utility.yul\":6621:6638   */\n      add\n        /* \"#utility.yul\":6617:6644   */\n      slt\n        /* \"#utility.yul\":6607:6729   */\n      tag_209\n      jumpi\n        /* \"#utility.yul\":6648:6727   */\n      tag_210\n      tag_103\n      jump\t// in\n    tag_210:\n        /* \"#utility.yul\":6607:6729   */\n    tag_209:\n        /* \"#utility.yul\":6765:6771   */\n      dup2\n        /* \"#utility.yul\":6752:6772   */\n      calldataload\n        /* \"#utility.yul\":6790:6869   */\n      tag_211\n        /* \"#utility.yul\":6865:6868   */\n      dup5\n        /* \"#utility.yul\":6857:6863   */\n      dup3\n        /* \"#utility.yul\":6850:6854   */\n      0x20\n        /* \"#utility.yul\":6842:6848   */\n      dup7\n        /* \"#utility.yul\":6838:6855   */\n      add\n        /* \"#utility.yul\":6790:6869   */\n      tag_110\n      jump\t// in\n    tag_211:\n        /* \"#utility.yul\":6781:6869   */\n      swap2\n      pop\n        /* \"#utility.yul\":6597:6875   */\n      pop\n        /* \"#utility.yul\":6535:6875   */\n      swap3\n      swap2\n      pop\n      pop\n      jump\t// out\n        /* \"#utility.yul\":6881:7680   */\n    tag_43:\n        /* \"#utility.yul\":6968:6974   */\n      0x00\n        /* \"#utility.yul\":6976:6982   */\n      dup1\n        /* \"#utility.yul\":6984:6990   */\n      0x00\n        /* \"#utility.yul\":7033:7035   */\n      0x60\n        /* \"#utility.yul\":7021:7030   */\n      dup5\n        /* \"#utility.yul\":7012:7019   */\n      dup7\n        /* \"#utility.yul\":7008:7031   */\n      sub\n        /* \"#utility.yul\":7004:7036   */\n      slt\n        /* \"#utility.yul\":7001:7120   */\n      iszero\n      tag_213\n      jumpi\n        /* \"#utility.yul\":7039:7118   */\n      tag_214\n      tag_85\n      jump\t// in\n    tag_214:\n        /* \"#utility.yul\":7001:7120   */\n    tag_213:\n        /* \"#utility.yul\":7187:7188   */\n      0x00\n        /* \"#utility.yul\":7176:7185   */\n      dup5\n        /* \"#utility.yul\":7172:7189   */\n      add\n        /* \"#utility.yul\":7159:7190   */\n      calldataload\n        /* \"#utility.yul\":7217:7235   */\n      0xffffffffffffffff\n        /* \"#utility.yul\":7209:7215   */\n      dup2\n        /* \"#utility.yul\":7206:7236   */\n      gt\n        /* \"#utility.yul\":7203:7320   */\n      iszero\n      tag_215\n      jumpi\n        /* \"#utility.yul\":7239:7318   */\n      tag_216\n      tag_86\n      jump\t// in\n    tag_216:\n        /* \"#utility.yul\":7203:7320   */\n    tag_215:\n        /* \"#utility.yul\":7344:7407   */\n      tag_217\n        /* \"#utility.yul\":7399:7406   */\n      dup7\n        /* \"#utility.yul\":7390:7396   */\n      dup3\n        /* \"#utility.yul\":7379:7388   */\n      dup8\n        /* \"#utility.yul\":7375:7397   */\n      add\n        /* \"#utility.yul\":7344:7407   */\n      tag_111\n      jump\t// in\n    tag_217:\n        /* \"#utility.yul\":7334:7407   */\n      swap4\n      pop\n        /* \"#utility.yul\":7130:7417   */\n      pop\n        /* \"#utility.yul\":7456:7458   */\n      0x20\n        /* \"#utility.yul\":7482:7535   */\n      tag_218\n        /* \"#utility.yul\":7527:7534   */\n      dup7\n        /* \"#utility.yul\":7518:7524   */\n      dup3\n        /* \"#utility.yul\":7507:7516   */\n      dup8\n        /* \"#utility.yul\":7503:7525   */\n      add\n        /* \"#utility.yul\":7482:7535   */\n      tag_89\n      jump\t// in\n    tag_218:\n        /* \"#utility.yul\":7472:7535   */\n      swap3\n      pop\n        /* \"#utility.yul\":7427:7545   */\n      pop\n        /* \"#utility.yul\":7584:7586   */\n      0x40\n        /* \"#utility.yul\":7610:7663   */\n      tag_219\n        /* \"#utility.yul\":7655:7662   */\n      dup7\n        /* \"#utility.yul\":7646:7652   */\n      dup3\n        /* \"#utility.yul\":7635:7644   */\n      dup8\n        /* \"#utility.yul\":7631:7653   */\n      add\n        /* \"#utility.yul\":7610:7663   */\n      tag_93\n      jump\t// in\n    tag_219:\n        /* \"#utility.yul\":7600:7663   */\n      swap2\n      pop\n        /* \"#utility.yul\":7555:7673   */\n      pop\n        /* \"#utility.yul\":6881:7680   */\n      swap3\n      pop\n      swap3\n      pop\n      swap3\n      jump\t// out\n        /* \"#utility.yul\":7686:7866   */\n    tag_112:\n        /* \"#utility.yul\":7734:7811   */\n      0x4e487b7100000000000000000000000000000000000000000000000000000000\n        /* \"#utility.yul\":7731:7732   */\n      0x00\n        /* \"#utility.yul\":7724:7812   */\n      mstore\n        /* \"#utility.yul\":7831:7835   */\n      0x12\n        /* \"#utility.yul\":7828:7829   */\n      0x04\n        /* \"#utility.yul\":7821:7836   */\n      mstore\n        /* \"#utility.yul\":7855:7859   */\n      0x24\n        /* \"#utility.yul\":7852:7853   */\n      0x00\n        /* \"#utility.yul\":7845:7860   */\n      revert\n        /* \"#utility.yul\":7872:8052   */\n    tag_113:\n        /* \"#utility.yul\":7920:7997   */\n      0x4e487b7100000000000000000000000000000000000000000000000000000000\n        /* \"#utility.yul\":7917:7918   */\n      0x00\n        /* \"#utility.yul\":7910:7998   */\n      mstore\n        /* \"#utility.yul\":8017:8021   */\n      0x11\n        /* \"#utility.yul\":8014:8015   */\n      0x04\n        /* \"#utility.yul\":8007:8022   */\n      mstore\n        /* \"#utility.yul\":8041:8045   */\n      0x24\n        /* \"#utility.yul\":8038:8039   */\n      0x00\n        /* \"#utility.yul\":8031:8046   */\n      revert\n        /* \"#utility.yul\":8058:8243   */\n    tag_60:\n        /* \"#utility.yul\":8098:8099   */\n      0x00\n        /* \"#utility.yul\":8115:8135   */\n      tag_223\n        /* \"#utility.yul\":8133:8134   */\n      dup3\n        /* \"#utility.yul\":8115:8135   */\n      tag_87\n      jump\t// in\n    tag_223:\n        /* \"#utility.yul\":8110:8135   */\n      swap2\n      pop\n        /* \"#utility.yul\":8149:8169   */\n      tag_224\n        /* \"#utility.yul\":8167:8168   */\n      dup4\n        /* \"#utility.yul\":8149:8169   */\n      tag_87\n      jump\t// in\n    tag_224:\n        /* \"#utility.yul\":8144:8169   */\n      swap3\n      pop\n        /* \"#utility.yul\":8188:8189   */\n      dup3\n        /* \"#utility.yul\":8178:8213   */\n      tag_225\n      jumpi\n        /* \"#utility.yul\":8193:8211   */\n      tag_226\n      tag_112\n      jump\t// in\n    tag_226:\n        /* \"#utility.yul\":8178:8213   */\n    tag_225:\n        /* \"#utility.yul\":8235:8236   */\n      dup3\n        /* \"#utility.yul\":8232:8233   */\n      dup3\n        /* \"#utility.yul\":8228:8237   */\n      div\n        /* \"#utility.yul\":8223:8237   */\n      swap1\n      pop\n        /* \"#utility.yul\":8058:8243   */\n      swap3\n      swap2\n      pop\n      pop\n      jump\t// out\n        /* \"#utility.yul\":8249:8429   */\n    tag_114:\n        /* \"#utility.yul\":8297:8374   */\n      0x4e487b7100000000000000000000000000000000000000000000000000000000\n        /* \"#utility.yul\":8294:8295   */\n      0x00\n        /* \"#utility.yul\":8287:8375   */\n      mstore\n        /* \"#utility.yul\":8394:8398   */\n      0x22\n        /* \"#utility.yul\":8391:8392   */\n      0x04\n        /* \"#utility.yul\":8384:8399   */\n      mstore\n        /* \"#utility.yul\":8418:8422   */\n      0x24\n        /* \"#utility.yul\":8415:8416   */\n      0x00\n        /* \"#utility.yul\":8408:8423   */\n      revert\n        /* \"#utility.yul\":8435:8755   */\n    tag_65:\n        /* \"#utility.yul\":8479:8485   */\n      0x00\n        /* \"#utility.yul\":8516:8517   */\n      0x02\n        /* \"#utility.yul\":8510:8514   */\n      dup3\n        /* \"#utility.yul\":8506:8518   */\n      div\n        /* \"#utility.yul\":8496:8518   */\n      swap1\n      pop\n        /* \"#utility.yul\":8563:8564   */\n      0x01\n        /* \"#utility.yul\":8557:8561   */\n      dup3\n        /* \"#utility.yul\":8553:8565   */\n      and\n        /* \"#utility.yul\":8584:8602   */\n      dup1\n        /* \"#utility.yul\":8574:8655   */\n      tag_229\n      jumpi\n        /* \"#utility.yul\":8640:8644   */\n      0x7f\n        /* \"#utility.yul\":8632:8638   */\n      dup3\n        /* \"#utility.yul\":8628:8645   */\n      and\n        /* \"#utility.yul\":8618:8645   */\n      swap2\n      pop\n        /* \"#utility.yul\":8574:8655   */\n    tag_229:\n        /* \"#utility.yul\":8702:8704   */\n      0x20\n        /* \"#utility.yul\":8694:8700   */\n      dup3\n        /* \"#utility.yul\":8691:8705   */\n      lt\n        /* \"#utility.yul\":8671:8689   */\n      dup2\n        /* \"#utility.yul\":8668:8706   */\n      sub\n        /* \"#utility.yul\":8665:8749   */\n      tag_230\n      jumpi\n        /* \"#utility.yul\":8721:8739   */\n      tag_231\n      tag_114\n      jump\t// in\n    tag_231:\n        /* \"#utility.yul\":8665:8749   */\n    tag_230:\n        /* \"#utility.yul\":8486:8755   */\n      pop\n        /* \"#utility.yul\":8435:8755   */\n      swap2\n      swap1\n      pop\n      jump\t// out\n        /* \"#utility.yul\":8761:8994   */\n    tag_74:\n        /* \"#utility.yul\":8800:8803   */\n      0x00\n        /* \"#utility.yul\":8823:8847   */\n      tag_233\n        /* \"#utility.yul\":8841:8846   */\n      dup3\n        /* \"#utility.yul\":8823:8847   */\n      tag_87\n      jump\t// in\n    tag_233:\n        /* \"#utility.yul\":8814:8847   */\n      swap2\n      pop\n        /* \"#utility.yul\":8869:8935   */\n      0xffffffffffffffffffffffffffffffffffffffffffffffffffffffffffffffff\n        /* \"#utility.yul\":8862:8867   */\n      dup3\n        /* \"#utility.yul\":8859:8936   */\n      sub\n        /* \"#utility.yul\":8856:8959   */\n      tag_234\n      jumpi\n        /* \"#utility.yul\":8939:8957   */\n      tag_235\n      tag_113\n      jump\t// in\n    tag_235:\n        /* \"#utility.yul\":8856:8959   */\n    tag_234:\n        /* \"#utility.yul\":8986:8987   */\n      0x01\n        /* \"#utility.yul\":8979:8984   */\n      dup3\n        /* \"#utility.yul\":8975:8988   */\n      add\n        /* \"#utility.yul\":8968:8988   */\n      swap1\n      pop\n        /* \"#utility.yul\":8761:8994   */\n      swap2\n      swap1\n      pop\n      jump\t// out\n        /* \"#utility.yul\":9000:9141   */\n    tag_115:\n        /* \"#utility.yul\":9049:9053   */\n      0x00\n        /* \"#utility.yul\":9072:9075   */\n      dup2\n        /* \"#utility.yul\":9064:9075   */\n      swap1\n      pop\n        /* \"#utility.yul\":9095:9098   */\n      dup2\n        /* \"#utility.yul\":9092:9093   */\n      0x00\n        /* \"#utility.yul\":9085:9099   */\n      mstore\n        /* \"#utility.yul\":9129:9133   */\n      0x20\n        /* \"#utility.yul\":9126:9127   */\n      0x00\n        /* \"#utility.yul\":9116:9134   */\n      keccak256\n        /* \"#utility.yul\":9108:9134   */\n      swap1\n      pop\n        /* \"#utility.yul\":9000:9141   */\n      swap2\n      swap1\n      pop\n      jump\t// out\n        /* \"#utility.yul\":9147:9240   */\n    tag_116:\n        /* \"#utility.yul\":9184:9190   */\n      0x00\n        /* \"#utility.yul\":9231:9233   */\n      0x20\n        /* \"#utility.yul\":9226:9228   */\n      0x1f\n        /* \"#utility.yul\":9219:9224   */\n      dup4\n        /* \"#utility.yul\":9215:9229   */\n      add\n        /* \"#utility.yul\":9211:9234   */\n      div\n        /* \"#utility.yul\":9201:9234   */\n      swap1\n      pop\n        /* \"#utility.yul\":9147:9240   */\n      swap2\n      swap1\n      pop\n      jump\t// out\n        /* \"#utility.yul\":9246:9353   */\n    tag_117:\n        /* \"#utility.yul\":9290:9298   */\n      0x00\n        /* \"#utility.yul\":9340:9345   */\n      dup3\n        /* \"#utility.yul\":9334:9338   */\n      dup3\n        /* \"#utility.yul\":9330:9346   */\n      shl\n        /* \"#utility.yul\":9309:9346   */\n      swap1\n      pop\n        /* \"#utility.yul\":9246:9353   */\n      swap3\n      swap2\n      pop\n      pop\n      jump\t// out\n        /* \"#utility.yul\":9359:9752   */\n    tag_118:\n        /* \"#utility.yul\":9428:9434   */\n      0x00\n        /* \"#utility.yul\":9478:9479   */\n      0x08\n        /* \"#utility.yul\":9466:9476   */\n      dup4\n        /* \"#utility.yul\":9462:9480   */\n      mul\n        /* \"#utility.yul\":9501:9598   */\n      tag_240\n        /* \"#utility.yul\":9531:9597   */\n      0xffffffffffffffffffffffffffffffffffffffffffffffffffffffffffffffff\n        /* \"#utility.yul\":9520:9529   */\n      dup3\n        /* \"#utility.yul\":9501:9598   */\n      tag_117\n      jump\t// in\n    tag_240:\n        /* \"#utility.yul\":9619:9658   */\n      tag_241\n        /* \"#utility.yul\":9649:9657   */\n      dup7\n        /* \"#utility.yul\":9638:9647   */\n      dup4\n        /* \"#utility.yul\":9619:9658   */\n      tag_117\n      jump\t// in\n    tag_241:\n        /* \"#utility.yul\":9607:9658   */\n      swap6\n      pop\n        /* \"#utility.yul\":9691:9695   */\n      dup1\n        /* \"#utility.yul\":9687:9696   */\n      not\n        /* \"#utility.yul\":9680:9685   */\n      dup5\n        /* \"#utility.yul\":9676:9697   */\n      and\n        /* \"#utility.yul\":9667:9697   */\n      swap4\n      pop\n        /* \"#utility.yul\":9740:9744   */\n      dup1\n        /* \"#utility.yul\":9730:9738   */\n      dup7\n        /* \"#utility.yul\":9726:9745   */\n      and\n        /* \"#utility.yul\":9719:9724   */\n      dup5\n        /* \"#utility.yul\":9716:9746   */\n      or\n        /* \"#utility.yul\":9706:9746   */\n      swap3\n      pop\n        /* \"#utility.yul\":9435:9752   */\n      pop\n      pop\n        /* \"#utility.yul\":9359:9752   */\n      swap4\n      swap3\n      pop\n      pop\n      pop\n      jump\t// out\n        /* \"#utility.yul\":9758:9818   */\n    tag_119:\n        /* \"#utility.yul\":9786:9789   */\n      0x00\n        /* \"#utility.yul\":9807:9812   */\n      dup2\n        /* \"#utility.yul\":9800:9812   */\n      swap1\n      pop\n        /* \"#utility.yul\":9758:9818   */\n      swap2\n      swap1\n      pop\n      jump\t// out\n        /* \"#utility.yul\":9824:9966   */\n    tag_120:\n        /* \"#utility.yul\":9874:9883   */\n      0x00\n        /* \"#utility.yul\":9907:9960   */\n      tag_244\n        /* \"#utility.yul\":9925:9959   */\n      tag_245\n        /* \"#utility.yul\":9934:9958   */\n      tag_246\n        /* \"#utility.yul\":9952:9957   */\n      dup5\n        /* \"#utility.yul\":9934:9958   */\n      tag_87\n      jump\t// in\n    tag_246:\n        /* \"#utility.yul\":9925:9959   */\n      tag_119\n      jump\t// in\n    tag_245:\n        /* \"#utility.yul\":9907:9960   */\n      tag_87\n      jump\t// in\n    tag_244:\n        /* \"#utility.yul\":9894:9960   */\n      swap1\n      pop\n        /* \"#utility.yul\":9824:9966   */\n      swap2\n      swap1\n      pop\n      jump\t// out\n        /* \"#utility.yul\":9972:10047   */\n    tag_121:\n        /* \"#utility.yul\":10015:10018   */\n      0x00\n        /* \"#utility.yul\":10036:10041   */\n      dup2\n        /* \"#utility.yul\":10029:10041   */\n      swap1\n      pop\n        /* \"#utility.yul\":9972:10047   */\n      swap2\n      swap1\n      pop\n      jump\t// out\n        /* \"#utility.yul\":10053:10322   */\n    tag_122:\n        /* \"#utility.yul\":10163:10202   */\n      tag_249\n        /* \"#utility.yul\":10194:10201   */\n      dup4\n        /* \"#utility.yul\":10163:10202   */\n      tag_120\n      jump\t// in\n    tag_249:\n        /* \"#utility.yul\":10224:10315   */\n      tag_250\n        /* \"#utility.yul\":10273:10314   */\n      tag_251\n        /* \"#utility.yul\":10297:10313   */\n      dup3\n        /* \"#utility.yul\":10273:10314   */\n      tag_121\n      jump\t// in\n    tag_251:\n        /* \"#utility.yul\":10265:10271   */\n      dup5\n        /* \"#utility.yul\":10258:10262   */\n      dup5\n        /* \"#utility.yul\":10252:10263   */\n      sload\n        /* \"#utility.yul\":10224:10315   */\n      tag_118\n      jump\t// in\n    tag_250:\n        /* \"#utility.yul\":10218:10222   */\n      dup3\n        /* \"#utility.yul\":10211:10316   */\n      sstore\n        /* \"#utility.yul\":10129:10322   */\n      pop\n        /* \"#utility.yul\":10053:10322   */\n      pop\n      pop\n      pop\n      jump\t// out\n        /* \"#utility.yul\":10328:10401   */\n    tag_123:\n        /* \"#utility.yul\":10373:10376   */\n      0x00\n        /* \"#utility.yul\":10328:10401   */\n      swap1\n      jump\t// out\n        /* \"#utility.yul\":10407:10596   */\n    tag_124:\n        /* \"#utility.yul\":10484:10516   */\n      tag_254\n      tag_123\n      jump\t// in\n    tag_254:\n        /* \"#utility.yul\":10525:10590   */\n      tag_255\n        /* \"#utility.yul\":10583:10589   */\n      dup2\n        /* \"#utility.yul\":10575:10581   */\n      dup5\n        /* \"#utility.yul\":10569:10573   */\n      dup5\n        /* \"#utility.yul\":10525:10590   */\n      tag_122\n      jump\t// in\n    tag_255:\n        /* \"#utility.yul\":10460:10596   */\n      pop\n        /* \"#utility.yul\":10407:10596   */\n      pop\n      pop\n      jump\t// out\n        /* \"#utility.yul\":10602:10788   */\n    tag_125:\n        /* \"#utility.yul\":10662:10782   */\n    tag_257:\n        /* \"#utility.yul\":10679:10682   */\n      dup2\n        /* \"#utility.yul\":10672:10677   */\n      dup2\n        /* \"#utility.yul\":10669:10683   */\n      lt\n        /* \"#utility.yul\":10662:10782   */\n      iszero\n      tag_259\n      jumpi\n        /* \"#utility.yul\":10733:10772   */\n      tag_260\n        /* \"#utility.yul\":10770:10771   */\n      0x00\n        /* \"#utility.yul\":10763:10768   */\n      dup3\n        /* \"#utility.yul\":10733:10772   */\n      tag_124\n      jump\t// in\n    tag_260:\n        /* \"#utility.yul\":10706:10707   */\n      0x01\n        /* \"#utility.yul\":10699:10704   */\n      dup2\n        /* \"#utility.yul\":10695:10708   */\n      add\n        /* \"#utility.yul\":10686:10708   */\n      swap1\n      pop\n        /* \"#utility.yul\":10662:10782   */\n      jump(tag_257)\n    tag_259:\n        /* \"#utility.yul\":10602:10788   */\n      pop\n      pop\n      jump\t// out\n        /* \"#utility.yul\":10794:11337   */\n    tag_126:\n        /* \"#utility.yul\":10895:10897   */\n      0x1f\n        /* \"#utility.yul\":10890:10893   */\n      dup3\n        /* \"#utility.yul\":10887:10898   */\n      gt\n        /* \"#utility.yul\":10884:11330   */\n      iszero\n      tag_262\n      jumpi\n        /* \"#utility.yul\":10929:10967   */\n      tag_263\n        /* \"#utility.yul\":10961:10966   */\n      dup2\n        /* \"#utility.yul\":10929:10967   */\n      tag_115\n      jump\t// in\n    tag_263:\n        /* \"#utility.yul\":11013:11042   */\n      tag_264\n        /* \"#utility.yul\":11031:11041   */\n      dup5\n        /* \"#utility.yul\":11013:11042   */\n      tag_116\n      jump\t// in\n    tag_264:\n        /* \"#utility.yul\":11003:11011   */\n      dup2\n        /* \"#utility.yul\":10999:11043   */\n      add\n        /* \"#utility.yul\":11196:11198   */\n      0x20\n        /* \"#utility.yul\":11184:11194   */\n      dup6\n        /* \"#utility.yul\":11181:11199   */\n      lt\n        /* \"#utility.yul\":11178:11227   */\n      iszero\n      tag_265\n      jumpi\n        /* \"#utility.yul\":11217:11225   */\n      dup2\n        /* \"#utility.yul\":11202:11225   */\n      swap1\n      pop\n        /* \"#utility.yul\":11178:11227   */\n    tag_265:\n        /* \"#utility.yul\":11240:11320   */\n      tag_266\n        /* \"#utility.yul\":11296:11318   */\n      tag_267\n        /* \"#utility.yul\":11314:11317   */\n      dup6\n        /* \"#utility.yul\":11296:11318   */\n      tag_116\n      jump\t// in\n    tag_267:\n        /* \"#utility.yul\":11286:11294   */\n      dup4\n        /* \"#utility.yul\":11282:11319   */\n      add\n        /* \"#utility.yul\":11269:11280   */\n      dup3\n        /* \"#utility.yul\":11240:11320   */\n      tag_125\n      jump\t// in\n    tag_266:\n        /* \"#utility.yul\":10899:11330   */\n      pop\n      pop\n        /* \"#utility.yul\":10884:11330   */\n    tag_262:\n        /* \"#utility.yul\":10794:11337   */\n      pop\n      pop\n      pop\n      jump\t// out\n        /* \"#utility.yul\":11343:11460   */\n    tag_127:\n        /* \"#utility.yul\":11397:11405   */\n      0x00\n        /* \"#utility.yul\":11447:11452   */\n      dup3\n        /* \"#utility.yul\":11441:11445   */\n      dup3\n        /* \"#utility.yul\":11437:11453   */\n      shr\n        /* \"#utility.yul\":11416:11453   */\n      swap1\n      pop\n        /* \"#utility.yul\":11343:11460   */\n      swap3\n      swap2\n      pop\n      pop\n      jump\t// out\n        /* \"#utility.yul\":11466:11635   */\n    tag_128:\n        /* \"#utility.yul\":11510:11516   */\n      0x00\n        /* \"#utility.yul\":11543:11594   */\n      tag_270\n        /* \"#utility.yul\":11591:11592   */\n      0x00\n        /* \"#utility.yul\":11587:11593   */\n      not\n        /* \"#utility.yul\":11579:11584   */\n      dup5\n        /* \"#utility.yul\":11576:11577   */\n      0x08\n        /* \"#utility.yul\":11572:11585   */\n      mul\n        /* \"#utility.yul\":11543:11594   */\n      tag_127\n      jump\t// in\n    tag_270:\n        /* \"#utility.yul\":11539:11595   */\n      not\n        /* \"#utility.yul\":11624:11628   */\n      dup1\n        /* \"#utility.yul\":11618:11622   */\n      dup4\n        /* \"#utility.yul\":11614:11629   */\n      and\n        /* \"#utility.yul\":11604:11629   */\n      swap2\n      pop\n        /* \"#utility.yul\":11517:11635   */\n      pop\n        /* \"#utility.yul\":11466:11635   */\n      swap3\n      swap2\n      pop\n      pop\n      jump\t// out\n        /* \"#utility.yul\":11640:11935   */\n    tag_129:\n        /* \"#utility.yul\":11716:11720   */\n      0x00\n        /* \"#utility.yul\":11862:11891   */\n      tag_272\n        /* \"#utility.yul\":11887:11890   */\n      dup4\n        /* \"#utility.yul\":11881:11885   */\n      dup4\n        /* \"#utility.yul\":11862:11891   */\n      tag_128\n      jump\t// in\n    tag_272:\n        /* \"#utility.yul\":11854:11891   */\n      swap2\n      pop\n        /* \"#utility.yul\":11924:11927   */\n      dup3\n        /* \"#utility.yul\":11921:11922   */\n      0x02\n        /* \"#utility.yul\":11917:11928   */\n      mul\n        /* \"#utility.yul\":11911:11915   */\n      dup3\n        /* \"#utility.yul\":11908:11929   */\n      or\n        /* \"#utility.yul\":11900:11929   */\n      swap1\n      pop\n        /* \"#utility.yul\":11640:11935   */\n      swap3\n      swap2\n      pop\n      pop\n      jump\t// out\n        /* \"#utility.yul\":11940:13335   */\n    tag_76:\n        /* \"#utility.yul\":12057:12094   */\n      tag_274\n        /* \"#utility.yul\":12090:12093   */\n      dup3\n        /* \"#utility.yul\":12057:12094   */\n      tag_98\n      jump\t// in\n    tag_274:\n        /* \"#utility.yul\":12159:12177   */\n      0xffffffffffffffff\n        /* \"#utility.yul\":12151:12157   */\n      dup2\n        /* \"#utility.yul\":12148:12178   */\n      gt\n        /* \"#utility.yul\":12145:12201   */\n      iszero\n      tag_275\n      jumpi\n        /* \"#utility.yul\":12181:12199   */\n      tag_276\n      tag_105\n      jump\t// in\n    tag_276:\n        /* \"#utility.yul\":12145:12201   */\n    tag_275:\n        /* \"#utility.yul\":12225:12263   */\n      tag_277\n        /* \"#utility.yul\":12257:12261   */\n      dup3\n        /* \"#utility.yul\":12251:12262   */\n      sload\n        /* \"#utility.yul\":12225:12263   */\n      tag_65\n      jump\t// in\n    tag_277:\n        /* \"#utility.yul\":12310:12377   */\n      tag_278\n        /* \"#utility.yul\":12370:12376   */\n      dup3\n        /* \"#utility.yul\":12362:12368   */\n      dup3\n        /* \"#utility.yul\":12356:12360   */\n      dup6\n        /* \"#utility.yul\":12310:12377   */\n      tag_126\n      jump\t// in\n    tag_278:\n        /* \"#utility.yul\":12404:12405   */\n      0x00\n        /* \"#utility.yul\":12428:12432   */\n      0x20\n        /* \"#utility.yul\":12415:12432   */\n      swap1\n      pop\n        /* \"#utility.yul\":12460:12462   */\n      0x1f\n        /* \"#utility.yul\":12452:12458   */\n      dup4\n        /* \"#utility.yul\":12449:12463   */\n      gt\n        /* \"#utility.yul\":12477:12478   */\n      0x01\n        /* \"#utility.yul\":12472:13090   */\n      dup2\n      eq\n      tag_280\n      jumpi\n        /* \"#utility.yul\":13134:13135   */\n      0x00\n        /* \"#utility.yul\":13151:13157   */\n      dup5\n        /* \"#utility.yul\":13148:13225   */\n      iszero\n      tag_281\n      jumpi\n        /* \"#utility.yul\":13200:13209   */\n      dup3\n        /* \"#utility.yul\":13195:13198   */\n      dup8\n        /* \"#utility.yul\":13191:13210   */\n      add\n        /* \"#utility.yul\":13185:13211   */\n      mload\n        /* \"#utility.yul\":13176:13211   */\n      swap1\n      pop\n        /* \"#utility.yul\":13148:13225   */\n    tag_281:\n        /* \"#utility.yul\":13251:13318   */\n      tag_282\n        /* \"#utility.yul\":13311:13317   */\n      dup6\n        /* \"#utility.yul\":13304:13309   */\n      dup3\n        /* \"#utility.yul\":13251:13318   */\n      tag_129\n      jump\t// in\n    tag_282:\n        /* \"#utility.yul\":13245:13249   */\n      dup7\n        /* \"#utility.yul\":13238:13319   */\n      sstore\n        /* \"#utility.yul\":13107:13329   */\n      pop\n        /* \"#utility.yul\":12442:13329   */\n      jump(tag_279)\n        /* \"#utility.yul\":12472:13090   */\n    tag_280:\n        /* \"#utility.yul\":12524:12528   */\n      0x1f\n        /* \"#utility.yul\":12520:12529   */\n      not\n        /* \"#utility.yul\":12512:12518   */\n      dup5\n        /* \"#utility.yul\":12508:12530   */\n      and\n        /* \"#utility.yul\":12558:12595   */\n      tag_283\n        /* \"#utility.yul\":12590:12594   */\n      dup7\n        /* \"#utility.yul\":12558:12595   */\n      tag_115\n      jump\t// in\n    tag_283:\n        /* \"#utility.yul\":12617:12618   */\n      0x00\n        /* \"#utility.yul\":12631:12839   */\n    tag_284:\n        /* \"#utility.yul\":12645:12652   */\n      dup3\n        /* \"#utility.yul\":12642:12643   */\n      dup2\n        /* \"#utility.yul\":12639:12653   */\n      lt\n        /* \"#utility.yul\":12631:12839   */\n      iszero\n      tag_286\n      jumpi\n        /* \"#utility.yul\":12724:12733   */\n      dup5\n        /* \"#utility.yul\":12719:12722   */\n      dup10\n        /* \"#utility.yul\":12715:12734   */\n      add\n        /* \"#utility.yul\":12709:12735   */\n      mload\n        /* \"#utility.yul\":12701:12707   */\n      dup3\n        /* \"#utility.yul\":12694:12736   */\n      sstore\n        /* \"#utility.yul\":12775:12776   */\n      0x01\n        /* \"#utility.yul\":12767:12773   */\n      dup3\n        /* \"#utility.yul\":12763:12777   */\n      add\n        /* \"#utility.yul\":12753:12777   */\n      swap2\n      pop\n        /* \"#utility.yul\":12822:12824   */\n      0x20\n        /* \"#utility.yul\":12811:12820   */\n      dup6\n        /* \"#utility.yul\":12807:12825   */\n      add\n        /* \"#utility.yul\":12794:12825   */\n      swap5\n      pop\n        /* \"#utility.yul\":12668:12672   */\n      0x20\n        /* \"#utility.yul\":12665:12666   */\n      dup2\n        /* \"#utility.yul\":12661:12673   */\n      add\n        /* \"#utility.yul\":12656:12673   */\n      swap1\n      pop\n        /* \"#utility.yul\":12631:12839   */\n      jump(tag_284)\n    tag_286:\n        /* \"#utility.yul\":12867:12873   */\n      dup7\n        /* \"#utility.yul\":12858:12865   */\n      dup4\n        /* \"#utility.yul\":12855:12874   */\n      lt\n        /* \"#utility.yul\":12852:13031   */\n      iszero\n      tag_287\n      jumpi\n        /* \"#utility.yul\":12925:12934   */\n      dup5\n        /* \"#utility.yul\":12920:12923   */\n      dup10\n        /* \"#utility.yul\":12916:12935   */\n      add\n        /* \"#utility.yul\":12910:12936   */\n      mload\n        /* \"#utility.yul\":12968:13016   */\n      tag_288\n        /* \"#utility.yul\":13010:13014   */\n      0x1f\n        /* \"#utility.yul\":13002:13008   */\n      dup10\n        /* \"#utility.yul\":12998:13015   */\n      and\n        /* \"#utility.yul\":12987:12996   */\n      dup3\n        /* \"#utility.yul\":12968:13016   */\n      tag_128\n      jump\t// in\n    tag_288:\n        /* \"#utility.yul\":12960:12966   */\n      dup4\n        /* \"#utility.yul\":12953:13017   */\n      sstore\n        /* \"#utility.yul\":12875:13031   */\n      pop\n        /* \"#utility.yul\":12852:13031   */\n    tag_287:\n        /* \"#utility.yul\":13077:13078   */\n      0x01\n        /* \"#utility.yul\":13073:13074   */\n      0x02\n        /* \"#utility.yul\":13065:13071   */\n      dup9\n        /* \"#utility.yul\":13061:13075   */\n      mul\n        /* \"#utility.yul\":13057:13079   */\n      add\n        /* \"#utility.yul\":13051:13055   */\n      dup9\n        /* \"#utility.yul\":13044:13080   */\n      sstore\n        /* \"#utility.yul\":12479:13090   */\n      pop\n      pop\n      pop\n        /* \"#utility.yul\":12442:13329   */\n    tag_279:\n      pop\n        /* \"#utility.yul\":12032:13335   */\n      pop\n      pop\n      pop\n        /* \"#utility.yul\":11940:13335   */\n      pop\n      pop\n      jump\t// out\n\n    auxdata: 0xa264697066735822122097acaa11c9460f030b4e6c4a16aa5145bee07a914aa7fffb5a592e06a56819cd64736f6c63430008110033\n}\n","bytecode":{"linkReferences":{},"object":"60806040523480156200001157600080fd5b50604051620010dd380380620010dd83398181016040528101906200003791906200012c565b80600160006101000a81548173ffffffffffffffffffffffffffffffffffffffff021916908373ffffffffffffffffffffffffffffffffffffffff16021790555081600381905550505062000173565b600080fd5b6000819050919050565b620000a1816200008c565b8114620000ad57600080fd5b50565b600081519050620000c18162000096565b92915050565b600073ffffffffffffffffffffffffffffffffffffffff82169050919050565b6000620000f482620000c7565b9050919050565b6200010681620000e7565b81146200011257600080fd5b50565b6000815190506200012681620000fb565b92915050565b6000806040838503121562000146576200014562000087565b5b60006200015685828601620000b0565b9250506020620001698582860162000115565b9150509250929050565b610f5a80620001836000396000f3fe6080604052600436106100865760003560e01c806381d12c581161005957806381d12c58146101475780638a9cfd5514610188578063937e09b1146101b1578063d7bb99ba146101dc578063d7d1bbdb146101e657610086565b8063034410061461008b5780631f6d4942146100b4578063481c6a75146100f15780637569b3d71461011c575b600080fd5b34801561009757600080fd5b506100b260048036038101906100ad919061079f565b61020f565b005b3480156100c057600080fd5b506100db60048036038101906100d6919061082a565b610349565b6040516100e89190610872565b60405180910390f35b3480156100fd57600080fd5b50610106610369565b604051610113919061089c565b60405180910390f35b34801561012857600080fd5b5061013161038f565b60405161013e91906108c6565b60405180910390f35b34801561015357600080fd5b5061016e6004803603810190610169919061079f565b610395565b60405161017f959493929190610971565b60405180910390f35b34801561019457600080fd5b506101af60048036038101906101aa9190610b00565b610480565b005b3480156101bd57600080fd5b506101c6610591565b6040516101d391906108c6565b60405180910390f35b6101e4610597565b005b3480156101f257600080fd5b5061020d6004803603810190610208919061079f565b610617565b005b600160009054906101000a900473ffffffffffffffffffffffffffffffffffffffff1673ffffffffffffffffffffffffffffffffffffffff163373ffffffffffffffffffffffffffffffffffffffff161461026957600080fd5b60006004600083815260200190815260200160002090508060010160009054906101000a900460ff161561029c57600080fd5b600280546102aa9190610bcd565b8160030154116102b957600080fd5b60018160010160006101000a81548160ff0219169083151502179055508060010160019054906101000a900473ffffffffffffffffffffffffffffffffffffffff1673ffffffffffffffffffffffffffffffffffffffff166108fc82600001549081150290604051600060405180830381858888f19350505050158015610344573d6000803e3d6000fd5b505050565b60056020528060005260406000206000915054906101000a900460ff1681565b600160009054906101000a900473ffffffffffffffffffffffffffffffffffffffff1681565b60025481565b60046020528060005260406000206000915090508060000154908060010160009054906101000a900460ff16908060010160019054906101000a900473ffffffffffffffffffffffffffffffffffffffff16908060020180546103f790610c2d565b80601f016020809104026020016040519081016040528092919081815260200182805461042390610c2d565b80156104705780601f1061044557610100808354040283529160200191610470565b820191906000526020600020905b81548152906001019060200180831161045357829003601f168201915b5050505050908060030154905085565b600160009054906101000a900473ffffffffffffffffffffffffffffffffffffffff1673ffffffffffffffffffffffffffffffffffffffff163373ffffffffffffffffffffffffffffffffffffffff16146104da57600080fd5b6000600460008060008154809291906104f290610c5e565b91905055815260200190815260200160002090508281600001819055506000816003018190555060008160010160006101000a81548160ff021916908315150217905550818160010160016101000a81548173ffffffffffffffffffffffffffffffffffffffff021916908373ffffffffffffffffffffffffffffffffffffffff1602179055508381600201908161058a9190610e52565b5050505050565b60035481565b60035434116105a557600080fd5b6001600560003373ffffffffffffffffffffffffffffffffffffffff1673ffffffffffffffffffffffffffffffffffffffff16815260200190815260200160002060006101000a81548160ff0219169083151502179055506002600081548092919061061090610c5e565b9190505550565b6000600460008381526020019081526020016000209050600560003373ffffffffffffffffffffffffffffffffffffffff1673ffffffffffffffffffffffffffffffffffffffff16815260200190815260200160002060009054906101000a900460ff1661068457600080fd5b8060040160003373ffffffffffffffffffffffffffffffffffffffff1673ffffffffffffffffffffffffffffffffffffffff16815260200190815260200160002060009054906101000a900460ff16156106dd57600080fd5b8060030160008154809291906106f290610c5e565b919050555060018160040160003373ffffffffffffffffffffffffffffffffffffffff1673ffffffffffffffffffffffffffffffffffffffff16815260200190815260200160002060006101000a81548160ff0219169083151502179055505050565b6000604051905090565b600080fd5b600080fd5b6000819050919050565b61077c81610769565b811461078757600080fd5b50565b60008135905061079981610773565b92915050565b6000602082840312156107b5576107b461075f565b5b60006107c38482850161078a565b91505092915050565b600073ffffffffffffffffffffffffffffffffffffffff82169050919050565b60006107f7826107cc565b9050919050565b610807816107ec565b811461081257600080fd5b50565b600081359050610824816107fe565b92915050565b6000602082840312156108405761083f61075f565b5b600061084e84828501610815565b91505092915050565b60008115159050919050565b61086c81610857565b82525050565b60006020820190506108876000830184610863565b92915050565b610896816107ec565b82525050565b60006020820190506108b1600083018461088d565b92915050565b6108c081610769565b82525050565b60006020820190506108db60008301846108b7565b92915050565b600081519050919050565b600082825260208201905092915050565b60005b8381101561091b578082015181840152602081019050610900565b60008484015250505050565b6000601f19601f8301169050919050565b6000610943826108e1565b61094d81856108ec565b935061095d8185602086016108fd565b61096681610927565b840191505092915050565b600060a08201905061098660008301886108b7565b6109936020830187610863565b6109a0604083018661088d565b81810360608301526109b28185610938565b90506109c160808301846108b7565b9695505050505050565b600080fd5b600080fd5b7f4e487b7100000000000000000000000000000000000000000000000000000000600052604160045260246000fd5b610a0d82610927565b810181811067ffffffffffffffff82111715610a2c57610a2b6109d5565b5b80604052505050565b6000610a3f610755565b9050610a4b8282610a04565b919050565b600067ffffffffffffffff821115610a6b57610a6a6109d5565b5b610a7482610927565b9050602081019050919050565b82818337600083830152505050565b6000610aa3610a9e84610a50565b610a35565b905082815260208101848484011115610abf57610abe6109d0565b5b610aca848285610a81565b509392505050565b600082601f830112610ae757610ae66109cb565b5b8135610af7848260208601610a90565b91505092915050565b600080600060608486031215610b1957610b1861075f565b5b600084013567ffffffffffffffff811115610b3757610b36610764565b5b610b4386828701610ad2565b9350506020610b548682870161078a565b9250506040610b6586828701610815565b9150509250925092565b7f4e487b7100000000000000000000000000000000000000000000000000000000600052601260045260246000fd5b7f4e487b7100000000000000000000000000000000000000000000000000000000600052601160045260246000fd5b6000610bd882610769565b9150610be383610769565b925082610bf357610bf2610b6f565b5b828204905092915050565b7f4e487b7100000000000000000000000000000000000000000000000000000000600052602260045260246000fd5b60006002820490506001821680610c4557607f821691505b602082108103610c5857610c57610bfe565b5b50919050565b6000610c6982610769565b91507fffffffffffffffffffffffffffffffffffffffffffffffffffffffffffffffff8203610c9b57610c9a610b9e565b5b600182019050919050565b60008190508160005260206000209050919050565b60006020601f8301049050919050565b600082821b905092915050565b600060088302610d087fffffffffffffffffffffffffffffffffffffffffffffffffffffffffffffffff82610ccb565b610d128683610ccb565b95508019841693508086168417925050509392505050565b6000819050919050565b6000610d4f610d4a610d4584610769565b610d2a565b610769565b9050919050565b6000819050919050565b610d6983610d34565b610d7d610d7582610d56565b848454610cd8565b825550505050565b600090565b610d92610d85565b610d9d818484610d60565b505050565b5b81811015610dc157610db6600082610d8a565b600181019050610da3565b5050565b601f821115610e0657610dd781610ca6565b610de084610cbb565b81016020851015610def578190505b610e03610dfb85610cbb565b830182610da2565b50505b505050565b600082821c905092915050565b6000610e2960001984600802610e0b565b1980831691505092915050565b6000610e428383610e18565b9150826002028217905092915050565b610e5b826108e1565b67ffffffffffffffff811115610e7457610e736109d5565b5b610e7e8254610c2d565b610e89828285610dc5565b600060209050601f831160018114610ebc5760008415610eaa578287015190505b610eb48582610e36565b865550610f1c565b601f198416610eca86610ca6565b60005b82811015610ef257848901518255600182019150602085019450602081019050610ecd565b86831015610f0f5784890151610f0b601f891682610e18565b8355505b6001600288020188555050505b50505050505056fea264697066735822122097acaa11c9460f030b4e6c4a16aa5145bee07a914aa7fffb5a592e06a56819cd64736f6c63430008110033","opcodes":"PUSH1 0x80 PUSH1 0x40 MSTORE CALLVALUE DUP1 ISZERO PUSH3 0x11 JUMPI PUSH1 0x0 DUP1 REVERT JUMPDEST POP PUSH1 0x40 MLOAD PUSH3 0x10DD CODESIZE SUB DUP1 PUSH3 0x10DD DUP4 CODECOPY DUP2 DUP2 ADD PUSH1 0x40 MSTORE DUP2 ADD SWAP1 PUSH3 0x37 SWAP2 SWAP1 PUSH3 0x12C JUMP JUMPDEST DUP1 PUSH1 0x1 PUSH1 0x0 PUSH2 0x100 EXP DUP2 SLOAD DUP2 PUSH20 0xFFFFFFFFFFFFFFFFFFFFFFFFFFFFFFFFFFFFFFFF MUL NOT AND SWAP1 DUP4 PUSH20 0xFFFFFFFFFFFFFFFFFFFFFFFFFFFFFFFFFFFFFFFF AND MUL OR SWAP1 SSTORE POP DUP2 PUSH1 0x3 DUP2 SWAP1 SSTORE POP POP POP PUSH3 0x173 JUMP JUMPDEST PUSH1 0x0 DUP1 REVERT JUMPDEST PUSH1 0x0 DUP2 SWAP1 POP SWAP2 SWAP1 POP JUMP JUMPDEST PUSH3 0xA1 DUP2 PUSH3 0x8C JUMP JUMPDEST DUP2 EQ PUSH3 0xAD JUMPI PUSH1 0x0 DUP1 REVERT JUMPDEST POP JUMP JUMPDEST PUSH1 0x0 DUP2 MLOAD SWAP1 POP PUSH3 0xC1 DUP2 PUSH3 0x96 JUMP JUMPDEST SWAP3 SWAP2 POP POP JUMP JUMPDEST PUSH1 0x0 PUSH20 0xFFFFFFFFFFFFFFFFFFFFFFFFFFFFFFFFFFFFFFFF DUP3 AND SWAP1 POP SWAP2 SWAP1 POP JUMP JUMPDEST PUSH1 0x0 PUSH3 0xF4 DUP3 PUSH3 0xC7 JUMP JUMPDEST SWAP1 POP SWAP2 SWAP1 POP JUMP JUMPDEST PUSH3 0x106 DUP2 PUSH3 0xE7 JUMP JUMPDEST DUP2 EQ PUSH3 0x112 JUMPI PUSH1 0x0 DUP1 REVERT JUMPDEST POP JUMP JUMPDEST PUSH1 0x0 DUP2 MLOAD SWAP1 POP PUSH3 0x126 DUP2 PUSH3 0xFB JUMP JUMPDEST SWAP3 SWAP2 POP POP JUMP JUMPDEST PUSH1 0x0 DUP1 PUSH1 0x40 DUP4 DUP6 SUB SLT ISZERO PUSH3 0x146 JUMPI PUSH3 0x145 PUSH3 0x87 JUMP JUMPDEST JUMPDEST PUSH1 0x0 PUSH3 0x156 DUP6 DUP3 DUP7 ADD PUSH3 0xB0 JUMP JUMPDEST SWAP3 POP POP PUSH1 0x20 PUSH3 0x169 DUP6 DUP3 DUP7 ADD PUSH3 0x115 JUMP JUMPDEST SWAP2 POP POP SWAP3 POP SWAP3 SWAP1 POP JUMP JUMPDEST PUSH2 0xF5A DUP1 PUSH3 0x183 PUSH1 0x0 CODECOPY PUSH1 0x0 RETURN INVALID PUSH1 0x80 PUSH1 0x40 MSTORE PUSH1 0x4 CALLDATASIZE LT PUSH2 0x86 JUMPI PUSH1 0x0 CALLDATALOAD PUSH1 0xE0 SHR DUP1 PUSH4 0x81D12C58 GT PUSH2 0x59 JUMPI DUP1 PUSH4 0x81D12C58 EQ PUSH2 0x147 JUMPI DUP1 PUSH4 0x8A9CFD55 EQ PUSH2 0x188 JUMPI DUP1 PUSH4 0x937E09B1 EQ PUSH2 0x1B1 JUMPI DUP1 PUSH4 0xD7BB99BA EQ PUSH2 0x1DC JUMPI DUP1 PUSH4 0xD7D1BBDB EQ PUSH2 0x1E6 JUMPI PUSH2 0x86 JUMP JUMPDEST DUP1 PUSH4 0x3441006 EQ PUSH2 0x8B JUMPI DUP1 PUSH4 0x1F6D4942 EQ PUSH2 0xB4 JUMPI DUP1 PUSH4 0x481C6A75 EQ PUSH2 0xF1 JUMPI DUP1 PUSH4 0x7569B3D7 EQ PUSH2 0x11C JUMPI JUMPDEST PUSH1 0x0 DUP1 REVERT JUMPDEST CALLVALUE DUP1 ISZERO PUSH2 0x97 JUMPI PUSH1 0x0 DUP1 REVERT JUMPDEST POP PUSH2 0xB2 PUSH1 0x4 DUP1 CALLDATASIZE SUB DUP2 ADD SWAP1 PUSH2 0xAD SWAP2 SWAP1 PUSH2 0x79F JUMP JUMPDEST PUSH2 0x20F JUMP JUMPDEST STOP JUMPDEST CALLVALUE DUP1 ISZERO PUSH2 0xC0 JUMPI PUSH1 0x0 DUP1 REVERT JUMPDEST POP PUSH2 0xDB PUSH1 0x4 DUP1 CALLDATASIZE SUB DUP2 ADD SWAP1 PUSH2 0xD6 SWAP2 SWAP1 PUSH2 0x82A JUMP JUMPDEST PUSH2 0x349 JUMP JUMPDEST PUSH1 0x40 MLOAD PUSH2 0xE8 SWAP2 SWAP1 PUSH2 0x872 JUMP JUMPDEST PUSH1 0x40 MLOAD DUP1 SWAP2 SUB SWAP1 RETURN JUMPDEST CALLVALUE DUP1 ISZERO PUSH2 0xFD JUMPI PUSH1 0x0 DUP1 REVERT JUMPDEST POP PUSH2 0x106 PUSH2 0x369 JUMP JUMPDEST PUSH1 0x40 MLOAD PUSH2 0x113 SWAP2 SWAP1 PUSH2 0x89C JUMP JUMPDEST PUSH1 0x40 MLOAD DUP1 SWAP2 SUB SWAP1 RETURN JUMPDEST CALLVALUE DUP1 ISZERO PUSH2 0x128 JUMPI PUSH1 0x0 DUP1 REVERT JUMPDEST POP PUSH2 0x131 PUSH2 0x38F JUMP JUMPDEST PUSH1 0x40 MLOAD PUSH2 0x13E SWAP2 SWAP1 PUSH2 0x8C6 JUMP JUMPDEST PUSH1 0x40 MLOAD DUP1 SWAP2 SUB SWAP1 RETURN JUMPDEST CALLVALUE DUP1 ISZERO PUSH2 0x153 JUMPI PUSH1 0x0 DUP1 REVERT JUMPDEST POP PUSH2 0x16E PUSH1 0x4 DUP1 CALLDATASIZE SUB DUP2 ADD SWAP1 PUSH2 0x169 SWAP2 SWAP1 PUSH2 0x79F JUMP JUMPDEST PUSH2 0x395 JUMP JUMPDEST PUSH1 0x40 MLOAD PUSH2 0x17F SWAP6 SWAP5 SWAP4 SWAP3 SWAP2 SWAP1 PUSH2 0x971 JUMP JUMPDEST PUSH1 0x40 MLOAD DUP1 SWAP2 SUB SWAP1 RETURN JUMPDEST CALLVALUE DUP1 ISZERO PUSH2 0x194 JUMPI PUSH1 0x0 DUP1 REVERT JUMPDEST POP PUSH2 0x1AF PUSH1 0x4 DUP1 CALLDATASIZE SUB DUP2 ADD SWAP1 PUSH2 0x1AA SWAP2 SWAP1 PUSH2 0xB00 JUMP JUMPDEST PUSH2 0x480 JUMP JUMPDEST STOP JUMPDEST CALLVALUE DUP1 ISZERO PUSH2 0x1BD JUMPI PUSH1 0x0 DUP1 REVERT JUMPDEST POP PUSH2 0x1C6 PUSH2 0x591 JUMP JUMPDEST PUSH1 0x40 MLOAD PUSH2 0x1D3 SWAP2 SWAP1 PUSH2 0x8C6 JUMP JUMPDEST PUSH1 0x40 MLOAD DUP1 SWAP2 SUB SWAP1 RETURN JUMPDEST PUSH2 0x1E4 PUSH2 0x597 JUMP JUMPDEST STOP JUMPDEST CALLVALUE DUP1 ISZERO PUSH2 0x1F2 JUMPI PUSH1 0x0 DUP1 REVERT JUMPDEST POP PUSH2 0x20D PUSH1 0x4 DUP1 CALLDATASIZE SUB DUP2 ADD SWAP1 PUSH2 0x208 SWAP2 SWAP1 PUSH2 0x79F JUMP JUMPDEST PUSH2 0x617 JUMP JUMPDEST STOP JUMPDEST PUSH1 0x1 PUSH1 0x0 SWAP1 SLOAD SWAP1 PUSH2 0x100 EXP SWAP1 DIV PUSH20 0xFFFFFFFFFFFFFFFFFFFFFFFFFFFFFFFFFFFFFFFF AND PUSH20 0xFFFFFFFFFFFFFFFFFFFFFFFFFFFFFFFFFFFFFFFF AND CALLER PUSH20 0xFFFFFFFFFFFFFFFFFFFFFFFFFFFFFFFFFFFFFFFF AND EQ PUSH2 0x269 JUMPI PUSH1 0x0 DUP1 REVERT JUMPDEST PUSH1 0x0 PUSH1 0x4 PUSH1 0x0 DUP4 DUP2 MSTORE PUSH1 0x20 ADD SWAP1 DUP2 MSTORE PUSH1 0x20 ADD PUSH1 0x0 KECCAK256 SWAP1 POP DUP1 PUSH1 0x1 ADD PUSH1 0x0 SWAP1 SLOAD SWAP1 PUSH2 0x100 EXP SWAP1 DIV PUSH1 0xFF AND ISZERO PUSH2 0x29C JUMPI PUSH1 0x0 DUP1 REVERT JUMPDEST PUSH1 0x2 DUP1 SLOAD PUSH2 0x2AA SWAP2 SWAP1 PUSH2 0xBCD JUMP JUMPDEST DUP2 PUSH1 0x3 ADD SLOAD GT PUSH2 0x2B9 JUMPI PUSH1 0x0 DUP1 REVERT JUMPDEST PUSH1 0x1 DUP2 PUSH1 0x1 ADD PUSH1 0x0 PUSH2 0x100 EXP DUP2 SLOAD DUP2 PUSH1 0xFF MUL NOT AND SWAP1 DUP4 ISZERO ISZERO MUL OR SWAP1 SSTORE POP DUP1 PUSH1 0x1 ADD PUSH1 0x1 SWAP1 SLOAD SWAP1 PUSH2 0x100 EXP SWAP1 DIV PUSH20 0xFFFFFFFFFFFFFFFFFFFFFFFFFFFFFFFFFFFFFFFF AND PUSH20 0xFFFFFFFFFFFFFFFFFFFFFFFFFFFFFFFFFFFFFFFF AND PUSH2 0x8FC DUP3 PUSH1 0x0 ADD SLOAD SWAP1 DUP2 ISZERO MUL SWAP1 PUSH1 0x40 MLOAD PUSH1 0x0 PUSH1 0x40 MLOAD DUP1 DUP4 SUB DUP2 DUP6 DUP9 DUP9 CALL SWAP4 POP POP POP POP ISZERO DUP1 ISZERO PUSH2 0x344 JUMPI RETURNDATASIZE PUSH1 0x0 DUP1 RETURNDATACOPY RETURNDATASIZE PUSH1 0x0 REVERT JUMPDEST POP POP POP JUMP JUMPDEST PUSH1 0x5 PUSH1 0x20 MSTORE DUP1 PUSH1 0x0 MSTORE PUSH1 0x40 PUSH1 0x0 KECCAK256 PUSH1 0x0 SWAP2 POP SLOAD SWAP1 PUSH2 0x100 EXP SWAP1 DIV PUSH1 0xFF AND DUP2 JUMP JUMPDEST PUSH1 0x1 PUSH1 0x0 SWAP1 SLOAD SWAP1 PUSH2 0x100 EXP SWAP1 DIV PUSH20 0xFFFFFFFFFFFFFFFFFFFFFFFFFFFFFFFFFFFFFFFF AND DUP2 JUMP JUMPDEST PUSH1 0x2 SLOAD DUP2 JUMP JUMPDEST PUSH1 0x4 PUSH1 0x20 MSTORE DUP1 PUSH1 0x0 MSTORE PUSH1 0x40 PUSH1 0x0 KECCAK256 PUSH1 0x0 SWAP2 POP SWAP1 POP DUP1 PUSH1 0x0 ADD SLOAD SWAP1 DUP1 PUSH1 0x1 ADD PUSH1 0x0 SWAP1 SLOAD SWAP1 PUSH2 0x100 EXP SWAP1 DIV PUSH1 0xFF AND SWAP1 DUP1 PUSH1 0x1 ADD PUSH1 0x1 SWAP1 SLOAD SWAP1 PUSH2 0x100 EXP SWAP1 DIV PUSH20 0xFFFFFFFFFFFFFFFFFFFFFFFFFFFFFFFFFFFFFFFF AND SWAP1 DUP1 PUSH1 0x2 ADD DUP1 SLOAD PUSH2 0x3F7 SWAP1 PUSH2 0xC2D JUMP JUMPDEST DUP1 PUSH1 0x1F ADD PUSH1 0x20 DUP1 SWAP2 DIV MUL PUSH1 0x20 ADD PUSH1 0x40 MLOAD SWAP1 DUP2 ADD PUSH1 0x40 MSTORE DUP1 SWAP3 SWAP2 SWAP1 DUP2 DUP2 MSTORE PUSH1 0x20 ADD DUP3 DUP1 SLOAD PUSH2 0x423 SWAP1 PUSH2 0xC2D JUMP JUMPDEST DUP1 ISZERO PUSH2 0x470 JUMPI DUP1 PUSH1 0x1F LT PUSH2 0x445 JUMPI PUSH2 0x100 DUP1 DUP4 SLOAD DIV MUL DUP4 MSTORE SWAP2 PUSH1 0x20 ADD SWAP2 PUSH2 0x470 JUMP JUMPDEST DUP3 ADD SWAP2 SWAP1 PUSH1 0x0 MSTORE PUSH1 0x20 PUSH1 0x0 KECCAK256 SWAP1 JUMPDEST DUP2 SLOAD DUP2 MSTORE SWAP1 PUSH1 0x1 ADD SWAP1 PUSH1 0x20 ADD DUP1 DUP4 GT PUSH2 0x453 JUMPI DUP3 SWAP1 SUB PUSH1 0x1F AND DUP3 ADD SWAP2 JUMPDEST POP POP POP POP POP SWAP1 DUP1 PUSH1 0x3 ADD SLOAD SWAP1 POP DUP6 JUMP JUMPDEST PUSH1 0x1 PUSH1 0x0 SWAP1 SLOAD SWAP1 PUSH2 0x100 EXP SWAP1 DIV PUSH20 0xFFFFFFFFFFFFFFFFFFFFFFFFFFFFFFFFFFFFFFFF AND PUSH20 0xFFFFFFFFFFFFFFFFFFFFFFFFFFFFFFFFFFFFFFFF AND CALLER PUSH20 0xFFFFFFFFFFFFFFFFFFFFFFFFFFFFFFFFFFFFFFFF AND EQ PUSH2 0x4DA JUMPI PUSH1 0x0 DUP1 REVERT JUMPDEST PUSH1 0x0 PUSH1 0x4 PUSH1 0x0 DUP1 PUSH1 0x0 DUP2 SLOAD DUP1 SWAP3 SWAP2 SWAP1 PUSH2 0x4F2 SWAP1 PUSH2 0xC5E JUMP JUMPDEST SWAP2 SWAP1 POP SSTORE DUP2 MSTORE PUSH1 0x20 ADD SWAP1 DUP2 MSTORE PUSH1 0x20 ADD PUSH1 0x0 KECCAK256 SWAP1 POP DUP3 DUP2 PUSH1 0x0 ADD DUP2 SWAP1 SSTORE POP PUSH1 0x0 DUP2 PUSH1 0x3 ADD DUP2 SWAP1 SSTORE POP PUSH1 0x0 DUP2 PUSH1 0x1 ADD PUSH1 0x0 PUSH2 0x100 EXP DUP2 SLOAD DUP2 PUSH1 0xFF MUL NOT AND SWAP1 DUP4 ISZERO ISZERO MUL OR SWAP1 SSTORE POP DUP2 DUP2 PUSH1 0x1 ADD PUSH1 0x1 PUSH2 0x100 EXP DUP2 SLOAD DUP2 PUSH20 0xFFFFFFFFFFFFFFFFFFFFFFFFFFFFFFFFFFFFFFFF MUL NOT AND SWAP1 DUP4 PUSH20 0xFFFFFFFFFFFFFFFFFFFFFFFFFFFFFFFFFFFFFFFF AND MUL OR SWAP1 SSTORE POP DUP4 DUP2 PUSH1 0x2 ADD SWAP1 DUP2 PUSH2 0x58A SWAP2 SWAP1 PUSH2 0xE52 JUMP JUMPDEST POP POP POP POP POP JUMP JUMPDEST PUSH1 0x3 SLOAD DUP2 JUMP JUMPDEST PUSH1 0x3 SLOAD CALLVALUE GT PUSH2 0x5A5 JUMPI PUSH1 0x0 DUP1 REVERT JUMPDEST PUSH1 0x1 PUSH1 0x5 PUSH1 0x0 CALLER PUSH20 0xFFFFFFFFFFFFFFFFFFFFFFFFFFFFFFFFFFFFFFFF AND PUSH20 0xFFFFFFFFFFFFFFFFFFFFFFFFFFFFFFFFFFFFFFFF AND DUP2 MSTORE PUSH1 0x20 ADD SWAP1 DUP2 MSTORE PUSH1 0x20 ADD PUSH1 0x0 KECCAK256 PUSH1 0x0 PUSH2 0x100 EXP DUP2 SLOAD DUP2 PUSH1 0xFF MUL NOT AND SWAP1 DUP4 ISZERO ISZERO MUL OR SWAP1 SSTORE POP PUSH1 0x2 PUSH1 0x0 DUP2 SLOAD DUP1 SWAP3 SWAP2 SWAP1 PUSH2 0x610 SWAP1 PUSH2 0xC5E JUMP JUMPDEST SWAP2 SWAP1 POP SSTORE POP JUMP JUMPDEST PUSH1 0x0 PUSH1 0x4 PUSH1 0x0 DUP4 DUP2 MSTORE PUSH1 0x20 ADD SWAP1 DUP2 MSTORE PUSH1 0x20 ADD PUSH1 0x0 KECCAK256 SWAP1 POP PUSH1 0x5 PUSH1 0x0 CALLER PUSH20 0xFFFFFFFFFFFFFFFFFFFFFFFFFFFFFFFFFFFFFFFF AND PUSH20 0xFFFFFFFFFFFFFFFFFFFFFFFFFFFFFFFFFFFFFFFF AND DUP2 MSTORE PUSH1 0x20 ADD SWAP1 DUP2 MSTORE PUSH1 0x20 ADD PUSH1 0x0 KECCAK256 PUSH1 0x0 SWAP1 SLOAD SWAP1 PUSH2 0x100 EXP SWAP1 DIV PUSH1 0xFF AND PUSH2 0x684 JUMPI PUSH1 0x0 DUP1 REVERT JUMPDEST DUP1 PUSH1 0x4 ADD PUSH1 0x0 CALLER PUSH20 0xFFFFFFFFFFFFFFFFFFFFFFFFFFFFFFFFFFFFFFFF AND PUSH20 0xFFFFFFFFFFFFFFFFFFFFFFFFFFFFFFFFFFFFFFFF AND DUP2 MSTORE PUSH1 0x20 ADD SWAP1 DUP2 MSTORE PUSH1 0x20 ADD PUSH1 0x0 KECCAK256 PUSH1 0x0 SWAP1 SLOAD SWAP1 PUSH2 0x100 EXP SWAP1 DIV PUSH1 0xFF AND ISZERO PUSH2 0x6DD JUMPI PUSH1 0x0 DUP1 REVERT JUMPDEST DUP1 PUSH1 0x3 ADD PUSH1 0x0 DUP2 SLOAD DUP1 SWAP3 SWAP2 SWAP1 PUSH2 0x6F2 SWAP1 PUSH2 0xC5E JUMP JUMPDEST SWAP2 SWAP1 POP SSTORE POP PUSH1 0x1 DUP2 PUSH1 0x4 ADD PUSH1 0x0 CALLER PUSH20 0xFFFFFFFFFFFFFFFFFFFFFFFFFFFFFFFFFFFFFFFF AND PUSH20 0xFFFFFFFFFFFFFFFFFFFFFFFFFFFFFFFFFFFFFFFF AND DUP2 MSTORE PUSH1 0x20 ADD SWAP1 DUP2 MSTORE PUSH1 0x20 ADD PUSH1 0x0 KECCAK256 PUSH1 0x0 PUSH2 0x100 EXP DUP2 SLOAD DUP2 PUSH1 0xFF MUL NOT AND SWAP1 DUP4 ISZERO ISZERO MUL OR SWAP1 SSTORE POP POP POP JUMP JUMPDEST PUSH1 0x0 PUSH1 0x40 MLOAD SWAP1 POP SWAP1 JUMP JUMPDEST PUSH1 0x0 DUP1 REVERT JUMPDEST PUSH1 0x0 DUP1 REVERT JUMPDEST PUSH1 0x0 DUP2 SWAP1 POP SWAP2 SWAP1 POP JUMP JUMPDEST PUSH2 0x77C DUP2 PUSH2 0x769 JUMP JUMPDEST DUP2 EQ PUSH2 0x787 JUMPI PUSH1 0x0 DUP1 REVERT JUMPDEST POP JUMP JUMPDEST PUSH1 0x0 DUP2 CALLDATALOAD SWAP1 POP PUSH2 0x799 DUP2 PUSH2 0x773 JUMP JUMPDEST SWAP3 SWAP2 POP POP JUMP JUMPDEST PUSH1 0x0 PUSH1 0x20 DUP3 DUP5 SUB SLT ISZERO PUSH2 0x7B5 JUMPI PUSH2 0x7B4 PUSH2 0x75F JUMP JUMPDEST JUMPDEST PUSH1 0x0 PUSH2 0x7C3 DUP5 DUP3 DUP6 ADD PUSH2 0x78A JUMP JUMPDEST SWAP2 POP POP SWAP3 SWAP2 POP POP JUMP JUMPDEST PUSH1 0x0 PUSH20 0xFFFFFFFFFFFFFFFFFFFFFFFFFFFFFFFFFFFFFFFF DUP3 AND SWAP1 POP SWAP2 SWAP1 POP JUMP JUMPDEST PUSH1 0x0 PUSH2 0x7F7 DUP3 PUSH2 0x7CC JUMP JUMPDEST SWAP1 POP SWAP2 SWAP1 POP JUMP JUMPDEST PUSH2 0x807 DUP2 PUSH2 0x7EC JUMP JUMPDEST DUP2 EQ PUSH2 0x812 JUMPI PUSH1 0x0 DUP1 REVERT JUMPDEST POP JUMP JUMPDEST PUSH1 0x0 DUP2 CALLDATALOAD SWAP1 POP PUSH2 0x824 DUP2 PUSH2 0x7FE JUMP JUMPDEST SWAP3 SWAP2 POP POP JUMP JUMPDEST PUSH1 0x0 PUSH1 0x20 DUP3 DUP5 SUB SLT ISZERO PUSH2 0x840 JUMPI PUSH2 0x83F PUSH2 0x75F JUMP JUMPDEST JUMPDEST PUSH1 0x0 PUSH2 0x84E DUP5 DUP3 DUP6 ADD PUSH2 0x815 JUMP JUMPDEST SWAP2 POP POP SWAP3 SWAP2 POP POP JUMP JUMPDEST PUSH1 0x0 DUP2 ISZERO ISZERO SWAP1 POP SWAP2 SWAP1 POP JUMP JUMPDEST PUSH2 0x86C DUP2 PUSH2 0x857 JUMP JUMPDEST DUP3 MSTORE POP POP JUMP JUMPDEST PUSH1 0x0 PUSH1 0x20 DUP3 ADD SWAP1 POP PUSH2 0x887 PUSH1 0x0 DUP4 ADD DUP5 PUSH2 0x863 JUMP JUMPDEST SWAP3 SWAP2 POP POP JUMP JUMPDEST PUSH2 0x896 DUP2 PUSH2 0x7EC JUMP JUMPDEST DUP3 MSTORE POP POP JUMP JUMPDEST PUSH1 0x0 PUSH1 0x20 DUP3 ADD SWAP1 POP PUSH2 0x8B1 PUSH1 0x0 DUP4 ADD DUP5 PUSH2 0x88D JUMP JUMPDEST SWAP3 SWAP2 POP POP JUMP JUMPDEST PUSH2 0x8C0 DUP2 PUSH2 0x769 JUMP JUMPDEST DUP3 MSTORE POP POP JUMP JUMPDEST PUSH1 0x0 PUSH1 0x20 DUP3 ADD SWAP1 POP PUSH2 0x8DB PUSH1 0x0 DUP4 ADD DUP5 PUSH2 0x8B7 JUMP JUMPDEST SWAP3 SWAP2 POP POP JUMP JUMPDEST PUSH1 0x0 DUP2 MLOAD SWAP1 POP SWAP2 SWAP1 POP JUMP JUMPDEST PUSH1 0x0 DUP3 DUP3 MSTORE PUSH1 0x20 DUP3 ADD SWAP1 POP SWAP3 SWAP2 POP POP JUMP JUMPDEST PUSH1 0x0 JUMPDEST DUP4 DUP2 LT ISZERO PUSH2 0x91B JUMPI DUP1 DUP3 ADD MLOAD DUP2 DUP5 ADD MSTORE PUSH1 0x20 DUP2 ADD SWAP1 POP PUSH2 0x900 JUMP JUMPDEST PUSH1 0x0 DUP5 DUP5 ADD MSTORE POP POP POP POP JUMP JUMPDEST PUSH1 0x0 PUSH1 0x1F NOT PUSH1 0x1F DUP4 ADD AND SWAP1 POP SWAP2 SWAP1 POP JUMP JUMPDEST PUSH1 0x0 PUSH2 0x943 DUP3 PUSH2 0x8E1 JUMP JUMPDEST PUSH2 0x94D DUP2 DUP6 PUSH2 0x8EC JUMP JUMPDEST SWAP4 POP PUSH2 0x95D DUP2 DUP6 PUSH1 0x20 DUP7 ADD PUSH2 0x8FD JUMP JUMPDEST PUSH2 0x966 DUP2 PUSH2 0x927 JUMP JUMPDEST DUP5 ADD SWAP2 POP POP SWAP3 SWAP2 POP POP JUMP JUMPDEST PUSH1 0x0 PUSH1 0xA0 DUP3 ADD SWAP1 POP PUSH2 0x986 PUSH1 0x0 DUP4 ADD DUP9 PUSH2 0x8B7 JUMP JUMPDEST PUSH2 0x993 PUSH1 0x20 DUP4 ADD DUP8 PUSH2 0x863 JUMP JUMPDEST PUSH2 0x9A0 PUSH1 0x40 DUP4 ADD DUP7 PUSH2 0x88D JUMP JUMPDEST DUP2 DUP2 SUB PUSH1 0x60 DUP4 ADD MSTORE PUSH2 0x9B2 DUP2 DUP6 PUSH2 0x938 JUMP JUMPDEST SWAP1 POP PUSH2 0x9C1 PUSH1 0x80 DUP4 ADD DUP5 PUSH2 0x8B7 JUMP JUMPDEST SWAP7 SWAP6 POP POP POP POP POP POP JUMP JUMPDEST PUSH1 0x0 DUP1 REVERT JUMPDEST PUSH1 0x0 DUP1 REVERT JUMPDEST PUSH32 0x4E487B7100000000000000000000000000000000000000000000000000000000 PUSH1 0x0 MSTORE PUSH1 0x41 PUSH1 0x4 MSTORE PUSH1 0x24 PUSH1 0x0 REVERT JUMPDEST PUSH2 0xA0D DUP3 PUSH2 0x927 JUMP JUMPDEST DUP2 ADD DUP2 DUP2 LT PUSH8 0xFFFFFFFFFFFFFFFF DUP3 GT OR ISZERO PUSH2 0xA2C JUMPI PUSH2 0xA2B PUSH2 0x9D5 JUMP JUMPDEST JUMPDEST DUP1 PUSH1 0x40 MSTORE POP POP POP JUMP JUMPDEST PUSH1 0x0 PUSH2 0xA3F PUSH2 0x755 JUMP JUMPDEST SWAP1 POP PUSH2 0xA4B DUP3 DUP3 PUSH2 0xA04 JUMP JUMPDEST SWAP2 SWAP1 POP JUMP JUMPDEST PUSH1 0x0 PUSH8 0xFFFFFFFFFFFFFFFF DUP3 GT ISZERO PUSH2 0xA6B JUMPI PUSH2 0xA6A PUSH2 0x9D5 JUMP JUMPDEST JUMPDEST PUSH2 0xA74 DUP3 PUSH2 0x927 JUMP JUMPDEST SWAP1 POP PUSH1 0x20 DUP2 ADD SWAP1 POP SWAP2 SWAP1 POP JUMP JUMPDEST DUP3 DUP2 DUP4 CALLDATACOPY PUSH1 0x0 DUP4 DUP4 ADD MSTORE POP POP POP JUMP JUMPDEST PUSH1 0x0 PUSH2 0xAA3 PUSH2 0xA9E DUP5 PUSH2 0xA50 JUMP JUMPDEST PUSH2 0xA35 JUMP JUMPDEST SWAP1 POP DUP3 DUP2 MSTORE PUSH1 0x20 DUP2 ADD DUP5 DUP5 DUP5 ADD GT ISZERO PUSH2 0xABF JUMPI PUSH2 0xABE PUSH2 0x9D0 JUMP JUMPDEST JUMPDEST PUSH2 0xACA DUP5 DUP3 DUP6 PUSH2 0xA81 JUMP JUMPDEST POP SWAP4 SWAP3 POP POP POP JUMP JUMPDEST PUSH1 0x0 DUP3 PUSH1 0x1F DUP4 ADD SLT PUSH2 0xAE7 JUMPI PUSH2 0xAE6 PUSH2 0x9CB JUMP JUMPDEST JUMPDEST DUP2 CALLDATALOAD PUSH2 0xAF7 DUP5 DUP3 PUSH1 0x20 DUP7 ADD PUSH2 0xA90 JUMP JUMPDEST SWAP2 POP POP SWAP3 SWAP2 POP POP JUMP JUMPDEST PUSH1 0x0 DUP1 PUSH1 0x0 PUSH1 0x60 DUP5 DUP7 SUB SLT ISZERO PUSH2 0xB19 JUMPI PUSH2 0xB18 PUSH2 0x75F JUMP JUMPDEST JUMPDEST PUSH1 0x0 DUP5 ADD CALLDATALOAD PUSH8 0xFFFFFFFFFFFFFFFF DUP2 GT ISZERO PUSH2 0xB37 JUMPI PUSH2 0xB36 PUSH2 0x764 JUMP JUMPDEST JUMPDEST PUSH2 0xB43 DUP7 DUP3 DUP8 ADD PUSH2 0xAD2 JUMP JUMPDEST SWAP4 POP POP PUSH1 0x20 PUSH2 0xB54 DUP7 DUP3 DUP8 ADD PUSH2 0x78A JUMP JUMPDEST SWAP3 POP POP PUSH1 0x40 PUSH2 0xB65 DUP7 DUP3 DUP8 ADD PUSH2 0x815 JUMP JUMPDEST SWAP2 POP POP SWAP3 POP SWAP3 POP SWAP3 JUMP JUMPDEST PUSH32 0x4E487B7100000000000000000000000000000000000000000000000000000000 PUSH1 0x0 MSTORE PUSH1 0x12 PUSH1 0x4 MSTORE PUSH1 0x24 PUSH1 0x0 REVERT JUMPDEST PUSH32 0x4E487B7100000000000000000000000000000000000000000000000000000000 PUSH1 0x0 MSTORE PUSH1 0x11 PUSH1 0x4 MSTORE PUSH1 0x24 PUSH1 0x0 REVERT JUMPDEST PUSH1 0x0 PUSH2 0xBD8 DUP3 PUSH2 0x769 JUMP JUMPDEST SWAP2 POP PUSH2 0xBE3 DUP4 PUSH2 0x769 JUMP JUMPDEST SWAP3 POP DUP3 PUSH2 0xBF3 JUMPI PUSH2 0xBF2 PUSH2 0xB6F JUMP JUMPDEST JUMPDEST DUP3 DUP3 DIV SWAP1 POP SWAP3 SWAP2 POP POP JUMP JUMPDEST PUSH32 0x4E487B7100000000000000000000000000000000000000000000000000000000 PUSH1 0x0 MSTORE PUSH1 0x22 PUSH1 0x4 MSTORE PUSH1 0x24 PUSH1 0x0 REVERT JUMPDEST PUSH1 0x0 PUSH1 0x2 DUP3 DIV SWAP1 POP PUSH1 0x1 DUP3 AND DUP1 PUSH2 0xC45 JUMPI PUSH1 0x7F DUP3 AND SWAP2 POP JUMPDEST PUSH1 0x20 DUP3 LT DUP2 SUB PUSH2 0xC58 JUMPI PUSH2 0xC57 PUSH2 0xBFE JUMP JUMPDEST JUMPDEST POP SWAP2 SWAP1 POP JUMP JUMPDEST PUSH1 0x0 PUSH2 0xC69 DUP3 PUSH2 0x769 JUMP JUMPDEST SWAP2 POP PUSH32 0xFFFFFFFFFFFFFFFFFFFFFFFFFFFFFFFFFFFFFFFFFFFFFFFFFFFFFFFFFFFFFFFF DUP3 SUB PUSH2 0xC9B JUMPI PUSH2 0xC9A PUSH2 0xB9E JUMP JUMPDEST JUMPDEST PUSH1 0x1 DUP3 ADD SWAP1 POP SWAP2 SWAP1 POP JUMP JUMPDEST PUSH1 0x0 DUP2 SWAP1 POP DUP2 PUSH1 0x0 MSTORE PUSH1 0x20 PUSH1 0x0 KECCAK256 SWAP1 POP SWAP2 SWAP1 POP JUMP JUMPDEST PUSH1 0x0 PUSH1 0x20 PUSH1 0x1F DUP4 ADD DIV SWAP1 POP SWAP2 SWAP1 POP JUMP JUMPDEST PUSH1 0x0 DUP3 DUP3 SHL SWAP1 POP SWAP3 SWAP2 POP POP JUMP JUMPDEST PUSH1 0x0 PUSH1 0x8 DUP4 MUL PUSH2 0xD08 PUSH32 0xFFFFFFFFFFFFFFFFFFFFFFFFFFFFFFFFFFFFFFFFFFFFFFFFFFFFFFFFFFFFFFFF DUP3 PUSH2 0xCCB JUMP JUMPDEST PUSH2 0xD12 DUP7 DUP4 PUSH2 0xCCB JUMP JUMPDEST SWAP6 POP DUP1 NOT DUP5 AND SWAP4 POP DUP1 DUP7 AND DUP5 OR SWAP3 POP POP POP SWAP4 SWAP3 POP POP POP JUMP JUMPDEST PUSH1 0x0 DUP2 SWAP1 POP SWAP2 SWAP1 POP JUMP JUMPDEST PUSH1 0x0 PUSH2 0xD4F PUSH2 0xD4A PUSH2 0xD45 DUP5 PUSH2 0x769 JUMP JUMPDEST PUSH2 0xD2A JUMP JUMPDEST PUSH2 0x769 JUMP JUMPDEST SWAP1 POP SWAP2 SWAP1 POP JUMP JUMPDEST PUSH1 0x0 DUP2 SWAP1 POP SWAP2 SWAP1 POP JUMP JUMPDEST PUSH2 0xD69 DUP4 PUSH2 0xD34 JUMP JUMPDEST PUSH2 0xD7D PUSH2 0xD75 DUP3 PUSH2 0xD56 JUMP JUMPDEST DUP5 DUP5 SLOAD PUSH2 0xCD8 JUMP JUMPDEST DUP3 SSTORE POP POP POP POP JUMP JUMPDEST PUSH1 0x0 SWAP1 JUMP JUMPDEST PUSH2 0xD92 PUSH2 0xD85 JUMP JUMPDEST PUSH2 0xD9D DUP2 DUP5 DUP5 PUSH2 0xD60 JUMP JUMPDEST POP POP POP JUMP JUMPDEST JUMPDEST DUP2 DUP2 LT ISZERO PUSH2 0xDC1 JUMPI PUSH2 0xDB6 PUSH1 0x0 DUP3 PUSH2 0xD8A JUMP JUMPDEST PUSH1 0x1 DUP2 ADD SWAP1 POP PUSH2 0xDA3 JUMP JUMPDEST POP POP JUMP JUMPDEST PUSH1 0x1F DUP3 GT ISZERO PUSH2 0xE06 JUMPI PUSH2 0xDD7 DUP2 PUSH2 0xCA6 JUMP JUMPDEST PUSH2 0xDE0 DUP5 PUSH2 0xCBB JUMP JUMPDEST DUP2 ADD PUSH1 0x20 DUP6 LT ISZERO PUSH2 0xDEF JUMPI DUP2 SWAP1 POP JUMPDEST PUSH2 0xE03 PUSH2 0xDFB DUP6 PUSH2 0xCBB JUMP JUMPDEST DUP4 ADD DUP3 PUSH2 0xDA2 JUMP JUMPDEST POP POP JUMPDEST POP POP POP JUMP JUMPDEST PUSH1 0x0 DUP3 DUP3 SHR SWAP1 POP SWAP3 SWAP2 POP POP JUMP JUMPDEST PUSH1 0x0 PUSH2 0xE29 PUSH1 0x0 NOT DUP5 PUSH1 0x8 MUL PUSH2 0xE0B JUMP JUMPDEST NOT DUP1 DUP4 AND SWAP2 POP POP SWAP3 SWAP2 POP POP JUMP JUMPDEST PUSH1 0x0 PUSH2 0xE42 DUP4 DUP4 PUSH2 0xE18 JUMP JUMPDEST SWAP2 POP DUP3 PUSH1 0x2 MUL DUP3 OR SWAP1 POP SWAP3 SWAP2 POP POP JUMP JUMPDEST PUSH2 0xE5B DUP3 PUSH2 0x8E1 JUMP JUMPDEST PUSH8 0xFFFFFFFFFFFFFFFF DUP2 GT ISZERO PUSH2 0xE74 JUMPI PUSH2 0xE73 PUSH2 0x9D5 JUMP JUMPDEST JUMPDEST PUSH2 0xE7E DUP3 SLOAD PUSH2 0xC2D JUMP JUMPDEST PUSH2 0xE89 DUP3 DUP3 DUP6 PUSH2 0xDC5 JUMP JUMPDEST PUSH1 0x0 PUSH1 0x20 SWAP1 POP PUSH1 0x1F DUP4 GT PUSH1 0x1 DUP2 EQ PUSH2 0xEBC JUMPI PUSH1 0x0 DUP5 ISZERO PUSH2 0xEAA JUMPI DUP3 DUP8 ADD MLOAD SWAP1 POP JUMPDEST PUSH2 0xEB4 DUP6 DUP3 PUSH2 0xE36 JUMP JUMPDEST DUP7 SSTORE POP PUSH2 0xF1C JUMP JUMPDEST PUSH1 0x1F NOT DUP5 AND PUSH2 0xECA DUP7 PUSH2 0xCA6 JUMP JUMPDEST PUSH1 0x0 JUMPDEST DUP3 DUP2 LT ISZERO PUSH2 0xEF2 JUMPI DUP5 DUP10 ADD MLOAD DUP3 SSTORE PUSH1 0x1 DUP3 ADD SWAP2 POP PUSH1 0x20 DUP6 ADD SWAP5 POP PUSH1 0x20 DUP2 ADD SWAP1 POP PUSH2 0xECD JUMP JUMPDEST DUP7 DUP4 LT ISZERO PUSH2 0xF0F JUMPI DUP5 DUP10 ADD MLOAD PUSH2 0xF0B PUSH1 0x1F DUP10 AND DUP3 PUSH2 0xE18 JUMP JUMPDEST DUP4 SSTORE POP JUMPDEST PUSH1 0x1 PUSH1 0x2 DUP9 MUL ADD DUP9 SSTORE POP POP POP JUMPDEST POP POP POP POP POP POP JUMP INVALID LOG2 PUSH5 0x6970667358 0x22 SLT KECCAK256 SWAP8 0xAC 0xAA GT 0xC9 CHAINID 0xF SUB SIGNEXTEND 0x4E PUSH13 0x4A16AA5145BEE07A914AA7FFFB GAS MSIZE 0x2E MOD 0xA5 PUSH9 0x19CD64736F6C634300 ADDMOD GT STOP CALLER "},"gasEstimates":{"creation":{"codeDepositCost":"786000","executionCost":"infinite","totalCost":"infinite"},"external":{"approveRequest(uint256)":"infinite","contribute()":"51021","contributors(address)":"2868","contributorsCount()":"2496","createRequest(string,uint256,address)":"infinite","finalizeRequest(uint256)":"infinite","manager()":"2559","minimumContribution()":"2473","requests(uint256)":"infinite"}},"methodIdentifiers":{"approveRequest(uint256)":"d7d1bbdb","contribute()":"d7bb99ba","contributors(address)":"1f6d4942","contributorsCount()":"7569b3d7","createRequest(string,uint256,address)":"8a9cfd55","finalizeRequest(uint256)":"03441006","manager()":"481c6a75","minimumContribution()":"937e09b1","requests(uint256)":"81d12c58"}},"storageLayout":{"storage":[{"astId":56,"contract":"Campaign.sol:Campaign","label":"requestCount","offset":0,"slot":"0","type":"t_uint256"},{"astId":58,"contract":"Campaign.sol:Campaign","label":"manager","offset":0,"slot":"1","type":"t_address"},{"astId":60,"contract":"Campaign.sol:Campaign","label":"contributorsCount","offset":0,"slot":"2","type":"t_uint256"},{"astId":62,"contract":"Campaign.sol:Campaign","label":"minimumContribution","offset":0,"slot":"3","type":"t_uint256"},{"astId":67,"contract":"Campaign.sol:Campaign","label":"requests","offset":0,"slot":"4","type":"t_mapping(t_uint256,t_struct(Request)54_storage)"},{"astId":71,"contract":"Campaign.sol:Campaign","label":"contributors","offset":0,"slot":"5","type":"t_mapping(t_address,t_bool)"}],"types":{"t_address":{"encoding":"inplace","label":"address","numberOfBytes":"20"},"t_bool":{"encoding":"inplace","label":"bool","numberOfBytes":"1"},"t_mapping(t_address,t_bool)":{"encoding":"mapping","key":"t_address","label":"mapping(address => bool)","numberOfBytes":"32","value":"t_bool"},"t_mapping(t_uint256,t_struct(Request)54_storage)":{"encoding":"mapping","key":"t_uint256","label":"mapping(uint256 => struct Campaign.Request)","numberOfBytes":"32","value":"t_struct(Request)54_storage"},"t_string_storage":{"encoding":"bytes","label":"string","numberOfBytes":"32"},"t_struct(Request)54_storage":{"encoding":"inplace","label":"struct Campaign.Request","members":[{"astId":41,"contract":"Campaign.sol:Campaign","label":"value","offset":0,"slot":"0","type":"t_uint256"},{"astId":43,"contract":"Campaign.sol:Campaign","label":"isComplete","offset":0,"slot":"1","type":"t_bool"},{"astId":45,"contract":"Campaign.sol:Campaign","label":"recipient","offset":1,"slot":"1","type":"t_address"},{"astId":47,"contract":"Campaign.sol:Campaign","label":"description","offset":0,"slot":"2","type":"t_string_storage"},{"astId":49,"contract":"Campaign.sol:Campaign","label":"approvalCount","offset":0,"slot":"3","type":"t_uint256"},{"astId":53,"contract":"Campaign.sol:Campaign","label":"approvals","offset":0,"slot":"4","type":"t_mapping(t_address,t_bool)"}],"numberOfBytes":"160"},"t_uint256":{"encoding":"inplace","label":"uint256","numberOfBytes":"32"}}},"userdoc":{"kind":"user","methods":{},"version":1}}