{"abi":[{"inputs":[{"internalType":"uint256","name":"minimumContributionProvided","type":"uint256"}],"name":"createCampaign","outputs":[],"stateMutability":"nonpayable","type":"function"},{"inputs":[{"internalType":"uint256","name":"","type":"uint256"}],"name":"deployedCampaigns","outputs":[{"internalType":"address","name":"","type":"address"}],"stateMutability":"view","type":"function"},{"inputs":[],"name":"getCampaigns","outputs":[{"internalType":"address[]","name":"","type":"address[]"}],"stateMutability":"view","type":"function"}],"devdoc":{"kind":"dev","methods":{},"version":1},"evm":{"assembly":"    /* \"Campaign.sol\":69:478  contract CampaignFactory {... */\n  mstore(0x40, 0x80)\n  callvalue\n  dup1\n  iszero\n  tag_1\n  jumpi\n  0x00\n  dup1\n  revert\ntag_1:\n  pop\n  dataSize(sub_0)\n  dup1\n  dataOffset(sub_0)\n  0x00\n  codecopy\n  0x00\n  return\nstop\n\nsub_0: assembly {\n        /* \"Campaign.sol\":69:478  contract CampaignFactory {... */\n      mstore(0x40, 0x80)\n      callvalue\n      dup1\n      iszero\n      tag_1\n      jumpi\n      0x00\n      dup1\n      revert\n    tag_1:\n      pop\n      jumpi(tag_2, lt(calldatasize, 0x04))\n      shr(0xe0, calldataload(0x00))\n      dup1\n      0x339d50a5\n      eq\n      tag_3\n      jumpi\n      dup1\n      0xa3303a75\n      eq\n      tag_4\n      jumpi\n      dup1\n      0xa6b03633\n      eq\n      tag_5\n      jumpi\n    tag_2:\n      0x00\n      dup1\n      revert\n        /* \"Campaign.sol\":100:134  address[] public deployedCampaigns */\n    tag_3:\n      tag_6\n      0x04\n      dup1\n      calldatasize\n      sub\n      dup2\n      add\n      swap1\n      tag_7\n      swap2\n      swap1\n      tag_8\n      jump\t// in\n    tag_7:\n      tag_9\n      jump\t// in\n    tag_6:\n      mload(0x40)\n      tag_10\n      swap2\n      swap1\n      tag_11\n      jump\t// in\n    tag_10:\n      mload(0x40)\n      dup1\n      swap2\n      sub\n      swap1\n      return\n        /* \"Campaign.sol\":141:366  function createCampaign(uint minimumContributionProvided) public {... */\n    tag_4:\n      tag_12\n      0x04\n      dup1\n      calldatasize\n      sub\n      dup2\n      add\n      swap1\n      tag_13\n      swap2\n      swap1\n      tag_8\n      jump\t// in\n    tag_13:\n      tag_14\n      jump\t// in\n    tag_12:\n      stop\n        /* \"Campaign.sol\":372:476  function getCampaigns() public view returns (address[] memory) {... */\n    tag_5:\n      tag_15\n      tag_16\n      jump\t// in\n    tag_15:\n      mload(0x40)\n      tag_17\n      swap2\n      swap1\n      tag_18\n      jump\t// in\n    tag_17:\n      mload(0x40)\n      dup1\n      swap2\n      sub\n      swap1\n      return\n        /* \"Campaign.sol\":100:134  address[] public deployedCampaigns */\n    tag_9:\n      0x00\n      dup2\n      dup2\n      sload\n      dup2\n      lt\n      tag_19\n      jumpi\n      0x00\n      dup1\n      revert\n    tag_19:\n      swap1\n      0x00\n      mstore\n      keccak256(0x00, 0x20)\n      add\n      0x00\n      swap2\n      pop\n      sload\n      swap1\n      0x0100\n      exp\n      swap1\n      div\n      0xffffffffffffffffffffffffffffffffffffffff\n      and\n      dup2\n      jump\t// out\n        /* \"Campaign.sol\":141:366  function createCampaign(uint minimumContributionProvided) public {... */\n    tag_14:\n        /* \"Campaign.sol\":216:242  address newCampaignAddress */\n      0x00\n        /* \"Campaign.sol\":266:293  minimumContributionProvided */\n      dup2\n        /* \"Campaign.sol\":295:305  msg.sender */\n      caller\n        /* \"Campaign.sol\":253:306  new Campaign(minimumContributionProvided, msg.sender) */\n      mload(0x40)\n      tag_22\n      swap1\n      tag_23\n      jump\t// in\n    tag_22:\n      tag_24\n      swap3\n      swap2\n      swap1\n      tag_25\n      jump\t// in\n    tag_24:\n      mload(0x40)\n      dup1\n      swap2\n      sub\n      swap1\n      0x00\n      create\n      dup1\n      iszero\n      dup1\n      iszero\n      tag_26\n      jumpi\n      returndatasize\n      0x00\n      dup1\n      returndatacopy\n      revert(0x00, returndatasize)\n    tag_26:\n      pop\n        /* \"Campaign.sol\":216:307  address newCampaignAddress = address(new Campaign(minimumContributionProvided, msg.sender)) */\n      swap1\n      pop\n        /* \"Campaign.sol\":317:334  deployedCampaigns */\n      0x00\n        /* \"Campaign.sol\":340:358  newCampaignAddress */\n      dup2\n        /* \"Campaign.sol\":317:359  deployedCampaigns.push(newCampaignAddress) */\n      swap1\n      dup1\n      0x01\n      dup2\n      sload\n      add\n      dup1\n      dup3\n      sstore\n      dup1\n      swap2\n      pop\n      pop\n      0x01\n      swap1\n      sub\n      swap1\n      0x00\n      mstore\n      keccak256(0x00, 0x20)\n      add\n      0x00\n      swap1\n      swap2\n      swap1\n      swap2\n      swap1\n      swap2\n      0x0100\n      exp\n      dup2\n      sload\n      dup2\n      0xffffffffffffffffffffffffffffffffffffffff\n      mul\n      not\n      and\n      swap1\n      dup4\n      0xffffffffffffffffffffffffffffffffffffffff\n      and\n      mul\n      or\n      swap1\n      sstore\n      pop\n        /* \"Campaign.sol\":206:366  {... */\n      pop\n        /* \"Campaign.sol\":141:366  function createCampaign(uint minimumContributionProvided) public {... */\n      pop\n      jump\t// out\n        /* \"Campaign.sol\":372:476  function getCampaigns() public view returns (address[] memory) {... */\n    tag_16:\n        /* \"Campaign.sol\":417:433  address[] memory */\n      0x60\n        /* \"Campaign.sol\":452:469  deployedCampaigns */\n      0x00\n        /* \"Campaign.sol\":445:469  return deployedCampaigns */\n      dup1\n      sload\n      dup1\n      0x20\n      mul\n      0x20\n      add\n      mload(0x40)\n      swap1\n      dup2\n      add\n      0x40\n      mstore\n      dup1\n      swap3\n      swap2\n      swap1\n      dup2\n      dup2\n      mstore\n      0x20\n      add\n      dup3\n      dup1\n      sload\n      dup1\n      iszero\n      tag_29\n      jumpi\n      0x20\n      mul\n      dup3\n      add\n      swap2\n      swap1\n      0x00\n      mstore\n      keccak256(0x00, 0x20)\n      swap1\n    tag_30:\n      dup2\n      0x00\n      swap1\n      sload\n      swap1\n      0x0100\n      exp\n      swap1\n      div\n      0xffffffffffffffffffffffffffffffffffffffff\n      and\n      0xffffffffffffffffffffffffffffffffffffffff\n      and\n      dup2\n      mstore\n      0x20\n      add\n      swap1\n      0x01\n      add\n      swap1\n      dup1\n      dup4\n      gt\n      tag_30\n      jumpi\n    tag_29:\n      pop\n      pop\n      pop\n      pop\n      pop\n      swap1\n      pop\n        /* \"Campaign.sol\":372:476  function getCampaigns() public view returns (address[] memory) {... */\n      swap1\n      jump\t// out\n    tag_23:\n      dataSize(sub_0)\n      dup1\n      dataOffset(sub_0)\n      dup4\n      codecopy\n      add\n      swap1\n      jump\t// out\n        /* \"#utility.yul\":88:205   */\n    tag_32:\n        /* \"#utility.yul\":197:198   */\n      0x00\n        /* \"#utility.yul\":194:195   */\n      dup1\n        /* \"#utility.yul\":187:199   */\n      revert\n        /* \"#utility.yul\":334:411   */\n    tag_34:\n        /* \"#utility.yul\":371:378   */\n      0x00\n        /* \"#utility.yul\":400:405   */\n      dup2\n        /* \"#utility.yul\":389:405   */\n      swap1\n      pop\n        /* \"#utility.yul\":334:411   */\n      swap2\n      swap1\n      pop\n      jump\t// out\n        /* \"#utility.yul\":417:539   */\n    tag_35:\n        /* \"#utility.yul\":490:514   */\n      tag_54\n        /* \"#utility.yul\":508:513   */\n      dup2\n        /* \"#utility.yul\":490:514   */\n      tag_34\n      jump\t// in\n    tag_54:\n        /* \"#utility.yul\":483:488   */\n      dup2\n        /* \"#utility.yul\":480:515   */\n      eq\n        /* \"#utility.yul\":470:533   */\n      tag_55\n      jumpi\n        /* \"#utility.yul\":529:530   */\n      0x00\n        /* \"#utility.yul\":526:527   */\n      dup1\n        /* \"#utility.yul\":519:531   */\n      revert\n        /* \"#utility.yul\":470:533   */\n    tag_55:\n        /* \"#utility.yul\":417:539   */\n      pop\n      jump\t// out\n        /* \"#utility.yul\":545:684   */\n    tag_36:\n        /* \"#utility.yul\":591:596   */\n      0x00\n        /* \"#utility.yul\":629:635   */\n      dup2\n        /* \"#utility.yul\":616:636   */\n      calldataload\n        /* \"#utility.yul\":607:636   */\n      swap1\n      pop\n        /* \"#utility.yul\":645:678   */\n      tag_57\n        /* \"#utility.yul\":672:677   */\n      dup2\n        /* \"#utility.yul\":645:678   */\n      tag_35\n      jump\t// in\n    tag_57:\n        /* \"#utility.yul\":545:684   */\n      swap3\n      swap2\n      pop\n      pop\n      jump\t// out\n        /* \"#utility.yul\":690:1019   */\n    tag_8:\n        /* \"#utility.yul\":749:755   */\n      0x00\n        /* \"#utility.yul\":798:800   */\n      0x20\n        /* \"#utility.yul\":786:795   */\n      dup3\n        /* \"#utility.yul\":777:784   */\n      dup5\n        /* \"#utility.yul\":773:796   */\n      sub\n        /* \"#utility.yul\":769:801   */\n      slt\n        /* \"#utility.yul\":766:885   */\n      iszero\n      tag_59\n      jumpi\n        /* \"#utility.yul\":804:883   */\n      tag_60\n      tag_32\n      jump\t// in\n    tag_60:\n        /* \"#utility.yul\":766:885   */\n    tag_59:\n        /* \"#utility.yul\":924:925   */\n      0x00\n        /* \"#utility.yul\":949:1002   */\n      tag_61\n        /* \"#utility.yul\":994:1001   */\n      dup5\n        /* \"#utility.yul\":985:991   */\n      dup3\n        /* \"#utility.yul\":974:983   */\n      dup6\n        /* \"#utility.yul\":970:992   */\n      add\n        /* \"#utility.yul\":949:1002   */\n      tag_36\n      jump\t// in\n    tag_61:\n        /* \"#utility.yul\":939:1002   */\n      swap2\n      pop\n        /* \"#utility.yul\":895:1012   */\n      pop\n        /* \"#utility.yul\":690:1019   */\n      swap3\n      swap2\n      pop\n      pop\n      jump\t// out\n        /* \"#utility.yul\":1025:1151   */\n    tag_37:\n        /* \"#utility.yul\":1062:1069   */\n      0x00\n        /* \"#utility.yul\":1102:1144   */\n      0xffffffffffffffffffffffffffffffffffffffff\n        /* \"#utility.yul\":1095:1100   */\n      dup3\n        /* \"#utility.yul\":1091:1145   */\n      and\n        /* \"#utility.yul\":1080:1145   */\n      swap1\n      pop\n        /* \"#utility.yul\":1025:1151   */\n      swap2\n      swap1\n      pop\n      jump\t// out\n        /* \"#utility.yul\":1157:1253   */\n    tag_38:\n        /* \"#utility.yul\":1194:1201   */\n      0x00\n        /* \"#utility.yul\":1223:1247   */\n      tag_64\n        /* \"#utility.yul\":1241:1246   */\n      dup3\n        /* \"#utility.yul\":1223:1247   */\n      tag_37\n      jump\t// in\n    tag_64:\n        /* \"#utility.yul\":1212:1247   */\n      swap1\n      pop\n        /* \"#utility.yul\":1157:1253   */\n      swap2\n      swap1\n      pop\n      jump\t// out\n        /* \"#utility.yul\":1259:1377   */\n    tag_39:\n        /* \"#utility.yul\":1346:1370   */\n      tag_66\n        /* \"#utility.yul\":1364:1369   */\n      dup2\n        /* \"#utility.yul\":1346:1370   */\n      tag_38\n      jump\t// in\n    tag_66:\n        /* \"#utility.yul\":1341:1344   */\n      dup3\n        /* \"#utility.yul\":1334:1371   */\n      mstore\n        /* \"#utility.yul\":1259:1377   */\n      pop\n      pop\n      jump\t// out\n        /* \"#utility.yul\":1383:1605   */\n    tag_11:\n        /* \"#utility.yul\":1476:1480   */\n      0x00\n        /* \"#utility.yul\":1514:1516   */\n      0x20\n        /* \"#utility.yul\":1503:1512   */\n      dup3\n        /* \"#utility.yul\":1499:1517   */\n      add\n        /* \"#utility.yul\":1491:1517   */\n      swap1\n      pop\n        /* \"#utility.yul\":1527:1598   */\n      tag_68\n        /* \"#utility.yul\":1595:1596   */\n      0x00\n        /* \"#utility.yul\":1584:1593   */\n      dup4\n        /* \"#utility.yul\":1580:1597   */\n      add\n        /* \"#utility.yul\":1571:1577   */\n      dup5\n        /* \"#utility.yul\":1527:1598   */\n      tag_39\n      jump\t// in\n    tag_68:\n        /* \"#utility.yul\":1383:1605   */\n      swap3\n      swap2\n      pop\n      pop\n      jump\t// out\n        /* \"#utility.yul\":1611:1725   */\n    tag_40:\n        /* \"#utility.yul\":1678:1684   */\n      0x00\n        /* \"#utility.yul\":1712:1717   */\n      dup2\n        /* \"#utility.yul\":1706:1718   */\n      mload\n        /* \"#utility.yul\":1696:1718   */\n      swap1\n      pop\n        /* \"#utility.yul\":1611:1725   */\n      swap2\n      swap1\n      pop\n      jump\t// out\n        /* \"#utility.yul\":1731:1915   */\n    tag_41:\n        /* \"#utility.yul\":1830:1841   */\n      0x00\n        /* \"#utility.yul\":1864:1870   */\n      dup3\n        /* \"#utility.yul\":1859:1862   */\n      dup3\n        /* \"#utility.yul\":1852:1871   */\n      mstore\n        /* \"#utility.yul\":1904:1908   */\n      0x20\n        /* \"#utility.yul\":1899:1902   */\n      dup3\n        /* \"#utility.yul\":1895:1909   */\n      add\n        /* \"#utility.yul\":1880:1909   */\n      swap1\n      pop\n        /* \"#utility.yul\":1731:1915   */\n      swap3\n      swap2\n      pop\n      pop\n      jump\t// out\n        /* \"#utility.yul\":1921:2053   */\n    tag_42:\n        /* \"#utility.yul\":1988:1992   */\n      0x00\n        /* \"#utility.yul\":2011:2014   */\n      dup2\n        /* \"#utility.yul\":2003:2014   */\n      swap1\n      pop\n        /* \"#utility.yul\":2041:2045   */\n      0x20\n        /* \"#utility.yul\":2036:2039   */\n      dup3\n        /* \"#utility.yul\":2032:2046   */\n      add\n        /* \"#utility.yul\":2024:2046   */\n      swap1\n      pop\n        /* \"#utility.yul\":1921:2053   */\n      swap2\n      swap1\n      pop\n      jump\t// out\n        /* \"#utility.yul\":2059:2167   */\n    tag_43:\n        /* \"#utility.yul\":2136:2160   */\n      tag_73\n        /* \"#utility.yul\":2154:2159   */\n      dup2\n        /* \"#utility.yul\":2136:2160   */\n      tag_38\n      jump\t// in\n    tag_73:\n        /* \"#utility.yul\":2131:2134   */\n      dup3\n        /* \"#utility.yul\":2124:2161   */\n      mstore\n        /* \"#utility.yul\":2059:2167   */\n      pop\n      pop\n      jump\t// out\n        /* \"#utility.yul\":2173:2352   */\n    tag_44:\n        /* \"#utility.yul\":2242:2252   */\n      0x00\n        /* \"#utility.yul\":2263:2309   */\n      tag_75\n        /* \"#utility.yul\":2305:2308   */\n      dup4\n        /* \"#utility.yul\":2297:2303   */\n      dup4\n        /* \"#utility.yul\":2263:2309   */\n      tag_43\n      jump\t// in\n    tag_75:\n        /* \"#utility.yul\":2341:2345   */\n      0x20\n        /* \"#utility.yul\":2336:2339   */\n      dup4\n        /* \"#utility.yul\":2332:2346   */\n      add\n        /* \"#utility.yul\":2318:2346   */\n      swap1\n      pop\n        /* \"#utility.yul\":2173:2352   */\n      swap3\n      swap2\n      pop\n      pop\n      jump\t// out\n        /* \"#utility.yul\":2358:2471   */\n    tag_45:\n        /* \"#utility.yul\":2428:2432   */\n      0x00\n        /* \"#utility.yul\":2460:2464   */\n      0x20\n        /* \"#utility.yul\":2455:2458   */\n      dup3\n        /* \"#utility.yul\":2451:2465   */\n      add\n        /* \"#utility.yul\":2443:2465   */\n      swap1\n      pop\n        /* \"#utility.yul\":2358:2471   */\n      swap2\n      swap1\n      pop\n      jump\t// out\n        /* \"#utility.yul\":2507:3239   */\n    tag_46:\n        /* \"#utility.yul\":2626:2629   */\n      0x00\n        /* \"#utility.yul\":2655:2709   */\n      tag_78\n        /* \"#utility.yul\":2703:2708   */\n      dup3\n        /* \"#utility.yul\":2655:2709   */\n      tag_40\n      jump\t// in\n    tag_78:\n        /* \"#utility.yul\":2725:2811   */\n      tag_79\n        /* \"#utility.yul\":2804:2810   */\n      dup2\n        /* \"#utility.yul\":2799:2802   */\n      dup6\n        /* \"#utility.yul\":2725:2811   */\n      tag_41\n      jump\t// in\n    tag_79:\n        /* \"#utility.yul\":2718:2811   */\n      swap4\n      pop\n        /* \"#utility.yul\":2835:2891   */\n      tag_80\n        /* \"#utility.yul\":2885:2890   */\n      dup4\n        /* \"#utility.yul\":2835:2891   */\n      tag_42\n      jump\t// in\n    tag_80:\n        /* \"#utility.yul\":2914:2921   */\n      dup1\n        /* \"#utility.yul\":2945:2946   */\n      0x00\n        /* \"#utility.yul\":2930:3214   */\n    tag_81:\n        /* \"#utility.yul\":2955:2961   */\n      dup4\n        /* \"#utility.yul\":2952:2953   */\n      dup2\n        /* \"#utility.yul\":2949:2962   */\n      lt\n        /* \"#utility.yul\":2930:3214   */\n      iszero\n      tag_83\n      jumpi\n        /* \"#utility.yul\":3031:3037   */\n      dup2\n        /* \"#utility.yul\":3025:3038   */\n      mload\n        /* \"#utility.yul\":3058:3121   */\n      tag_84\n        /* \"#utility.yul\":3117:3120   */\n      dup9\n        /* \"#utility.yul\":3102:3115   */\n      dup3\n        /* \"#utility.yul\":3058:3121   */\n      tag_44\n      jump\t// in\n    tag_84:\n        /* \"#utility.yul\":3051:3121   */\n      swap8\n      pop\n        /* \"#utility.yul\":3144:3204   */\n      tag_85\n        /* \"#utility.yul\":3197:3203   */\n      dup4\n        /* \"#utility.yul\":3144:3204   */\n      tag_45\n      jump\t// in\n    tag_85:\n        /* \"#utility.yul\":3134:3204   */\n      swap3\n      pop\n        /* \"#utility.yul\":2990:3214   */\n      pop\n        /* \"#utility.yul\":2977:2978   */\n      0x01\n        /* \"#utility.yul\":2974:2975   */\n      dup2\n        /* \"#utility.yul\":2970:2979   */\n      add\n        /* \"#utility.yul\":2965:2979   */\n      swap1\n      pop\n        /* \"#utility.yul\":2930:3214   */\n      jump(tag_81)\n    tag_83:\n        /* \"#utility.yul\":2934:2948   */\n      pop\n        /* \"#utility.yul\":3230:3233   */\n      dup6\n        /* \"#utility.yul\":3223:3233   */\n      swap4\n      pop\n        /* \"#utility.yul\":2631:3239   */\n      pop\n      pop\n      pop\n        /* \"#utility.yul\":2507:3239   */\n      swap3\n      swap2\n      pop\n      pop\n      jump\t// out\n        /* \"#utility.yul\":3245:3618   */\n    tag_18:\n        /* \"#utility.yul\":3388:3392   */\n      0x00\n        /* \"#utility.yul\":3426:3428   */\n      0x20\n        /* \"#utility.yul\":3415:3424   */\n      dup3\n        /* \"#utility.yul\":3411:3429   */\n      add\n        /* \"#utility.yul\":3403:3429   */\n      swap1\n      pop\n        /* \"#utility.yul\":3475:3484   */\n      dup2\n        /* \"#utility.yul\":3469:3473   */\n      dup2\n        /* \"#utility.yul\":3465:3485   */\n      sub\n        /* \"#utility.yul\":3461:3462   */\n      0x00\n        /* \"#utility.yul\":3450:3459   */\n      dup4\n        /* \"#utility.yul\":3446:3463   */\n      add\n        /* \"#utility.yul\":3439:3486   */\n      mstore\n        /* \"#utility.yul\":3503:3611   */\n      tag_87\n        /* \"#utility.yul\":3606:3610   */\n      dup2\n        /* \"#utility.yul\":3597:3603   */\n      dup5\n        /* \"#utility.yul\":3503:3611   */\n      tag_46\n      jump\t// in\n    tag_87:\n        /* \"#utility.yul\":3495:3611   */\n      swap1\n      pop\n        /* \"#utility.yul\":3245:3618   */\n      swap3\n      swap2\n      pop\n      pop\n      jump\t// out\n        /* \"#utility.yul\":3624:3742   */\n    tag_47:\n        /* \"#utility.yul\":3711:3735   */\n      tag_89\n        /* \"#utility.yul\":3729:3734   */\n      dup2\n        /* \"#utility.yul\":3711:3735   */\n      tag_34\n      jump\t// in\n    tag_89:\n        /* \"#utility.yul\":3706:3709   */\n      dup3\n        /* \"#utility.yul\":3699:3736   */\n      mstore\n        /* \"#utility.yul\":3624:3742   */\n      pop\n      pop\n      jump\t// out\n        /* \"#utility.yul\":3748:4080   */\n    tag_25:\n        /* \"#utility.yul\":3869:3873   */\n      0x00\n        /* \"#utility.yul\":3907:3909   */\n      0x40\n        /* \"#utility.yul\":3896:3905   */\n      dup3\n        /* \"#utility.yul\":3892:3910   */\n      add\n        /* \"#utility.yul\":3884:3910   */\n      swap1\n      pop\n        /* \"#utility.yul\":3920:3991   */\n      tag_91\n        /* \"#utility.yul\":3988:3989   */\n      0x00\n        /* \"#utility.yul\":3977:3986   */\n      dup4\n        /* \"#utility.yul\":3973:3990   */\n      add\n        /* \"#utility.yul\":3964:3970   */\n      dup6\n        /* \"#utility.yul\":3920:3991   */\n      tag_47\n      jump\t// in\n    tag_91:\n        /* \"#utility.yul\":4001:4073   */\n      tag_92\n        /* \"#utility.yul\":4069:4071   */\n      0x20\n        /* \"#utility.yul\":4058:4067   */\n      dup4\n        /* \"#utility.yul\":4054:4072   */\n      add\n        /* \"#utility.yul\":4045:4051   */\n      dup5\n        /* \"#utility.yul\":4001:4073   */\n      tag_39\n      jump\t// in\n    tag_92:\n        /* \"#utility.yul\":3748:4080   */\n      swap4\n      swap3\n      pop\n      pop\n      pop\n      jump\t// out\n    stop\n\n    sub_0: assembly {\n            /* \"Campaign.sol\":481:2576  contract Campaign {... */\n          mstore(0x40, 0x80)\n            /* \"Campaign.sol\":1011:1167  constructor(uint minimumContributionProvided, address creator) {... */\n          callvalue\n          dup1\n          iszero\n          tag_1\n          jumpi\n          0x00\n          dup1\n          revert\n        tag_1:\n          pop\n          mload(0x40)\n          sub(codesize, bytecodeSize)\n          dup1\n          bytecodeSize\n          dup4\n          codecopy\n          dup2\n          dup2\n          add\n          0x40\n          mstore\n          dup2\n          add\n          swap1\n          tag_2\n          swap2\n          swap1\n          tag_3\n          jump\t// in\n        tag_2:\n            /* \"Campaign.sol\":1094:1101  creator */\n          dup1\n            /* \"Campaign.sol\":1084:1091  manager */\n          0x01\n          0x00\n            /* \"Campaign.sol\":1084:1101  manager = creator */\n          0x0100\n          exp\n          dup2\n          sload\n          dup2\n          0xffffffffffffffffffffffffffffffffffffffff\n          mul\n          not\n          and\n          swap1\n          dup4\n          0xffffffffffffffffffffffffffffffffffffffff\n          and\n          mul\n          or\n          swap1\n          sstore\n          pop\n            /* \"Campaign.sol\":1133:1160  minimumContributionProvided */\n          dup2\n            /* \"Campaign.sol\":1111:1130  minimumContribution */\n          0x03\n            /* \"Campaign.sol\":1111:1160  minimumContribution = minimumContributionProvided */\n          dup2\n          swap1\n          sstore\n          pop\n            /* \"Campaign.sol\":1011:1167  constructor(uint minimumContributionProvided, address creator) {... */\n          pop\n          pop\n            /* \"Campaign.sol\":481:2576  contract Campaign {... */\n          jump(tag_6)\n            /* \"#utility.yul\":88:205   */\n        tag_8:\n            /* \"#utility.yul\":197:198   */\n          0x00\n            /* \"#utility.yul\":194:195   */\n          dup1\n            /* \"#utility.yul\":187:199   */\n          revert\n            /* \"#utility.yul\":334:411   */\n        tag_10:\n            /* \"#utility.yul\":371:378   */\n          0x00\n            /* \"#utility.yul\":400:405   */\n          dup2\n            /* \"#utility.yul\":389:405   */\n          swap1\n          pop\n            /* \"#utility.yul\":334:411   */\n          swap2\n          swap1\n          pop\n          jump\t// out\n            /* \"#utility.yul\":417:539   */\n        tag_11:\n            /* \"#utility.yul\":490:514   */\n          tag_23\n            /* \"#utility.yul\":508:513   */\n          dup2\n            /* \"#utility.yul\":490:514   */\n          tag_10\n          jump\t// in\n        tag_23:\n            /* \"#utility.yul\":483:488   */\n          dup2\n            /* \"#utility.yul\":480:515   */\n          eq\n            /* \"#utility.yul\":470:533   */\n          tag_24\n          jumpi\n            /* \"#utility.yul\":529:530   */\n          0x00\n            /* \"#utility.yul\":526:527   */\n          dup1\n            /* \"#utility.yul\":519:531   */\n          revert\n            /* \"#utility.yul\":470:533   */\n        tag_24:\n            /* \"#utility.yul\":417:539   */\n          pop\n          jump\t// out\n            /* \"#utility.yul\":545:688   */\n        tag_12:\n            /* \"#utility.yul\":602:607   */\n          0x00\n            /* \"#utility.yul\":633:639   */\n          dup2\n            /* \"#utility.yul\":627:640   */\n          mload\n            /* \"#utility.yul\":618:640   */\n          swap1\n          pop\n            /* \"#utility.yul\":649:682   */\n          tag_26\n            /* \"#utility.yul\":676:681   */\n          dup2\n            /* \"#utility.yul\":649:682   */\n          tag_11\n          jump\t// in\n        tag_26:\n            /* \"#utility.yul\":545:688   */\n          swap3\n          swap2\n          pop\n          pop\n          jump\t// out\n            /* \"#utility.yul\":694:820   */\n        tag_13:\n            /* \"#utility.yul\":731:738   */\n          0x00\n            /* \"#utility.yul\":771:813   */\n          0xffffffffffffffffffffffffffffffffffffffff\n            /* \"#utility.yul\":764:769   */\n          dup3\n            /* \"#utility.yul\":760:814   */\n          and\n            /* \"#utility.yul\":749:814   */\n          swap1\n          pop\n            /* \"#utility.yul\":694:820   */\n          swap2\n          swap1\n          pop\n          jump\t// out\n            /* \"#utility.yul\":826:922   */\n        tag_14:\n            /* \"#utility.yul\":863:870   */\n          0x00\n            /* \"#utility.yul\":892:916   */\n          tag_29\n            /* \"#utility.yul\":910:915   */\n          dup3\n            /* \"#utility.yul\":892:916   */\n          tag_13\n          jump\t// in\n        tag_29:\n            /* \"#utility.yul\":881:916   */\n          swap1\n          pop\n            /* \"#utility.yul\":826:922   */\n          swap2\n          swap1\n          pop\n          jump\t// out\n            /* \"#utility.yul\":928:1050   */\n        tag_15:\n            /* \"#utility.yul\":1001:1025   */\n          tag_31\n            /* \"#utility.yul\":1019:1024   */\n          dup2\n            /* \"#utility.yul\":1001:1025   */\n          tag_14\n          jump\t// in\n        tag_31:\n            /* \"#utility.yul\":994:999   */\n          dup2\n            /* \"#utility.yul\":991:1026   */\n          eq\n            /* \"#utility.yul\":981:1044   */\n          tag_32\n          jumpi\n            /* \"#utility.yul\":1040:1041   */\n          0x00\n            /* \"#utility.yul\":1037:1038   */\n          dup1\n            /* \"#utility.yul\":1030:1042   */\n          revert\n            /* \"#utility.yul\":981:1044   */\n        tag_32:\n            /* \"#utility.yul\":928:1050   */\n          pop\n          jump\t// out\n            /* \"#utility.yul\":1056:1199   */\n        tag_16:\n            /* \"#utility.yul\":1113:1118   */\n          0x00\n            /* \"#utility.yul\":1144:1150   */\n          dup2\n            /* \"#utility.yul\":1138:1151   */\n          mload\n            /* \"#utility.yul\":1129:1151   */\n          swap1\n          pop\n            /* \"#utility.yul\":1160:1193   */\n          tag_34\n            /* \"#utility.yul\":1187:1192   */\n          dup2\n            /* \"#utility.yul\":1160:1193   */\n          tag_15\n          jump\t// in\n        tag_34:\n            /* \"#utility.yul\":1056:1199   */\n          swap3\n          swap2\n          pop\n          pop\n          jump\t// out\n            /* \"#utility.yul\":1205:1712   */\n        tag_3:\n            /* \"#utility.yul\":1284:1290   */\n          0x00\n            /* \"#utility.yul\":1292:1298   */\n          dup1\n            /* \"#utility.yul\":1341:1343   */\n          0x40\n            /* \"#utility.yul\":1329:1338   */\n          dup4\n            /* \"#utility.yul\":1320:1327   */\n          dup6\n            /* \"#utility.yul\":1316:1339   */\n          sub\n            /* \"#utility.yul\":1312:1344   */\n          slt\n            /* \"#utility.yul\":1309:1428   */\n          iszero\n          tag_36\n          jumpi\n            /* \"#utility.yul\":1347:1426   */\n          tag_37\n          tag_8\n          jump\t// in\n        tag_37:\n            /* \"#utility.yul\":1309:1428   */\n        tag_36:\n            /* \"#utility.yul\":1467:1468   */\n          0x00\n            /* \"#utility.yul\":1492:1556   */\n          tag_38\n            /* \"#utility.yul\":1548:1555   */\n          dup6\n            /* \"#utility.yul\":1539:1545   */\n          dup3\n            /* \"#utility.yul\":1528:1537   */\n          dup7\n            /* \"#utility.yul\":1524:1546   */\n          add\n            /* \"#utility.yul\":1492:1556   */\n          tag_12\n          jump\t// in\n        tag_38:\n            /* \"#utility.yul\":1482:1556   */\n          swap3\n          pop\n            /* \"#utility.yul\":1438:1566   */\n          pop\n            /* \"#utility.yul\":1605:1607   */\n          0x20\n            /* \"#utility.yul\":1631:1695   */\n          tag_39\n            /* \"#utility.yul\":1687:1694   */\n          dup6\n            /* \"#utility.yul\":1678:1684   */\n          dup3\n            /* \"#utility.yul\":1667:1676   */\n          dup7\n            /* \"#utility.yul\":1663:1685   */\n          add\n            /* \"#utility.yul\":1631:1695   */\n          tag_16\n          jump\t// in\n        tag_39:\n            /* \"#utility.yul\":1621:1695   */\n          swap2\n          pop\n            /* \"#utility.yul\":1576:1705   */\n          pop\n            /* \"#utility.yul\":1205:1712   */\n          swap3\n          pop\n          swap3\n          swap1\n          pop\n          jump\t// out\n            /* \"Campaign.sol\":481:2576  contract Campaign {... */\n        tag_6:\n          dataSize(sub_0)\n          dup1\n          dataOffset(sub_0)\n          0x00\n          codecopy\n          0x00\n          return\n        stop\n\n        sub_0: assembly {\n                /* \"Campaign.sol\":481:2576  contract Campaign {... */\n              mstore(0x40, 0x80)\n              jumpi(tag_1, lt(calldatasize, 0x04))\n              shr(0xe0, calldataload(0x00))\n              dup1\n              0x81d12c58\n              gt\n              tag_12\n              jumpi\n              dup1\n              0x81d12c58\n              eq\n              tag_7\n              jumpi\n              dup1\n              0x8a9cfd55\n              eq\n              tag_8\n              jumpi\n              dup1\n              0x937e09b1\n              eq\n              tag_9\n              jumpi\n              dup1\n              0xd7bb99ba\n              eq\n              tag_10\n              jumpi\n              dup1\n              0xd7d1bbdb\n              eq\n              tag_11\n              jumpi\n              jump(tag_1)\n            tag_12:\n              dup1\n              0x03441006\n              eq\n              tag_2\n              jumpi\n              dup1\n              0x1f6d4942\n              eq\n              tag_3\n              jumpi\n              dup1\n              0x4051ddac\n              eq\n              tag_4\n              jumpi\n              dup1\n              0x481c6a75\n              eq\n              tag_5\n              jumpi\n              dup1\n              0x7569b3d7\n              eq\n              tag_6\n              jumpi\n            tag_1:\n              0x00\n              dup1\n              revert\n                /* \"Campaign.sol\":1998:2312  function finalizeRequest(uint index) public restricted {... */\n            tag_2:\n              callvalue\n              dup1\n              iszero\n              tag_13\n              jumpi\n              0x00\n              dup1\n              revert\n            tag_13:\n              pop\n              tag_14\n              0x04\n              dup1\n              calldatasize\n              sub\n              dup2\n              add\n              swap1\n              tag_15\n              swap2\n              swap1\n              tag_16\n              jump\t// in\n            tag_15:\n              tag_17\n              jump\t// in\n            tag_14:\n              stop\n                /* \"Campaign.sol\":874:918  mapping(address => bool) public contributors */\n            tag_3:\n              callvalue\n              dup1\n              iszero\n              tag_18\n              jumpi\n              0x00\n              dup1\n              revert\n            tag_18:\n              pop\n              tag_19\n              0x04\n              dup1\n              calldatasize\n              sub\n              dup2\n              add\n              swap1\n              tag_20\n              swap2\n              swap1\n              tag_21\n              jump\t// in\n            tag_20:\n              tag_22\n              jump\t// in\n            tag_19:\n              mload(0x40)\n              tag_23\n              swap2\n              swap1\n              tag_24\n              jump\t// in\n            tag_23:\n              mload(0x40)\n              dup1\n              swap2\n              sub\n              swap1\n              return\n                /* \"Campaign.sol\":2318:2574  function getSummary() public view returns (uint, uint, uint, uint, address) {... */\n            tag_4:\n              callvalue\n              dup1\n              iszero\n              tag_25\n              jumpi\n              0x00\n              dup1\n              revert\n            tag_25:\n              pop\n              tag_26\n              tag_27\n              jump\t// in\n            tag_26:\n              mload(0x40)\n              tag_28\n              swap6\n              swap5\n              swap4\n              swap3\n              swap2\n              swap1\n              tag_29\n              jump\t// in\n            tag_28:\n              mload(0x40)\n              dup1\n              swap2\n              sub\n              swap1\n              return\n                /* \"Campaign.sol\":728:750  address public manager */\n            tag_5:\n              callvalue\n              dup1\n              iszero\n              tag_30\n              jumpi\n              0x00\n              dup1\n              revert\n            tag_30:\n              pop\n              tag_31\n              tag_32\n              jump\t// in\n            tag_31:\n              mload(0x40)\n              tag_33\n              swap2\n              swap1\n              tag_34\n              jump\t// in\n            tag_33:\n              mload(0x40)\n              dup1\n              swap2\n              sub\n              swap1\n              return\n                /* \"Campaign.sol\":756:785  uint public contributorsCount */\n            tag_6:\n              callvalue\n              dup1\n              iszero\n              tag_35\n              jumpi\n              0x00\n              dup1\n              revert\n            tag_35:\n              pop\n              tag_36\n              tag_37\n              jump\t// in\n            tag_36:\n              mload(0x40)\n              tag_38\n              swap2\n              swap1\n              tag_39\n              jump\t// in\n            tag_38:\n              mload(0x40)\n              dup1\n              swap2\n              sub\n              swap1\n              return\n                /* \"Campaign.sol\":828:868  mapping(uint => Request) public requests */\n            tag_7:\n              callvalue\n              dup1\n              iszero\n              tag_40\n              jumpi\n              0x00\n              dup1\n              revert\n            tag_40:\n              pop\n              tag_41\n              0x04\n              dup1\n              calldatasize\n              sub\n              dup2\n              add\n              swap1\n              tag_42\n              swap2\n              swap1\n              tag_16\n              jump\t// in\n            tag_42:\n              tag_43\n              jump\t// in\n            tag_41:\n              mload(0x40)\n              tag_44\n              swap6\n              swap5\n              swap4\n              swap3\n              swap2\n              swap1\n              tag_45\n              jump\t// in\n            tag_44:\n              mload(0x40)\n              dup1\n              swap2\n              sub\n              swap1\n              return\n                /* \"Campaign.sol\":1344:1712  function createRequest(string memory description, uint value, address recipient) public restricted {... */\n            tag_8:\n              callvalue\n              dup1\n              iszero\n              tag_46\n              jumpi\n              0x00\n              dup1\n              revert\n            tag_46:\n              pop\n              tag_47\n              0x04\n              dup1\n              calldatasize\n              sub\n              dup2\n              add\n              swap1\n              tag_48\n              swap2\n              swap1\n              tag_49\n              jump\t// in\n            tag_48:\n              tag_50\n              jump\t// in\n            tag_47:\n              stop\n                /* \"Campaign.sol\":791:822  uint public minimumContribution */\n            tag_9:\n              callvalue\n              dup1\n              iszero\n              tag_51\n              jumpi\n              0x00\n              dup1\n              revert\n            tag_51:\n              pop\n              tag_52\n              tag_53\n              jump\t// in\n            tag_52:\n              mload(0x40)\n              tag_54\n              swap2\n              swap1\n              tag_39\n              jump\t// in\n            tag_54:\n              mload(0x40)\n              dup1\n              swap2\n              sub\n              swap1\n              return\n                /* \"Campaign.sol\":1173:1338  function contribute() public payable {... */\n            tag_10:\n              tag_55\n              tag_56\n              jump\t// in\n            tag_55:\n              stop\n                /* \"Campaign.sol\":1718:1992  function approveRequest(uint index) public {... */\n            tag_11:\n              callvalue\n              dup1\n              iszero\n              tag_57\n              jumpi\n              0x00\n              dup1\n              revert\n            tag_57:\n              pop\n              tag_58\n              0x04\n              dup1\n              calldatasize\n              sub\n              dup2\n              add\n              swap1\n              tag_59\n              swap2\n              swap1\n              tag_16\n              jump\t// in\n            tag_59:\n              tag_60\n              jump\t// in\n            tag_58:\n              stop\n                /* \"Campaign.sol\":1998:2312  function finalizeRequest(uint index) public restricted {... */\n            tag_17:\n                /* \"Campaign.sol\":979:986  manager */\n              0x01\n              0x00\n              swap1\n              sload\n              swap1\n              0x0100\n              exp\n              swap1\n              div\n              0xffffffffffffffffffffffffffffffffffffffff\n              and\n                /* \"Campaign.sol\":965:986  msg.sender == manager */\n              0xffffffffffffffffffffffffffffffffffffffff\n              and\n                /* \"Campaign.sol\":965:975  msg.sender */\n              caller\n                /* \"Campaign.sol\":965:986  msg.sender == manager */\n              0xffffffffffffffffffffffffffffffffffffffff\n              and\n              eq\n                /* \"Campaign.sol\":957:987  require(msg.sender == manager) */\n              tag_62\n              jumpi\n              0x00\n              dup1\n              revert\n            tag_62:\n                /* \"Campaign.sol\":2063:2086  Request storage request */\n              0x00\n                /* \"Campaign.sol\":2089:2097  requests */\n              0x04\n                /* \"Campaign.sol\":2089:2104  requests[index] */\n              0x00\n                /* \"Campaign.sol\":2098:2103  index */\n              dup4\n                /* \"Campaign.sol\":2089:2104  requests[index] */\n              dup2\n              mstore\n              0x20\n              add\n              swap1\n              dup2\n              mstore\n              0x20\n              add\n              0x00\n              keccak256\n                /* \"Campaign.sol\":2063:2104  Request storage request = requests[index] */\n              swap1\n              pop\n                /* \"Campaign.sol\":2124:2131  request */\n              dup1\n                /* \"Campaign.sol\":2124:2142  request.isComplete */\n              0x01\n              add\n              0x00\n              swap1\n              sload\n              swap1\n              0x0100\n              exp\n              swap1\n              div\n              0xff\n              and\n                /* \"Campaign.sol\":2123:2142  !request.isComplete */\n              iszero\n                /* \"Campaign.sol\":2115:2143  require(!request.isComplete) */\n              tag_64\n              jumpi\n              0x00\n              dup1\n              revert\n            tag_64:\n                /* \"Campaign.sol\":2206:2207  2 */\n              0x02\n                /* \"Campaign.sol\":2186:2203  contributorsCount */\n              dup1\n              sload\n                /* \"Campaign.sol\":2186:2207  contributorsCount / 2 */\n              tag_65\n              swap2\n              swap1\n              tag_66\n              jump\t// in\n            tag_65:\n                /* \"Campaign.sol\":2161:2168  request */\n              dup2\n                /* \"Campaign.sol\":2161:2182  request.approvalCount */\n              0x03\n              add\n              sload\n                /* \"Campaign.sol\":2161:2208  request.approvalCount > (contributorsCount / 2) */\n              gt\n                /* \"Campaign.sol\":2153:2209  require(request.approvalCount > (contributorsCount / 2)) */\n              tag_67\n              jumpi\n              0x00\n              dup1\n              revert\n            tag_67:\n                /* \"Campaign.sol\":2241:2245  true */\n              0x01\n                /* \"Campaign.sol\":2220:2227  request */\n              dup2\n                /* \"Campaign.sol\":2220:2238  request.isComplete */\n              0x01\n              add\n              0x00\n                /* \"Campaign.sol\":2220:2245  request.isComplete = true */\n              0x0100\n              exp\n              dup2\n              sload\n              dup2\n              0xff\n              mul\n              not\n              and\n              swap1\n              dup4\n              iszero\n              iszero\n              mul\n              or\n              swap1\n              sstore\n              pop\n                /* \"Campaign.sol\":2263:2270  request */\n              dup1\n                /* \"Campaign.sol\":2263:2280  request.recipient */\n              0x01\n              add\n              0x01\n              swap1\n              sload\n              swap1\n              0x0100\n              exp\n              swap1\n              div\n              0xffffffffffffffffffffffffffffffffffffffff\n              and\n                /* \"Campaign.sol\":2255:2290  payable(request.recipient).transfer */\n              0xffffffffffffffffffffffffffffffffffffffff\n              and\n                /* \"Campaign.sol\":2255:2305  payable(request.recipient).transfer(request.value) */\n              0x08fc\n                /* \"Campaign.sol\":2291:2298  request */\n              dup3\n                /* \"Campaign.sol\":2291:2304  request.value */\n              0x00\n              add\n              sload\n                /* \"Campaign.sol\":2255:2305  payable(request.recipient).transfer(request.value) */\n              swap1\n              dup2\n              iszero\n              mul\n              swap1\n              mload(0x40)\n              0x00\n              mload(0x40)\n              dup1\n              dup4\n              sub\n              dup2\n              dup6\n              dup9\n              dup9\n              call\n              swap4\n              pop\n              pop\n              pop\n              pop\n              iszero\n              dup1\n              iszero\n              tag_69\n              jumpi\n              returndatasize\n              0x00\n              dup1\n              returndatacopy\n              revert(0x00, returndatasize)\n            tag_69:\n              pop\n                /* \"Campaign.sol\":2053:2312  {... */\n              pop\n                /* \"Campaign.sol\":1998:2312  function finalizeRequest(uint index) public restricted {... */\n              pop\n              jump\t// out\n                /* \"Campaign.sol\":874:918  mapping(address => bool) public contributors */\n            tag_22:\n              mstore(0x20, 0x05)\n              dup1\n              0x00\n              mstore\n              keccak256(0x00, 0x40)\n              0x00\n              swap2\n              pop\n              sload\n              swap1\n              0x0100\n              exp\n              swap1\n              div\n              0xff\n              and\n              dup2\n              jump\t// out\n                /* \"Campaign.sol\":2318:2574  function getSummary() public view returns (uint, uint, uint, uint, address) {... */\n            tag_27:\n                /* \"Campaign.sol\":2361:2365  uint */\n              0x00\n                /* \"Campaign.sol\":2367:2371  uint */\n              dup1\n                /* \"Campaign.sol\":2373:2377  uint */\n              0x00\n                /* \"Campaign.sol\":2379:2383  uint */\n              dup1\n                /* \"Campaign.sol\":2385:2392  address */\n              0x00\n                /* \"Campaign.sol\":2425:2444  minimumContribution */\n              sload(0x03)\n                /* \"Campaign.sol\":2458:2479  address(this).balance */\n              selfbalance\n                /* \"Campaign.sol\":2493:2505  requestCount */\n              sload(0x00)\n                /* \"Campaign.sol\":2519:2536  contributorsCount */\n              sload(0x02)\n                /* \"Campaign.sol\":2550:2557  manager */\n              0x01\n              0x00\n              swap1\n              sload\n              swap1\n              0x0100\n              exp\n              swap1\n              div\n              0xffffffffffffffffffffffffffffffffffffffff\n              and\n                /* \"Campaign.sol\":2404:2567  return (... */\n              swap5\n              pop\n              swap5\n              pop\n              swap5\n              pop\n              swap5\n              pop\n              swap5\n              pop\n                /* \"Campaign.sol\":2318:2574  function getSummary() public view returns (uint, uint, uint, uint, address) {... */\n              swap1\n              swap2\n              swap3\n              swap4\n              swap5\n              jump\t// out\n                /* \"Campaign.sol\":728:750  address public manager */\n            tag_32:\n              0x01\n              0x00\n              swap1\n              sload\n              swap1\n              0x0100\n              exp\n              swap1\n              div\n              0xffffffffffffffffffffffffffffffffffffffff\n              and\n              dup2\n              jump\t// out\n                /* \"Campaign.sol\":756:785  uint public contributorsCount */\n            tag_37:\n              sload(0x02)\n              dup2\n              jump\t// out\n                /* \"Campaign.sol\":828:868  mapping(uint => Request) public requests */\n            tag_43:\n              mstore(0x20, 0x04)\n              dup1\n              0x00\n              mstore\n              keccak256(0x00, 0x40)\n              0x00\n              swap2\n              pop\n              swap1\n              pop\n              dup1\n              0x00\n              add\n              sload\n              swap1\n              dup1\n              0x01\n              add\n              0x00\n              swap1\n              sload\n              swap1\n              0x0100\n              exp\n              swap1\n              div\n              0xff\n              and\n              swap1\n              dup1\n              0x01\n              add\n              0x01\n              swap1\n              sload\n              swap1\n              0x0100\n              exp\n              swap1\n              div\n              0xffffffffffffffffffffffffffffffffffffffff\n              and\n              swap1\n              dup1\n              0x02\n              add\n              dup1\n              sload\n              tag_71\n              swap1\n              tag_72\n              jump\t// in\n            tag_71:\n              dup1\n              0x1f\n              add\n              0x20\n              dup1\n              swap2\n              div\n              mul\n              0x20\n              add\n              mload(0x40)\n              swap1\n              dup2\n              add\n              0x40\n              mstore\n              dup1\n              swap3\n              swap2\n              swap1\n              dup2\n              dup2\n              mstore\n              0x20\n              add\n              dup3\n              dup1\n              sload\n              tag_73\n              swap1\n              tag_72\n              jump\t// in\n            tag_73:\n              dup1\n              iszero\n              tag_74\n              jumpi\n              dup1\n              0x1f\n              lt\n              tag_75\n              jumpi\n              0x0100\n              dup1\n              dup4\n              sload\n              div\n              mul\n              dup4\n              mstore\n              swap2\n              0x20\n              add\n              swap2\n              jump(tag_74)\n            tag_75:\n              dup3\n              add\n              swap2\n              swap1\n              0x00\n              mstore\n              keccak256(0x00, 0x20)\n              swap1\n            tag_76:\n              dup2\n              sload\n              dup2\n              mstore\n              swap1\n              0x01\n              add\n              swap1\n              0x20\n              add\n              dup1\n              dup4\n              gt\n              tag_76\n              jumpi\n              dup3\n              swap1\n              sub\n              0x1f\n              and\n              dup3\n              add\n              swap2\n            tag_74:\n              pop\n              pop\n              pop\n              pop\n              pop\n              swap1\n              dup1\n              0x03\n              add\n              sload\n              swap1\n              pop\n              dup6\n              jump\t// out\n                /* \"Campaign.sol\":1344:1712  function createRequest(string memory description, uint value, address recipient) public restricted {... */\n            tag_50:\n                /* \"Campaign.sol\":979:986  manager */\n              0x01\n              0x00\n              swap1\n              sload\n              swap1\n              0x0100\n              exp\n              swap1\n              div\n              0xffffffffffffffffffffffffffffffffffffffff\n              and\n                /* \"Campaign.sol\":965:986  msg.sender == manager */\n              0xffffffffffffffffffffffffffffffffffffffff\n              and\n                /* \"Campaign.sol\":965:975  msg.sender */\n              caller\n                /* \"Campaign.sol\":965:986  msg.sender == manager */\n              0xffffffffffffffffffffffffffffffffffffffff\n              and\n              eq\n                /* \"Campaign.sol\":957:987  require(msg.sender == manager) */\n              tag_78\n              jumpi\n              0x00\n              dup1\n              revert\n            tag_78:\n                /* \"Campaign.sol\":1453:1479  Request storage newRequest */\n              0x00\n                /* \"Campaign.sol\":1482:1490  requests */\n              0x04\n                /* \"Campaign.sol\":1482:1506  requests[requestCount++] */\n              0x00\n                /* \"Campaign.sol\":1491:1503  requestCount */\n              dup1\n              0x00\n                /* \"Campaign.sol\":1491:1505  requestCount++ */\n              dup2\n              sload\n              dup1\n              swap3\n              swap2\n              swap1\n              tag_80\n              swap1\n              tag_81\n              jump\t// in\n            tag_80:\n              swap2\n              swap1\n              pop\n              sstore\n                /* \"Campaign.sol\":1482:1506  requests[requestCount++] */\n              dup2\n              mstore\n              0x20\n              add\n              swap1\n              dup2\n              mstore\n              0x20\n              add\n              0x00\n              keccak256\n                /* \"Campaign.sol\":1453:1506  Request storage newRequest = requests[requestCount++] */\n              swap1\n              pop\n                /* \"Campaign.sol\":1535:1540  value */\n              dup3\n                /* \"Campaign.sol\":1516:1526  newRequest */\n              dup2\n                /* \"Campaign.sol\":1516:1532  newRequest.value */\n              0x00\n              add\n                /* \"Campaign.sol\":1516:1540  newRequest.value = value */\n              dup2\n              swap1\n              sstore\n              pop\n                /* \"Campaign.sol\":1577:1578  0 */\n              0x00\n                /* \"Campaign.sol\":1550:1560  newRequest */\n              dup2\n                /* \"Campaign.sol\":1550:1574  newRequest.approvalCount */\n              0x03\n              add\n                /* \"Campaign.sol\":1550:1578  newRequest.approvalCount = 0 */\n              dup2\n              swap1\n              sstore\n              pop\n                /* \"Campaign.sol\":1612:1617  false */\n              0x00\n                /* \"Campaign.sol\":1588:1598  newRequest */\n              dup2\n                /* \"Campaign.sol\":1588:1609  newRequest.isComplete */\n              0x01\n              add\n              0x00\n                /* \"Campaign.sol\":1588:1617  newRequest.isComplete = false */\n              0x0100\n              exp\n              dup2\n              sload\n              dup2\n              0xff\n              mul\n              not\n              and\n              swap1\n              dup4\n              iszero\n              iszero\n              mul\n              or\n              swap1\n              sstore\n              pop\n                /* \"Campaign.sol\":1650:1659  recipient */\n              dup2\n                /* \"Campaign.sol\":1627:1637  newRequest */\n              dup2\n                /* \"Campaign.sol\":1627:1647  newRequest.recipient */\n              0x01\n              add\n              0x01\n                /* \"Campaign.sol\":1627:1659  newRequest.recipient = recipient */\n              0x0100\n              exp\n              dup2\n              sload\n              dup2\n              0xffffffffffffffffffffffffffffffffffffffff\n              mul\n              not\n              and\n              swap1\n              dup4\n              0xffffffffffffffffffffffffffffffffffffffff\n              and\n              mul\n              or\n              swap1\n              sstore\n              pop\n                /* \"Campaign.sol\":1694:1705  description */\n              dup4\n                /* \"Campaign.sol\":1669:1679  newRequest */\n              dup2\n                /* \"Campaign.sol\":1669:1691  newRequest.description */\n              0x02\n              add\n                /* \"Campaign.sol\":1669:1705  newRequest.description = description */\n              swap1\n              dup2\n              tag_82\n              swap2\n              swap1\n              tag_83\n              jump\t// in\n            tag_82:\n              pop\n                /* \"Campaign.sol\":1443:1712  {... */\n              pop\n                /* \"Campaign.sol\":1344:1712  function createRequest(string memory description, uint value, address recipient) public restricted {... */\n              pop\n              pop\n              pop\n              jump\t// out\n                /* \"Campaign.sol\":791:822  uint public minimumContribution */\n            tag_53:\n              sload(0x03)\n              dup2\n              jump\t// out\n                /* \"Campaign.sol\":1173:1338  function contribute() public payable {... */\n            tag_56:\n                /* \"Campaign.sol\":1240:1259  minimumContribution */\n              sload(0x03)\n                /* \"Campaign.sol\":1228:1237  msg.value */\n              callvalue\n                /* \"Campaign.sol\":1228:1259  msg.value > minimumContribution */\n              gt\n                /* \"Campaign.sol\":1220:1260  require(msg.value > minimumContribution) */\n              tag_85\n              jumpi\n              0x00\n              dup1\n              revert\n            tag_85:\n                /* \"Campaign.sol\":1298:1302  true */\n              0x01\n                /* \"Campaign.sol\":1271:1283  contributors */\n              0x05\n                /* \"Campaign.sol\":1271:1295  contributors[msg.sender] */\n              0x00\n                /* \"Campaign.sol\":1284:1294  msg.sender */\n              caller\n                /* \"Campaign.sol\":1271:1295  contributors[msg.sender] */\n              0xffffffffffffffffffffffffffffffffffffffff\n              and\n              0xffffffffffffffffffffffffffffffffffffffff\n              and\n              dup2\n              mstore\n              0x20\n              add\n              swap1\n              dup2\n              mstore\n              0x20\n              add\n              0x00\n              keccak256\n              0x00\n                /* \"Campaign.sol\":1271:1302  contributors[msg.sender] = true */\n              0x0100\n              exp\n              dup2\n              sload\n              dup2\n              0xff\n              mul\n              not\n              and\n              swap1\n              dup4\n              iszero\n              iszero\n              mul\n              or\n              swap1\n              sstore\n              pop\n                /* \"Campaign.sol\":1312:1329  contributorsCount */\n              0x02\n              0x00\n                /* \"Campaign.sol\":1312:1331  contributorsCount++ */\n              dup2\n              sload\n              dup1\n              swap3\n              swap2\n              swap1\n              tag_86\n              swap1\n              tag_81\n              jump\t// in\n            tag_86:\n              swap2\n              swap1\n              pop\n              sstore\n              pop\n                /* \"Campaign.sol\":1173:1338  function contribute() public payable {... */\n              jump\t// out\n                /* \"Campaign.sol\":1718:1992  function approveRequest(uint index) public {... */\n            tag_60:\n                /* \"Campaign.sol\":1771:1794  Request storage request */\n              0x00\n                /* \"Campaign.sol\":1797:1805  requests */\n              0x04\n                /* \"Campaign.sol\":1797:1812  requests[index] */\n              0x00\n                /* \"Campaign.sol\":1806:1811  index */\n              dup4\n                /* \"Campaign.sol\":1797:1812  requests[index] */\n              dup2\n              mstore\n              0x20\n              add\n              swap1\n              dup2\n              mstore\n              0x20\n              add\n              0x00\n              keccak256\n                /* \"Campaign.sol\":1771:1812  Request storage request = requests[index] */\n              swap1\n              pop\n                /* \"Campaign.sol\":1831:1843  contributors */\n              0x05\n                /* \"Campaign.sol\":1831:1855  contributors[msg.sender] */\n              0x00\n                /* \"Campaign.sol\":1844:1854  msg.sender */\n              caller\n                /* \"Campaign.sol\":1831:1855  contributors[msg.sender] */\n              0xffffffffffffffffffffffffffffffffffffffff\n              and\n              0xffffffffffffffffffffffffffffffffffffffff\n              and\n              dup2\n              mstore\n              0x20\n              add\n              swap1\n              dup2\n              mstore\n              0x20\n              add\n              0x00\n              keccak256\n              0x00\n              swap1\n              sload\n              swap1\n              0x0100\n              exp\n              swap1\n              div\n              0xff\n              and\n                /* \"Campaign.sol\":1823:1856  require(contributors[msg.sender]) */\n              tag_88\n              jumpi\n              0x00\n              dup1\n              revert\n            tag_88:\n                /* \"Campaign.sol\":1875:1882  request */\n              dup1\n                /* \"Campaign.sol\":1875:1892  request.approvals */\n              0x04\n              add\n                /* \"Campaign.sol\":1875:1904  request.approvals[msg.sender] */\n              0x00\n                /* \"Campaign.sol\":1893:1903  msg.sender */\n              caller\n                /* \"Campaign.sol\":1875:1904  request.approvals[msg.sender] */\n              0xffffffffffffffffffffffffffffffffffffffff\n              and\n              0xffffffffffffffffffffffffffffffffffffffff\n              and\n              dup2\n              mstore\n              0x20\n              add\n              swap1\n              dup2\n              mstore\n              0x20\n              add\n              0x00\n              keccak256\n              0x00\n              swap1\n              sload\n              swap1\n              0x0100\n              exp\n              swap1\n              div\n              0xff\n              and\n                /* \"Campaign.sol\":1874:1904  !request.approvals[msg.sender] */\n              iszero\n                /* \"Campaign.sol\":1866:1905  require(!request.approvals[msg.sender]) */\n              tag_89\n              jumpi\n              0x00\n              dup1\n              revert\n            tag_89:\n                /* \"Campaign.sol\":1916:1923  request */\n              dup1\n                /* \"Campaign.sol\":1916:1937  request.approvalCount */\n              0x03\n              add\n              0x00\n                /* \"Campaign.sol\":1916:1939  request.approvalCount++ */\n              dup2\n              sload\n              dup1\n              swap3\n              swap2\n              swap1\n              tag_90\n              swap1\n              tag_81\n              jump\t// in\n            tag_90:\n              swap2\n              swap1\n              pop\n              sstore\n              pop\n                /* \"Campaign.sol\":1981:1985  true */\n              0x01\n                /* \"Campaign.sol\":1949:1956  request */\n              dup2\n                /* \"Campaign.sol\":1949:1966  request.approvals */\n              0x04\n              add\n                /* \"Campaign.sol\":1949:1978  request.approvals[msg.sender] */\n              0x00\n                /* \"Campaign.sol\":1967:1977  msg.sender */\n              caller\n                /* \"Campaign.sol\":1949:1978  request.approvals[msg.sender] */\n              0xffffffffffffffffffffffffffffffffffffffff\n              and\n              0xffffffffffffffffffffffffffffffffffffffff\n              and\n              dup2\n              mstore\n              0x20\n              add\n              swap1\n              dup2\n              mstore\n              0x20\n              add\n              0x00\n              keccak256\n              0x00\n                /* \"Campaign.sol\":1949:1985  request.approvals[msg.sender] = true */\n              0x0100\n              exp\n              dup2\n              sload\n              dup2\n              0xff\n              mul\n              not\n              and\n              swap1\n              dup4\n              iszero\n              iszero\n              mul\n              or\n              swap1\n              sstore\n              pop\n                /* \"Campaign.sol\":1761:1992  {... */\n              pop\n                /* \"Campaign.sol\":1718:1992  function approveRequest(uint index) public {... */\n              pop\n              jump\t// out\n                /* \"#utility.yul\":7:82   */\n            tag_91:\n                /* \"#utility.yul\":40:46   */\n              0x00\n                /* \"#utility.yul\":73:75   */\n              0x40\n                /* \"#utility.yul\":67:76   */\n              mload\n                /* \"#utility.yul\":57:76   */\n              swap1\n              pop\n                /* \"#utility.yul\":7:82   */\n              swap1\n              jump\t// out\n                /* \"#utility.yul\":88:205   */\n            tag_92:\n                /* \"#utility.yul\":197:198   */\n              0x00\n                /* \"#utility.yul\":194:195   */\n              dup1\n                /* \"#utility.yul\":187:199   */\n              revert\n                /* \"#utility.yul\":211:328   */\n            tag_93:\n                /* \"#utility.yul\":320:321   */\n              0x00\n                /* \"#utility.yul\":317:318   */\n              dup1\n                /* \"#utility.yul\":310:322   */\n              revert\n                /* \"#utility.yul\":334:411   */\n            tag_94:\n                /* \"#utility.yul\":371:378   */\n              0x00\n                /* \"#utility.yul\":400:405   */\n              dup2\n                /* \"#utility.yul\":389:405   */\n              swap1\n              pop\n                /* \"#utility.yul\":334:411   */\n              swap2\n              swap1\n              pop\n              jump\t// out\n                /* \"#utility.yul\":417:539   */\n            tag_95:\n                /* \"#utility.yul\":490:514   */\n              tag_143\n                /* \"#utility.yul\":508:513   */\n              dup2\n                /* \"#utility.yul\":490:514   */\n              tag_94\n              jump\t// in\n            tag_143:\n                /* \"#utility.yul\":483:488   */\n              dup2\n                /* \"#utility.yul\":480:515   */\n              eq\n                /* \"#utility.yul\":470:533   */\n              tag_144\n              jumpi\n                /* \"#utility.yul\":529:530   */\n              0x00\n                /* \"#utility.yul\":526:527   */\n              dup1\n                /* \"#utility.yul\":519:531   */\n              revert\n                /* \"#utility.yul\":470:533   */\n            tag_144:\n                /* \"#utility.yul\":417:539   */\n              pop\n              jump\t// out\n                /* \"#utility.yul\":545:684   */\n            tag_96:\n                /* \"#utility.yul\":591:596   */\n              0x00\n                /* \"#utility.yul\":629:635   */\n              dup2\n                /* \"#utility.yul\":616:636   */\n              calldataload\n                /* \"#utility.yul\":607:636   */\n              swap1\n              pop\n                /* \"#utility.yul\":645:678   */\n              tag_146\n                /* \"#utility.yul\":672:677   */\n              dup2\n                /* \"#utility.yul\":645:678   */\n              tag_95\n              jump\t// in\n            tag_146:\n                /* \"#utility.yul\":545:684   */\n              swap3\n              swap2\n              pop\n              pop\n              jump\t// out\n                /* \"#utility.yul\":690:1019   */\n            tag_16:\n                /* \"#utility.yul\":749:755   */\n              0x00\n                /* \"#utility.yul\":798:800   */\n              0x20\n                /* \"#utility.yul\":786:795   */\n              dup3\n                /* \"#utility.yul\":777:784   */\n              dup5\n                /* \"#utility.yul\":773:796   */\n              sub\n                /* \"#utility.yul\":769:801   */\n              slt\n                /* \"#utility.yul\":766:885   */\n              iszero\n              tag_148\n              jumpi\n                /* \"#utility.yul\":804:883   */\n              tag_149\n              tag_92\n              jump\t// in\n            tag_149:\n                /* \"#utility.yul\":766:885   */\n            tag_148:\n                /* \"#utility.yul\":924:925   */\n              0x00\n                /* \"#utility.yul\":949:1002   */\n              tag_150\n                /* \"#utility.yul\":994:1001   */\n              dup5\n                /* \"#utility.yul\":985:991   */\n              dup3\n                /* \"#utility.yul\":974:983   */\n              dup6\n                /* \"#utility.yul\":970:992   */\n              add\n                /* \"#utility.yul\":949:1002   */\n              tag_96\n              jump\t// in\n            tag_150:\n                /* \"#utility.yul\":939:1002   */\n              swap2\n              pop\n                /* \"#utility.yul\":895:1012   */\n              pop\n                /* \"#utility.yul\":690:1019   */\n              swap3\n              swap2\n              pop\n              pop\n              jump\t// out\n                /* \"#utility.yul\":1025:1151   */\n            tag_97:\n                /* \"#utility.yul\":1062:1069   */\n              0x00\n                /* \"#utility.yul\":1102:1144   */\n              0xffffffffffffffffffffffffffffffffffffffff\n                /* \"#utility.yul\":1095:1100   */\n              dup3\n                /* \"#utility.yul\":1091:1145   */\n              and\n                /* \"#utility.yul\":1080:1145   */\n              swap1\n              pop\n                /* \"#utility.yul\":1025:1151   */\n              swap2\n              swap1\n              pop\n              jump\t// out\n                /* \"#utility.yul\":1157:1253   */\n            tag_98:\n                /* \"#utility.yul\":1194:1201   */\n              0x00\n                /* \"#utility.yul\":1223:1247   */\n              tag_153\n                /* \"#utility.yul\":1241:1246   */\n              dup3\n                /* \"#utility.yul\":1223:1247   */\n              tag_97\n              jump\t// in\n            tag_153:\n                /* \"#utility.yul\":1212:1247   */\n              swap1\n              pop\n                /* \"#utility.yul\":1157:1253   */\n              swap2\n              swap1\n              pop\n              jump\t// out\n                /* \"#utility.yul\":1259:1381   */\n            tag_99:\n                /* \"#utility.yul\":1332:1356   */\n              tag_155\n                /* \"#utility.yul\":1350:1355   */\n              dup2\n                /* \"#utility.yul\":1332:1356   */\n              tag_98\n              jump\t// in\n            tag_155:\n                /* \"#utility.yul\":1325:1330   */\n              dup2\n                /* \"#utility.yul\":1322:1357   */\n              eq\n                /* \"#utility.yul\":1312:1375   */\n              tag_156\n              jumpi\n                /* \"#utility.yul\":1371:1372   */\n              0x00\n                /* \"#utility.yul\":1368:1369   */\n              dup1\n                /* \"#utility.yul\":1361:1373   */\n              revert\n                /* \"#utility.yul\":1312:1375   */\n            tag_156:\n                /* \"#utility.yul\":1259:1381   */\n              pop\n              jump\t// out\n                /* \"#utility.yul\":1387:1526   */\n            tag_100:\n                /* \"#utility.yul\":1433:1438   */\n              0x00\n                /* \"#utility.yul\":1471:1477   */\n              dup2\n                /* \"#utility.yul\":1458:1478   */\n              calldataload\n                /* \"#utility.yul\":1449:1478   */\n              swap1\n              pop\n                /* \"#utility.yul\":1487:1520   */\n              tag_158\n                /* \"#utility.yul\":1514:1519   */\n              dup2\n                /* \"#utility.yul\":1487:1520   */\n              tag_99\n              jump\t// in\n            tag_158:\n                /* \"#utility.yul\":1387:1526   */\n              swap3\n              swap2\n              pop\n              pop\n              jump\t// out\n                /* \"#utility.yul\":1532:1861   */\n            tag_21:\n                /* \"#utility.yul\":1591:1597   */\n              0x00\n                /* \"#utility.yul\":1640:1642   */\n              0x20\n                /* \"#utility.yul\":1628:1637   */\n              dup3\n                /* \"#utility.yul\":1619:1626   */\n              dup5\n                /* \"#utility.yul\":1615:1638   */\n              sub\n                /* \"#utility.yul\":1611:1643   */\n              slt\n                /* \"#utility.yul\":1608:1727   */\n              iszero\n              tag_160\n              jumpi\n                /* \"#utility.yul\":1646:1725   */\n              tag_161\n              tag_92\n              jump\t// in\n            tag_161:\n                /* \"#utility.yul\":1608:1727   */\n            tag_160:\n                /* \"#utility.yul\":1766:1767   */\n              0x00\n                /* \"#utility.yul\":1791:1844   */\n              tag_162\n                /* \"#utility.yul\":1836:1843   */\n              dup5\n                /* \"#utility.yul\":1827:1833   */\n              dup3\n                /* \"#utility.yul\":1816:1825   */\n              dup6\n                /* \"#utility.yul\":1812:1834   */\n              add\n                /* \"#utility.yul\":1791:1844   */\n              tag_100\n              jump\t// in\n            tag_162:\n                /* \"#utility.yul\":1781:1844   */\n              swap2\n              pop\n                /* \"#utility.yul\":1737:1854   */\n              pop\n                /* \"#utility.yul\":1532:1861   */\n              swap3\n              swap2\n              pop\n              pop\n              jump\t// out\n                /* \"#utility.yul\":1867:1957   */\n            tag_101:\n                /* \"#utility.yul\":1901:1908   */\n              0x00\n                /* \"#utility.yul\":1944:1949   */\n              dup2\n                /* \"#utility.yul\":1937:1950   */\n              iszero\n                /* \"#utility.yul\":1930:1951   */\n              iszero\n                /* \"#utility.yul\":1919:1951   */\n              swap1\n              pop\n                /* \"#utility.yul\":1867:1957   */\n              swap2\n              swap1\n              pop\n              jump\t// out\n                /* \"#utility.yul\":1963:2072   */\n            tag_102:\n                /* \"#utility.yul\":2044:2065   */\n              tag_165\n                /* \"#utility.yul\":2059:2064   */\n              dup2\n                /* \"#utility.yul\":2044:2065   */\n              tag_101\n              jump\t// in\n            tag_165:\n                /* \"#utility.yul\":2039:2042   */\n              dup3\n                /* \"#utility.yul\":2032:2066   */\n              mstore\n                /* \"#utility.yul\":1963:2072   */\n              pop\n              pop\n              jump\t// out\n                /* \"#utility.yul\":2078:2288   */\n            tag_24:\n                /* \"#utility.yul\":2165:2169   */\n              0x00\n                /* \"#utility.yul\":2203:2205   */\n              0x20\n                /* \"#utility.yul\":2192:2201   */\n              dup3\n                /* \"#utility.yul\":2188:2206   */\n              add\n                /* \"#utility.yul\":2180:2206   */\n              swap1\n              pop\n                /* \"#utility.yul\":2216:2281   */\n              tag_167\n                /* \"#utility.yul\":2278:2279   */\n              0x00\n                /* \"#utility.yul\":2267:2276   */\n              dup4\n                /* \"#utility.yul\":2263:2280   */\n              add\n                /* \"#utility.yul\":2254:2260   */\n              dup5\n                /* \"#utility.yul\":2216:2281   */\n              tag_102\n              jump\t// in\n            tag_167:\n                /* \"#utility.yul\":2078:2288   */\n              swap3\n              swap2\n              pop\n              pop\n              jump\t// out\n                /* \"#utility.yul\":2294:2412   */\n            tag_103:\n                /* \"#utility.yul\":2381:2405   */\n              tag_169\n                /* \"#utility.yul\":2399:2404   */\n              dup2\n                /* \"#utility.yul\":2381:2405   */\n              tag_94\n              jump\t// in\n            tag_169:\n                /* \"#utility.yul\":2376:2379   */\n              dup3\n                /* \"#utility.yul\":2369:2406   */\n              mstore\n                /* \"#utility.yul\":2294:2412   */\n              pop\n              pop\n              jump\t// out\n                /* \"#utility.yul\":2418:2536   */\n            tag_104:\n                /* \"#utility.yul\":2505:2529   */\n              tag_171\n                /* \"#utility.yul\":2523:2528   */\n              dup2\n                /* \"#utility.yul\":2505:2529   */\n              tag_98\n              jump\t// in\n            tag_171:\n                /* \"#utility.yul\":2500:2503   */\n              dup3\n                /* \"#utility.yul\":2493:2530   */\n              mstore\n                /* \"#utility.yul\":2418:2536   */\n              pop\n              pop\n              jump\t// out\n                /* \"#utility.yul\":2542:3206   */\n            tag_29:\n                /* \"#utility.yul\":2747:2751   */\n              0x00\n                /* \"#utility.yul\":2785:2788   */\n              0xa0\n                /* \"#utility.yul\":2774:2783   */\n              dup3\n                /* \"#utility.yul\":2770:2789   */\n              add\n                /* \"#utility.yul\":2762:2789   */\n              swap1\n              pop\n                /* \"#utility.yul\":2799:2870   */\n              tag_173\n                /* \"#utility.yul\":2867:2868   */\n              0x00\n                /* \"#utility.yul\":2856:2865   */\n              dup4\n                /* \"#utility.yul\":2852:2869   */\n              add\n                /* \"#utility.yul\":2843:2849   */\n              dup9\n                /* \"#utility.yul\":2799:2870   */\n              tag_103\n              jump\t// in\n            tag_173:\n                /* \"#utility.yul\":2880:2952   */\n              tag_174\n                /* \"#utility.yul\":2948:2950   */\n              0x20\n                /* \"#utility.yul\":2937:2946   */\n              dup4\n                /* \"#utility.yul\":2933:2951   */\n              add\n                /* \"#utility.yul\":2924:2930   */\n              dup8\n                /* \"#utility.yul\":2880:2952   */\n              tag_103\n              jump\t// in\n            tag_174:\n                /* \"#utility.yul\":2962:3034   */\n              tag_175\n                /* \"#utility.yul\":3030:3032   */\n              0x40\n                /* \"#utility.yul\":3019:3028   */\n              dup4\n                /* \"#utility.yul\":3015:3033   */\n              add\n                /* \"#utility.yul\":3006:3012   */\n              dup7\n                /* \"#utility.yul\":2962:3034   */\n              tag_103\n              jump\t// in\n            tag_175:\n                /* \"#utility.yul\":3044:3116   */\n              tag_176\n                /* \"#utility.yul\":3112:3114   */\n              0x60\n                /* \"#utility.yul\":3101:3110   */\n              dup4\n                /* \"#utility.yul\":3097:3115   */\n              add\n                /* \"#utility.yul\":3088:3094   */\n              dup6\n                /* \"#utility.yul\":3044:3116   */\n              tag_103\n              jump\t// in\n            tag_176:\n                /* \"#utility.yul\":3126:3199   */\n              tag_177\n                /* \"#utility.yul\":3194:3197   */\n              0x80\n                /* \"#utility.yul\":3183:3192   */\n              dup4\n                /* \"#utility.yul\":3179:3198   */\n              add\n                /* \"#utility.yul\":3170:3176   */\n              dup5\n                /* \"#utility.yul\":3126:3199   */\n              tag_104\n              jump\t// in\n            tag_177:\n                /* \"#utility.yul\":2542:3206   */\n              swap7\n              swap6\n              pop\n              pop\n              pop\n              pop\n              pop\n              pop\n              jump\t// out\n                /* \"#utility.yul\":3212:3434   */\n            tag_34:\n                /* \"#utility.yul\":3305:3309   */\n              0x00\n                /* \"#utility.yul\":3343:3345   */\n              0x20\n                /* \"#utility.yul\":3332:3341   */\n              dup3\n                /* \"#utility.yul\":3328:3346   */\n              add\n                /* \"#utility.yul\":3320:3346   */\n              swap1\n              pop\n                /* \"#utility.yul\":3356:3427   */\n              tag_179\n                /* \"#utility.yul\":3424:3425   */\n              0x00\n                /* \"#utility.yul\":3413:3422   */\n              dup4\n                /* \"#utility.yul\":3409:3426   */\n              add\n                /* \"#utility.yul\":3400:3406   */\n              dup5\n                /* \"#utility.yul\":3356:3427   */\n              tag_104\n              jump\t// in\n            tag_179:\n                /* \"#utility.yul\":3212:3434   */\n              swap3\n              swap2\n              pop\n              pop\n              jump\t// out\n                /* \"#utility.yul\":3440:3662   */\n            tag_39:\n                /* \"#utility.yul\":3533:3537   */\n              0x00\n                /* \"#utility.yul\":3571:3573   */\n              0x20\n                /* \"#utility.yul\":3560:3569   */\n              dup3\n                /* \"#utility.yul\":3556:3574   */\n              add\n                /* \"#utility.yul\":3548:3574   */\n              swap1\n              pop\n                /* \"#utility.yul\":3584:3655   */\n              tag_181\n                /* \"#utility.yul\":3652:3653   */\n              0x00\n                /* \"#utility.yul\":3641:3650   */\n              dup4\n                /* \"#utility.yul\":3637:3654   */\n              add\n                /* \"#utility.yul\":3628:3634   */\n              dup5\n                /* \"#utility.yul\":3584:3655   */\n              tag_103\n              jump\t// in\n            tag_181:\n                /* \"#utility.yul\":3440:3662   */\n              swap3\n              swap2\n              pop\n              pop\n              jump\t// out\n                /* \"#utility.yul\":3668:3767   */\n            tag_105:\n                /* \"#utility.yul\":3720:3726   */\n              0x00\n                /* \"#utility.yul\":3754:3759   */\n              dup2\n                /* \"#utility.yul\":3748:3760   */\n              mload\n                /* \"#utility.yul\":3738:3760   */\n              swap1\n              pop\n                /* \"#utility.yul\":3668:3767   */\n              swap2\n              swap1\n              pop\n              jump\t// out\n                /* \"#utility.yul\":3773:3942   */\n            tag_106:\n                /* \"#utility.yul\":3857:3868   */\n              0x00\n                /* \"#utility.yul\":3891:3897   */\n              dup3\n                /* \"#utility.yul\":3886:3889   */\n              dup3\n                /* \"#utility.yul\":3879:3898   */\n              mstore\n                /* \"#utility.yul\":3931:3935   */\n              0x20\n                /* \"#utility.yul\":3926:3929   */\n              dup3\n                /* \"#utility.yul\":3922:3936   */\n              add\n                /* \"#utility.yul\":3907:3936   */\n              swap1\n              pop\n                /* \"#utility.yul\":3773:3942   */\n              swap3\n              swap2\n              pop\n              pop\n              jump\t// out\n                /* \"#utility.yul\":3948:4194   */\n            tag_107:\n                /* \"#utility.yul\":4029:4030   */\n              0x00\n                /* \"#utility.yul\":4039:4152   */\n            tag_185:\n                /* \"#utility.yul\":4053:4059   */\n              dup4\n                /* \"#utility.yul\":4050:4051   */\n              dup2\n                /* \"#utility.yul\":4047:4060   */\n              lt\n                /* \"#utility.yul\":4039:4152   */\n              iszero\n              tag_187\n              jumpi\n                /* \"#utility.yul\":4138:4139   */\n              dup1\n                /* \"#utility.yul\":4133:4136   */\n              dup3\n                /* \"#utility.yul\":4129:4140   */\n              add\n                /* \"#utility.yul\":4123:4141   */\n              mload\n                /* \"#utility.yul\":4119:4120   */\n              dup2\n                /* \"#utility.yul\":4114:4117   */\n              dup5\n                /* \"#utility.yul\":4110:4121   */\n              add\n                /* \"#utility.yul\":4103:4142   */\n              mstore\n                /* \"#utility.yul\":4075:4077   */\n              0x20\n                /* \"#utility.yul\":4072:4073   */\n              dup2\n                /* \"#utility.yul\":4068:4078   */\n              add\n                /* \"#utility.yul\":4063:4078   */\n              swap1\n              pop\n                /* \"#utility.yul\":4039:4152   */\n              jump(tag_185)\n            tag_187:\n                /* \"#utility.yul\":4186:4187   */\n              0x00\n                /* \"#utility.yul\":4177:4183   */\n              dup5\n                /* \"#utility.yul\":4172:4175   */\n              dup5\n                /* \"#utility.yul\":4168:4184   */\n              add\n                /* \"#utility.yul\":4161:4188   */\n              mstore\n                /* \"#utility.yul\":4010:4194   */\n              pop\n                /* \"#utility.yul\":3948:4194   */\n              pop\n              pop\n              pop\n              jump\t// out\n                /* \"#utility.yul\":4200:4302   */\n            tag_108:\n                /* \"#utility.yul\":4241:4247   */\n              0x00\n                /* \"#utility.yul\":4292:4294   */\n              0x1f\n                /* \"#utility.yul\":4288:4295   */\n              not\n                /* \"#utility.yul\":4283:4285   */\n              0x1f\n                /* \"#utility.yul\":4276:4281   */\n              dup4\n                /* \"#utility.yul\":4272:4286   */\n              add\n                /* \"#utility.yul\":4268:4296   */\n              and\n                /* \"#utility.yul\":4258:4296   */\n              swap1\n              pop\n                /* \"#utility.yul\":4200:4302   */\n              swap2\n              swap1\n              pop\n              jump\t// out\n                /* \"#utility.yul\":4308:4685   */\n            tag_109:\n                /* \"#utility.yul\":4396:4399   */\n              0x00\n                /* \"#utility.yul\":4424:4463   */\n              tag_190\n                /* \"#utility.yul\":4457:4462   */\n              dup3\n                /* \"#utility.yul\":4424:4463   */\n              tag_105\n              jump\t// in\n            tag_190:\n                /* \"#utility.yul\":4479:4550   */\n              tag_191\n                /* \"#utility.yul\":4543:4549   */\n              dup2\n                /* \"#utility.yul\":4538:4541   */\n              dup6\n                /* \"#utility.yul\":4479:4550   */\n              tag_106\n              jump\t// in\n            tag_191:\n                /* \"#utility.yul\":4472:4550   */\n              swap4\n              pop\n                /* \"#utility.yul\":4559:4624   */\n              tag_192\n                /* \"#utility.yul\":4617:4623   */\n              dup2\n                /* \"#utility.yul\":4612:4615   */\n              dup6\n                /* \"#utility.yul\":4605:4609   */\n              0x20\n                /* \"#utility.yul\":4598:4603   */\n              dup7\n                /* \"#utility.yul\":4594:4610   */\n              add\n                /* \"#utility.yul\":4559:4624   */\n              tag_107\n              jump\t// in\n            tag_192:\n                /* \"#utility.yul\":4649:4678   */\n              tag_193\n                /* \"#utility.yul\":4671:4677   */\n              dup2\n                /* \"#utility.yul\":4649:4678   */\n              tag_108\n              jump\t// in\n            tag_193:\n                /* \"#utility.yul\":4644:4647   */\n              dup5\n                /* \"#utility.yul\":4640:4679   */\n              add\n                /* \"#utility.yul\":4633:4679   */\n              swap2\n              pop\n                /* \"#utility.yul\":4400:4685   */\n              pop\n                /* \"#utility.yul\":4308:4685   */\n              swap3\n              swap2\n              pop\n              pop\n              jump\t// out\n                /* \"#utility.yul\":4691:5434   */\n            tag_45:\n                /* \"#utility.yul\":4910:4914   */\n              0x00\n                /* \"#utility.yul\":4948:4951   */\n              0xa0\n                /* \"#utility.yul\":4937:4946   */\n              dup3\n                /* \"#utility.yul\":4933:4952   */\n              add\n                /* \"#utility.yul\":4925:4952   */\n              swap1\n              pop\n                /* \"#utility.yul\":4962:5033   */\n              tag_195\n                /* \"#utility.yul\":5030:5031   */\n              0x00\n                /* \"#utility.yul\":5019:5028   */\n              dup4\n                /* \"#utility.yul\":5015:5032   */\n              add\n                /* \"#utility.yul\":5006:5012   */\n              dup9\n                /* \"#utility.yul\":4962:5033   */\n              tag_103\n              jump\t// in\n            tag_195:\n                /* \"#utility.yul\":5043:5109   */\n              tag_196\n                /* \"#utility.yul\":5105:5107   */\n              0x20\n                /* \"#utility.yul\":5094:5103   */\n              dup4\n                /* \"#utility.yul\":5090:5108   */\n              add\n                /* \"#utility.yul\":5081:5087   */\n              dup8\n                /* \"#utility.yul\":5043:5109   */\n              tag_102\n              jump\t// in\n            tag_196:\n                /* \"#utility.yul\":5119:5191   */\n              tag_197\n                /* \"#utility.yul\":5187:5189   */\n              0x40\n                /* \"#utility.yul\":5176:5185   */\n              dup4\n                /* \"#utility.yul\":5172:5190   */\n              add\n                /* \"#utility.yul\":5163:5169   */\n              dup7\n                /* \"#utility.yul\":5119:5191   */\n              tag_104\n              jump\t// in\n            tag_197:\n                /* \"#utility.yul\":5238:5247   */\n              dup2\n                /* \"#utility.yul\":5232:5236   */\n              dup2\n                /* \"#utility.yul\":5228:5248   */\n              sub\n                /* \"#utility.yul\":5223:5225   */\n              0x60\n                /* \"#utility.yul\":5212:5221   */\n              dup4\n                /* \"#utility.yul\":5208:5226   */\n              add\n                /* \"#utility.yul\":5201:5249   */\n              mstore\n                /* \"#utility.yul\":5266:5344   */\n              tag_198\n                /* \"#utility.yul\":5339:5343   */\n              dup2\n                /* \"#utility.yul\":5330:5336   */\n              dup6\n                /* \"#utility.yul\":5266:5344   */\n              tag_109\n              jump\t// in\n            tag_198:\n                /* \"#utility.yul\":5258:5344   */\n              swap1\n              pop\n                /* \"#utility.yul\":5354:5427   */\n              tag_199\n                /* \"#utility.yul\":5422:5425   */\n              0x80\n                /* \"#utility.yul\":5411:5420   */\n              dup4\n                /* \"#utility.yul\":5407:5426   */\n              add\n                /* \"#utility.yul\":5398:5404   */\n              dup5\n                /* \"#utility.yul\":5354:5427   */\n              tag_103\n              jump\t// in\n            tag_199:\n                /* \"#utility.yul\":4691:5434   */\n              swap7\n              swap6\n              pop\n              pop\n              pop\n              pop\n              pop\n              pop\n              jump\t// out\n                /* \"#utility.yul\":5440:5557   */\n            tag_110:\n                /* \"#utility.yul\":5549:5550   */\n              0x00\n                /* \"#utility.yul\":5546:5547   */\n              dup1\n                /* \"#utility.yul\":5539:5551   */\n              revert\n                /* \"#utility.yul\":5563:5680   */\n            tag_111:\n                /* \"#utility.yul\":5672:5673   */\n              0x00\n                /* \"#utility.yul\":5669:5670   */\n              dup1\n                /* \"#utility.yul\":5662:5674   */\n              revert\n                /* \"#utility.yul\":5686:5866   */\n            tag_112:\n                /* \"#utility.yul\":5734:5811   */\n              0x4e487b7100000000000000000000000000000000000000000000000000000000\n                /* \"#utility.yul\":5731:5732   */\n              0x00\n                /* \"#utility.yul\":5724:5812   */\n              mstore\n                /* \"#utility.yul\":5831:5835   */\n              0x41\n                /* \"#utility.yul\":5828:5829   */\n              0x04\n                /* \"#utility.yul\":5821:5836   */\n              mstore\n                /* \"#utility.yul\":5855:5859   */\n              0x24\n                /* \"#utility.yul\":5852:5853   */\n              0x00\n                /* \"#utility.yul\":5845:5860   */\n              revert\n                /* \"#utility.yul\":5872:6153   */\n            tag_113:\n                /* \"#utility.yul\":5955:5982   */\n              tag_204\n                /* \"#utility.yul\":5977:5981   */\n              dup3\n                /* \"#utility.yul\":5955:5982   */\n              tag_108\n              jump\t// in\n            tag_204:\n                /* \"#utility.yul\":5947:5953   */\n              dup2\n                /* \"#utility.yul\":5943:5983   */\n              add\n                /* \"#utility.yul\":6085:6091   */\n              dup2\n                /* \"#utility.yul\":6073:6083   */\n              dup2\n                /* \"#utility.yul\":6070:6092   */\n              lt\n                /* \"#utility.yul\":6049:6067   */\n              0xffffffffffffffff\n                /* \"#utility.yul\":6037:6047   */\n              dup3\n                /* \"#utility.yul\":6034:6068   */\n              gt\n                /* \"#utility.yul\":6031:6093   */\n              or\n                /* \"#utility.yul\":6028:6116   */\n              iszero\n              tag_205\n              jumpi\n                /* \"#utility.yul\":6096:6114   */\n              tag_206\n              tag_112\n              jump\t// in\n            tag_206:\n                /* \"#utility.yul\":6028:6116   */\n            tag_205:\n                /* \"#utility.yul\":6136:6146   */\n              dup1\n                /* \"#utility.yul\":6132:6134   */\n              0x40\n                /* \"#utility.yul\":6125:6147   */\n              mstore\n                /* \"#utility.yul\":5915:6153   */\n              pop\n                /* \"#utility.yul\":5872:6153   */\n              pop\n              pop\n              jump\t// out\n                /* \"#utility.yul\":6159:6288   */\n            tag_114:\n                /* \"#utility.yul\":6193:6199   */\n              0x00\n                /* \"#utility.yul\":6220:6240   */\n              tag_208\n              tag_91\n              jump\t// in\n            tag_208:\n                /* \"#utility.yul\":6210:6240   */\n              swap1\n              pop\n                /* \"#utility.yul\":6249:6282   */\n              tag_209\n                /* \"#utility.yul\":6277:6281   */\n              dup3\n                /* \"#utility.yul\":6269:6275   */\n              dup3\n                /* \"#utility.yul\":6249:6282   */\n              tag_113\n              jump\t// in\n            tag_209:\n                /* \"#utility.yul\":6159:6288   */\n              swap2\n              swap1\n              pop\n              jump\t// out\n                /* \"#utility.yul\":6294:6602   */\n            tag_115:\n                /* \"#utility.yul\":6356:6360   */\n              0x00\n                /* \"#utility.yul\":6446:6464   */\n              0xffffffffffffffff\n                /* \"#utility.yul\":6438:6444   */\n              dup3\n                /* \"#utility.yul\":6435:6465   */\n              gt\n                /* \"#utility.yul\":6432:6488   */\n              iszero\n              tag_211\n              jumpi\n                /* \"#utility.yul\":6468:6486   */\n              tag_212\n              tag_112\n              jump\t// in\n            tag_212:\n                /* \"#utility.yul\":6432:6488   */\n            tag_211:\n                /* \"#utility.yul\":6506:6535   */\n              tag_213\n                /* \"#utility.yul\":6528:6534   */\n              dup3\n                /* \"#utility.yul\":6506:6535   */\n              tag_108\n              jump\t// in\n            tag_213:\n                /* \"#utility.yul\":6498:6535   */\n              swap1\n              pop\n                /* \"#utility.yul\":6590:6594   */\n              0x20\n                /* \"#utility.yul\":6584:6588   */\n              dup2\n                /* \"#utility.yul\":6580:6595   */\n              add\n                /* \"#utility.yul\":6572:6595   */\n              swap1\n              pop\n                /* \"#utility.yul\":6294:6602   */\n              swap2\n              swap1\n              pop\n              jump\t// out\n                /* \"#utility.yul\":6608:6754   */\n            tag_116:\n                /* \"#utility.yul\":6705:6711   */\n              dup3\n                /* \"#utility.yul\":6700:6703   */\n              dup2\n                /* \"#utility.yul\":6695:6698   */\n              dup4\n                /* \"#utility.yul\":6682:6712   */\n              calldatacopy\n                /* \"#utility.yul\":6746:6747   */\n              0x00\n                /* \"#utility.yul\":6737:6743   */\n              dup4\n                /* \"#utility.yul\":6732:6735   */\n              dup4\n                /* \"#utility.yul\":6728:6744   */\n              add\n                /* \"#utility.yul\":6721:6748   */\n              mstore\n                /* \"#utility.yul\":6608:6754   */\n              pop\n              pop\n              pop\n              jump\t// out\n                /* \"#utility.yul\":6760:7185   */\n            tag_117:\n                /* \"#utility.yul\":6838:6843   */\n              0x00\n                /* \"#utility.yul\":6863:6929   */\n              tag_216\n                /* \"#utility.yul\":6879:6928   */\n              tag_217\n                /* \"#utility.yul\":6921:6927   */\n              dup5\n                /* \"#utility.yul\":6879:6928   */\n              tag_115\n              jump\t// in\n            tag_217:\n                /* \"#utility.yul\":6863:6929   */\n              tag_114\n              jump\t// in\n            tag_216:\n                /* \"#utility.yul\":6854:6929   */\n              swap1\n              pop\n                /* \"#utility.yul\":6952:6958   */\n              dup3\n                /* \"#utility.yul\":6945:6950   */\n              dup2\n                /* \"#utility.yul\":6938:6959   */\n              mstore\n                /* \"#utility.yul\":6990:6994   */\n              0x20\n                /* \"#utility.yul\":6983:6988   */\n              dup2\n                /* \"#utility.yul\":6979:6995   */\n              add\n                /* \"#utility.yul\":7028:7031   */\n              dup5\n                /* \"#utility.yul\":7019:7025   */\n              dup5\n                /* \"#utility.yul\":7014:7017   */\n              dup5\n                /* \"#utility.yul\":7010:7026   */\n              add\n                /* \"#utility.yul\":7007:7032   */\n              gt\n                /* \"#utility.yul\":7004:7116   */\n              iszero\n              tag_218\n              jumpi\n                /* \"#utility.yul\":7035:7114   */\n              tag_219\n              tag_111\n              jump\t// in\n            tag_219:\n                /* \"#utility.yul\":7004:7116   */\n            tag_218:\n                /* \"#utility.yul\":7125:7179   */\n              tag_220\n                /* \"#utility.yul\":7172:7178   */\n              dup5\n                /* \"#utility.yul\":7167:7170   */\n              dup3\n                /* \"#utility.yul\":7162:7165   */\n              dup6\n                /* \"#utility.yul\":7125:7179   */\n              tag_116\n              jump\t// in\n            tag_220:\n                /* \"#utility.yul\":6844:7185   */\n              pop\n                /* \"#utility.yul\":6760:7185   */\n              swap4\n              swap3\n              pop\n              pop\n              pop\n              jump\t// out\n                /* \"#utility.yul\":7205:7545   */\n            tag_118:\n                /* \"#utility.yul\":7261:7266   */\n              0x00\n                /* \"#utility.yul\":7310:7313   */\n              dup3\n                /* \"#utility.yul\":7303:7307   */\n              0x1f\n                /* \"#utility.yul\":7295:7301   */\n              dup4\n                /* \"#utility.yul\":7291:7308   */\n              add\n                /* \"#utility.yul\":7287:7314   */\n              slt\n                /* \"#utility.yul\":7277:7399   */\n              tag_222\n              jumpi\n                /* \"#utility.yul\":7318:7397   */\n              tag_223\n              tag_110\n              jump\t// in\n            tag_223:\n                /* \"#utility.yul\":7277:7399   */\n            tag_222:\n                /* \"#utility.yul\":7435:7441   */\n              dup2\n                /* \"#utility.yul\":7422:7442   */\n              calldataload\n                /* \"#utility.yul\":7460:7539   */\n              tag_224\n                /* \"#utility.yul\":7535:7538   */\n              dup5\n                /* \"#utility.yul\":7527:7533   */\n              dup3\n                /* \"#utility.yul\":7520:7524   */\n              0x20\n                /* \"#utility.yul\":7512:7518   */\n              dup7\n                /* \"#utility.yul\":7508:7525   */\n              add\n                /* \"#utility.yul\":7460:7539   */\n              tag_117\n              jump\t// in\n            tag_224:\n                /* \"#utility.yul\":7451:7539   */\n              swap2\n              pop\n                /* \"#utility.yul\":7267:7545   */\n              pop\n                /* \"#utility.yul\":7205:7545   */\n              swap3\n              swap2\n              pop\n              pop\n              jump\t// out\n                /* \"#utility.yul\":7551:8350   */\n            tag_49:\n                /* \"#utility.yul\":7638:7644   */\n              0x00\n                /* \"#utility.yul\":7646:7652   */\n              dup1\n                /* \"#utility.yul\":7654:7660   */\n              0x00\n                /* \"#utility.yul\":7703:7705   */\n              0x60\n                /* \"#utility.yul\":7691:7700   */\n              dup5\n                /* \"#utility.yul\":7682:7689   */\n              dup7\n                /* \"#utility.yul\":7678:7701   */\n              sub\n                /* \"#utility.yul\":7674:7706   */\n              slt\n                /* \"#utility.yul\":7671:7790   */\n              iszero\n              tag_226\n              jumpi\n                /* \"#utility.yul\":7709:7788   */\n              tag_227\n              tag_92\n              jump\t// in\n            tag_227:\n                /* \"#utility.yul\":7671:7790   */\n            tag_226:\n                /* \"#utility.yul\":7857:7858   */\n              0x00\n                /* \"#utility.yul\":7846:7855   */\n              dup5\n                /* \"#utility.yul\":7842:7859   */\n              add\n                /* \"#utility.yul\":7829:7860   */\n              calldataload\n                /* \"#utility.yul\":7887:7905   */\n              0xffffffffffffffff\n                /* \"#utility.yul\":7879:7885   */\n              dup2\n                /* \"#utility.yul\":7876:7906   */\n              gt\n                /* \"#utility.yul\":7873:7990   */\n              iszero\n              tag_228\n              jumpi\n                /* \"#utility.yul\":7909:7988   */\n              tag_229\n              tag_93\n              jump\t// in\n            tag_229:\n                /* \"#utility.yul\":7873:7990   */\n            tag_228:\n                /* \"#utility.yul\":8014:8077   */\n              tag_230\n                /* \"#utility.yul\":8069:8076   */\n              dup7\n                /* \"#utility.yul\":8060:8066   */\n              dup3\n                /* \"#utility.yul\":8049:8058   */\n              dup8\n                /* \"#utility.yul\":8045:8067   */\n              add\n                /* \"#utility.yul\":8014:8077   */\n              tag_118\n              jump\t// in\n            tag_230:\n                /* \"#utility.yul\":8004:8077   */\n              swap4\n              pop\n                /* \"#utility.yul\":7800:8087   */\n              pop\n                /* \"#utility.yul\":8126:8128   */\n              0x20\n                /* \"#utility.yul\":8152:8205   */\n              tag_231\n                /* \"#utility.yul\":8197:8204   */\n              dup7\n                /* \"#utility.yul\":8188:8194   */\n              dup3\n                /* \"#utility.yul\":8177:8186   */\n              dup8\n                /* \"#utility.yul\":8173:8195   */\n              add\n                /* \"#utility.yul\":8152:8205   */\n              tag_96\n              jump\t// in\n            tag_231:\n                /* \"#utility.yul\":8142:8205   */\n              swap3\n              pop\n                /* \"#utility.yul\":8097:8215   */\n              pop\n                /* \"#utility.yul\":8254:8256   */\n              0x40\n                /* \"#utility.yul\":8280:8333   */\n              tag_232\n                /* \"#utility.yul\":8325:8332   */\n              dup7\n                /* \"#utility.yul\":8316:8322   */\n              dup3\n                /* \"#utility.yul\":8305:8314   */\n              dup8\n                /* \"#utility.yul\":8301:8323   */\n              add\n                /* \"#utility.yul\":8280:8333   */\n              tag_100\n              jump\t// in\n            tag_232:\n                /* \"#utility.yul\":8270:8333   */\n              swap2\n              pop\n                /* \"#utility.yul\":8225:8343   */\n              pop\n                /* \"#utility.yul\":7551:8350   */\n              swap3\n              pop\n              swap3\n              pop\n              swap3\n              jump\t// out\n                /* \"#utility.yul\":8356:8536   */\n            tag_119:\n                /* \"#utility.yul\":8404:8481   */\n              0x4e487b7100000000000000000000000000000000000000000000000000000000\n                /* \"#utility.yul\":8401:8402   */\n              0x00\n                /* \"#utility.yul\":8394:8482   */\n              mstore\n                /* \"#utility.yul\":8501:8505   */\n              0x12\n                /* \"#utility.yul\":8498:8499   */\n              0x04\n                /* \"#utility.yul\":8491:8506   */\n              mstore\n                /* \"#utility.yul\":8525:8529   */\n              0x24\n                /* \"#utility.yul\":8522:8523   */\n              0x00\n                /* \"#utility.yul\":8515:8530   */\n              revert\n                /* \"#utility.yul\":8542:8722   */\n            tag_120:\n                /* \"#utility.yul\":8590:8667   */\n              0x4e487b7100000000000000000000000000000000000000000000000000000000\n                /* \"#utility.yul\":8587:8588   */\n              0x00\n                /* \"#utility.yul\":8580:8668   */\n              mstore\n                /* \"#utility.yul\":8687:8691   */\n              0x11\n                /* \"#utility.yul\":8684:8685   */\n              0x04\n                /* \"#utility.yul\":8677:8692   */\n              mstore\n                /* \"#utility.yul\":8711:8715   */\n              0x24\n                /* \"#utility.yul\":8708:8709   */\n              0x00\n                /* \"#utility.yul\":8701:8716   */\n              revert\n                /* \"#utility.yul\":8728:8913   */\n            tag_66:\n                /* \"#utility.yul\":8768:8769   */\n              0x00\n                /* \"#utility.yul\":8785:8805   */\n              tag_236\n                /* \"#utility.yul\":8803:8804   */\n              dup3\n                /* \"#utility.yul\":8785:8805   */\n              tag_94\n              jump\t// in\n            tag_236:\n                /* \"#utility.yul\":8780:8805   */\n              swap2\n              pop\n                /* \"#utility.yul\":8819:8839   */\n              tag_237\n                /* \"#utility.yul\":8837:8838   */\n              dup4\n                /* \"#utility.yul\":8819:8839   */\n              tag_94\n              jump\t// in\n            tag_237:\n                /* \"#utility.yul\":8814:8839   */\n              swap3\n              pop\n                /* \"#utility.yul\":8858:8859   */\n              dup3\n                /* \"#utility.yul\":8848:8883   */\n              tag_238\n              jumpi\n                /* \"#utility.yul\":8863:8881   */\n              tag_239\n              tag_119\n              jump\t// in\n            tag_239:\n                /* \"#utility.yul\":8848:8883   */\n            tag_238:\n                /* \"#utility.yul\":8905:8906   */\n              dup3\n                /* \"#utility.yul\":8902:8903   */\n              dup3\n                /* \"#utility.yul\":8898:8907   */\n              div\n                /* \"#utility.yul\":8893:8907   */\n              swap1\n              pop\n                /* \"#utility.yul\":8728:8913   */\n              swap3\n              swap2\n              pop\n              pop\n              jump\t// out\n                /* \"#utility.yul\":8919:9099   */\n            tag_121:\n                /* \"#utility.yul\":8967:9044   */\n              0x4e487b7100000000000000000000000000000000000000000000000000000000\n                /* \"#utility.yul\":8964:8965   */\n              0x00\n                /* \"#utility.yul\":8957:9045   */\n              mstore\n                /* \"#utility.yul\":9064:9068   */\n              0x22\n                /* \"#utility.yul\":9061:9062   */\n              0x04\n                /* \"#utility.yul\":9054:9069   */\n              mstore\n                /* \"#utility.yul\":9088:9092   */\n              0x24\n                /* \"#utility.yul\":9085:9086   */\n              0x00\n                /* \"#utility.yul\":9078:9093   */\n              revert\n                /* \"#utility.yul\":9105:9425   */\n            tag_72:\n                /* \"#utility.yul\":9149:9155   */\n              0x00\n                /* \"#utility.yul\":9186:9187   */\n              0x02\n                /* \"#utility.yul\":9180:9184   */\n              dup3\n                /* \"#utility.yul\":9176:9188   */\n              div\n                /* \"#utility.yul\":9166:9188   */\n              swap1\n              pop\n                /* \"#utility.yul\":9233:9234   */\n              0x01\n                /* \"#utility.yul\":9227:9231   */\n              dup3\n                /* \"#utility.yul\":9223:9235   */\n              and\n                /* \"#utility.yul\":9254:9272   */\n              dup1\n                /* \"#utility.yul\":9244:9325   */\n              tag_242\n              jumpi\n                /* \"#utility.yul\":9310:9314   */\n              0x7f\n                /* \"#utility.yul\":9302:9308   */\n              dup3\n                /* \"#utility.yul\":9298:9315   */\n              and\n                /* \"#utility.yul\":9288:9315   */\n              swap2\n              pop\n                /* \"#utility.yul\":9244:9325   */\n            tag_242:\n                /* \"#utility.yul\":9372:9374   */\n              0x20\n                /* \"#utility.yul\":9364:9370   */\n              dup3\n                /* \"#utility.yul\":9361:9375   */\n              lt\n                /* \"#utility.yul\":9341:9359   */\n              dup2\n                /* \"#utility.yul\":9338:9376   */\n              sub\n                /* \"#utility.yul\":9335:9419   */\n              tag_243\n              jumpi\n                /* \"#utility.yul\":9391:9409   */\n              tag_244\n              tag_121\n              jump\t// in\n            tag_244:\n                /* \"#utility.yul\":9335:9419   */\n            tag_243:\n                /* \"#utility.yul\":9156:9425   */\n              pop\n                /* \"#utility.yul\":9105:9425   */\n              swap2\n              swap1\n              pop\n              jump\t// out\n                /* \"#utility.yul\":9431:9664   */\n            tag_81:\n                /* \"#utility.yul\":9470:9473   */\n              0x00\n                /* \"#utility.yul\":9493:9517   */\n              tag_246\n                /* \"#utility.yul\":9511:9516   */\n              dup3\n                /* \"#utility.yul\":9493:9517   */\n              tag_94\n              jump\t// in\n            tag_246:\n                /* \"#utility.yul\":9484:9517   */\n              swap2\n              pop\n                /* \"#utility.yul\":9539:9605   */\n              0xffffffffffffffffffffffffffffffffffffffffffffffffffffffffffffffff\n                /* \"#utility.yul\":9532:9537   */\n              dup3\n                /* \"#utility.yul\":9529:9606   */\n              sub\n                /* \"#utility.yul\":9526:9629   */\n              tag_247\n              jumpi\n                /* \"#utility.yul\":9609:9627   */\n              tag_248\n              tag_120\n              jump\t// in\n            tag_248:\n                /* \"#utility.yul\":9526:9629   */\n            tag_247:\n                /* \"#utility.yul\":9656:9657   */\n              0x01\n                /* \"#utility.yul\":9649:9654   */\n              dup3\n                /* \"#utility.yul\":9645:9658   */\n              add\n                /* \"#utility.yul\":9638:9658   */\n              swap1\n              pop\n                /* \"#utility.yul\":9431:9664   */\n              swap2\n              swap1\n              pop\n              jump\t// out\n                /* \"#utility.yul\":9670:9811   */\n            tag_122:\n                /* \"#utility.yul\":9719:9723   */\n              0x00\n                /* \"#utility.yul\":9742:9745   */\n              dup2\n                /* \"#utility.yul\":9734:9745   */\n              swap1\n              pop\n                /* \"#utility.yul\":9765:9768   */\n              dup2\n                /* \"#utility.yul\":9762:9763   */\n              0x00\n                /* \"#utility.yul\":9755:9769   */\n              mstore\n                /* \"#utility.yul\":9799:9803   */\n              0x20\n                /* \"#utility.yul\":9796:9797   */\n              0x00\n                /* \"#utility.yul\":9786:9804   */\n              keccak256\n                /* \"#utility.yul\":9778:9804   */\n              swap1\n              pop\n                /* \"#utility.yul\":9670:9811   */\n              swap2\n              swap1\n              pop\n              jump\t// out\n                /* \"#utility.yul\":9817:9910   */\n            tag_123:\n                /* \"#utility.yul\":9854:9860   */\n              0x00\n                /* \"#utility.yul\":9901:9903   */\n              0x20\n                /* \"#utility.yul\":9896:9898   */\n              0x1f\n                /* \"#utility.yul\":9889:9894   */\n              dup4\n                /* \"#utility.yul\":9885:9899   */\n              add\n                /* \"#utility.yul\":9881:9904   */\n              div\n                /* \"#utility.yul\":9871:9904   */\n              swap1\n              pop\n                /* \"#utility.yul\":9817:9910   */\n              swap2\n              swap1\n              pop\n              jump\t// out\n                /* \"#utility.yul\":9916:10023   */\n            tag_124:\n                /* \"#utility.yul\":9960:9968   */\n              0x00\n                /* \"#utility.yul\":10010:10015   */\n              dup3\n                /* \"#utility.yul\":10004:10008   */\n              dup3\n                /* \"#utility.yul\":10000:10016   */\n              shl\n                /* \"#utility.yul\":9979:10016   */\n              swap1\n              pop\n                /* \"#utility.yul\":9916:10023   */\n              swap3\n              swap2\n              pop\n              pop\n              jump\t// out\n                /* \"#utility.yul\":10029:10422   */\n            tag_125:\n                /* \"#utility.yul\":10098:10104   */\n              0x00\n                /* \"#utility.yul\":10148:10149   */\n              0x08\n                /* \"#utility.yul\":10136:10146   */\n              dup4\n                /* \"#utility.yul\":10132:10150   */\n              mul\n                /* \"#utility.yul\":10171:10268   */\n              tag_253\n                /* \"#utility.yul\":10201:10267   */\n              0xffffffffffffffffffffffffffffffffffffffffffffffffffffffffffffffff\n                /* \"#utility.yul\":10190:10199   */\n              dup3\n                /* \"#utility.yul\":10171:10268   */\n              tag_124\n              jump\t// in\n            tag_253:\n                /* \"#utility.yul\":10289:10328   */\n              tag_254\n                /* \"#utility.yul\":10319:10327   */\n              dup7\n                /* \"#utility.yul\":10308:10317   */\n              dup4\n                /* \"#utility.yul\":10289:10328   */\n              tag_124\n              jump\t// in\n            tag_254:\n                /* \"#utility.yul\":10277:10328   */\n              swap6\n              pop\n                /* \"#utility.yul\":10361:10365   */\n              dup1\n                /* \"#utility.yul\":10357:10366   */\n              not\n                /* \"#utility.yul\":10350:10355   */\n              dup5\n                /* \"#utility.yul\":10346:10367   */\n              and\n                /* \"#utility.yul\":10337:10367   */\n              swap4\n              pop\n                /* \"#utility.yul\":10410:10414   */\n              dup1\n                /* \"#utility.yul\":10400:10408   */\n              dup7\n                /* \"#utility.yul\":10396:10415   */\n              and\n                /* \"#utility.yul\":10389:10394   */\n              dup5\n                /* \"#utility.yul\":10386:10416   */\n              or\n                /* \"#utility.yul\":10376:10416   */\n              swap3\n              pop\n                /* \"#utility.yul\":10105:10422   */\n              pop\n              pop\n                /* \"#utility.yul\":10029:10422   */\n              swap4\n              swap3\n              pop\n              pop\n              pop\n              jump\t// out\n                /* \"#utility.yul\":10428:10488   */\n            tag_126:\n                /* \"#utility.yul\":10456:10459   */\n              0x00\n                /* \"#utility.yul\":10477:10482   */\n              dup2\n                /* \"#utility.yul\":10470:10482   */\n              swap1\n              pop\n                /* \"#utility.yul\":10428:10488   */\n              swap2\n              swap1\n              pop\n              jump\t// out\n                /* \"#utility.yul\":10494:10636   */\n            tag_127:\n                /* \"#utility.yul\":10544:10553   */\n              0x00\n                /* \"#utility.yul\":10577:10630   */\n              tag_257\n                /* \"#utility.yul\":10595:10629   */\n              tag_258\n                /* \"#utility.yul\":10604:10628   */\n              tag_259\n                /* \"#utility.yul\":10622:10627   */\n              dup5\n                /* \"#utility.yul\":10604:10628   */\n              tag_94\n              jump\t// in\n            tag_259:\n                /* \"#utility.yul\":10595:10629   */\n              tag_126\n              jump\t// in\n            tag_258:\n                /* \"#utility.yul\":10577:10630   */\n              tag_94\n              jump\t// in\n            tag_257:\n                /* \"#utility.yul\":10564:10630   */\n              swap1\n              pop\n                /* \"#utility.yul\":10494:10636   */\n              swap2\n              swap1\n              pop\n              jump\t// out\n                /* \"#utility.yul\":10642:10717   */\n            tag_128:\n                /* \"#utility.yul\":10685:10688   */\n              0x00\n                /* \"#utility.yul\":10706:10711   */\n              dup2\n                /* \"#utility.yul\":10699:10711   */\n              swap1\n              pop\n                /* \"#utility.yul\":10642:10717   */\n              swap2\n              swap1\n              pop\n              jump\t// out\n                /* \"#utility.yul\":10723:10992   */\n            tag_129:\n                /* \"#utility.yul\":10833:10872   */\n              tag_262\n                /* \"#utility.yul\":10864:10871   */\n              dup4\n                /* \"#utility.yul\":10833:10872   */\n              tag_127\n              jump\t// in\n            tag_262:\n                /* \"#utility.yul\":10894:10985   */\n              tag_263\n                /* \"#utility.yul\":10943:10984   */\n              tag_264\n                /* \"#utility.yul\":10967:10983   */\n              dup3\n                /* \"#utility.yul\":10943:10984   */\n              tag_128\n              jump\t// in\n            tag_264:\n                /* \"#utility.yul\":10935:10941   */\n              dup5\n                /* \"#utility.yul\":10928:10932   */\n              dup5\n                /* \"#utility.yul\":10922:10933   */\n              sload\n                /* \"#utility.yul\":10894:10985   */\n              tag_125\n              jump\t// in\n            tag_263:\n                /* \"#utility.yul\":10888:10892   */\n              dup3\n                /* \"#utility.yul\":10881:10986   */\n              sstore\n                /* \"#utility.yul\":10799:10992   */\n              pop\n                /* \"#utility.yul\":10723:10992   */\n              pop\n              pop\n              pop\n              jump\t// out\n                /* \"#utility.yul\":10998:11071   */\n            tag_130:\n                /* \"#utility.yul\":11043:11046   */\n              0x00\n                /* \"#utility.yul\":10998:11071   */\n              swap1\n              jump\t// out\n                /* \"#utility.yul\":11077:11266   */\n            tag_131:\n                /* \"#utility.yul\":11154:11186   */\n              tag_267\n              tag_130\n              jump\t// in\n            tag_267:\n                /* \"#utility.yul\":11195:11260   */\n              tag_268\n                /* \"#utility.yul\":11253:11259   */\n              dup2\n                /* \"#utility.yul\":11245:11251   */\n              dup5\n                /* \"#utility.yul\":11239:11243   */\n              dup5\n                /* \"#utility.yul\":11195:11260   */\n              tag_129\n              jump\t// in\n            tag_268:\n                /* \"#utility.yul\":11130:11266   */\n              pop\n                /* \"#utility.yul\":11077:11266   */\n              pop\n              pop\n              jump\t// out\n                /* \"#utility.yul\":11272:11458   */\n            tag_132:\n                /* \"#utility.yul\":11332:11452   */\n            tag_270:\n                /* \"#utility.yul\":11349:11352   */\n              dup2\n                /* \"#utility.yul\":11342:11347   */\n              dup2\n                /* \"#utility.yul\":11339:11353   */\n              lt\n                /* \"#utility.yul\":11332:11452   */\n              iszero\n              tag_272\n              jumpi\n                /* \"#utility.yul\":11403:11442   */\n              tag_273\n                /* \"#utility.yul\":11440:11441   */\n              0x00\n                /* \"#utility.yul\":11433:11438   */\n              dup3\n                /* \"#utility.yul\":11403:11442   */\n              tag_131\n              jump\t// in\n            tag_273:\n                /* \"#utility.yul\":11376:11377   */\n              0x01\n                /* \"#utility.yul\":11369:11374   */\n              dup2\n                /* \"#utility.yul\":11365:11378   */\n              add\n                /* \"#utility.yul\":11356:11378   */\n              swap1\n              pop\n                /* \"#utility.yul\":11332:11452   */\n              jump(tag_270)\n            tag_272:\n                /* \"#utility.yul\":11272:11458   */\n              pop\n              pop\n              jump\t// out\n                /* \"#utility.yul\":11464:12007   */\n            tag_133:\n                /* \"#utility.yul\":11565:11567   */\n              0x1f\n                /* \"#utility.yul\":11560:11563   */\n              dup3\n                /* \"#utility.yul\":11557:11568   */\n              gt\n                /* \"#utility.yul\":11554:12000   */\n              iszero\n              tag_275\n              jumpi\n                /* \"#utility.yul\":11599:11637   */\n              tag_276\n                /* \"#utility.yul\":11631:11636   */\n              dup2\n                /* \"#utility.yul\":11599:11637   */\n              tag_122\n              jump\t// in\n            tag_276:\n                /* \"#utility.yul\":11683:11712   */\n              tag_277\n                /* \"#utility.yul\":11701:11711   */\n              dup5\n                /* \"#utility.yul\":11683:11712   */\n              tag_123\n              jump\t// in\n            tag_277:\n                /* \"#utility.yul\":11673:11681   */\n              dup2\n                /* \"#utility.yul\":11669:11713   */\n              add\n                /* \"#utility.yul\":11866:11868   */\n              0x20\n                /* \"#utility.yul\":11854:11864   */\n              dup6\n                /* \"#utility.yul\":11851:11869   */\n              lt\n                /* \"#utility.yul\":11848:11897   */\n              iszero\n              tag_278\n              jumpi\n                /* \"#utility.yul\":11887:11895   */\n              dup2\n                /* \"#utility.yul\":11872:11895   */\n              swap1\n              pop\n                /* \"#utility.yul\":11848:11897   */\n            tag_278:\n                /* \"#utility.yul\":11910:11990   */\n              tag_279\n                /* \"#utility.yul\":11966:11988   */\n              tag_280\n                /* \"#utility.yul\":11984:11987   */\n              dup6\n                /* \"#utility.yul\":11966:11988   */\n              tag_123\n              jump\t// in\n            tag_280:\n                /* \"#utility.yul\":11956:11964   */\n              dup4\n                /* \"#utility.yul\":11952:11989   */\n              add\n                /* \"#utility.yul\":11939:11950   */\n              dup3\n                /* \"#utility.yul\":11910:11990   */\n              tag_132\n              jump\t// in\n            tag_279:\n                /* \"#utility.yul\":11569:12000   */\n              pop\n              pop\n                /* \"#utility.yul\":11554:12000   */\n            tag_275:\n                /* \"#utility.yul\":11464:12007   */\n              pop\n              pop\n              pop\n              jump\t// out\n                /* \"#utility.yul\":12013:12130   */\n            tag_134:\n                /* \"#utility.yul\":12067:12075   */\n              0x00\n                /* \"#utility.yul\":12117:12122   */\n              dup3\n                /* \"#utility.yul\":12111:12115   */\n              dup3\n                /* \"#utility.yul\":12107:12123   */\n              shr\n                /* \"#utility.yul\":12086:12123   */\n              swap1\n              pop\n                /* \"#utility.yul\":12013:12130   */\n              swap3\n              swap2\n              pop\n              pop\n              jump\t// out\n                /* \"#utility.yul\":12136:12305   */\n            tag_135:\n                /* \"#utility.yul\":12180:12186   */\n              0x00\n                /* \"#utility.yul\":12213:12264   */\n              tag_283\n                /* \"#utility.yul\":12261:12262   */\n              0x00\n                /* \"#utility.yul\":12257:12263   */\n              not\n                /* \"#utility.yul\":12249:12254   */\n              dup5\n                /* \"#utility.yul\":12246:12247   */\n              0x08\n                /* \"#utility.yul\":12242:12255   */\n              mul\n                /* \"#utility.yul\":12213:12264   */\n              tag_134\n              jump\t// in\n            tag_283:\n                /* \"#utility.yul\":12209:12265   */\n              not\n                /* \"#utility.yul\":12294:12298   */\n              dup1\n                /* \"#utility.yul\":12288:12292   */\n              dup4\n                /* \"#utility.yul\":12284:12299   */\n              and\n                /* \"#utility.yul\":12274:12299   */\n              swap2\n              pop\n                /* \"#utility.yul\":12187:12305   */\n              pop\n                /* \"#utility.yul\":12136:12305   */\n              swap3\n              swap2\n              pop\n              pop\n              jump\t// out\n                /* \"#utility.yul\":12310:12605   */\n            tag_136:\n                /* \"#utility.yul\":12386:12390   */\n              0x00\n                /* \"#utility.yul\":12532:12561   */\n              tag_285\n                /* \"#utility.yul\":12557:12560   */\n              dup4\n                /* \"#utility.yul\":12551:12555   */\n              dup4\n                /* \"#utility.yul\":12532:12561   */\n              tag_135\n              jump\t// in\n            tag_285:\n                /* \"#utility.yul\":12524:12561   */\n              swap2\n              pop\n                /* \"#utility.yul\":12594:12597   */\n              dup3\n                /* \"#utility.yul\":12591:12592   */\n              0x02\n                /* \"#utility.yul\":12587:12598   */\n              mul\n                /* \"#utility.yul\":12581:12585   */\n              dup3\n                /* \"#utility.yul\":12578:12599   */\n              or\n                /* \"#utility.yul\":12570:12599   */\n              swap1\n              pop\n                /* \"#utility.yul\":12310:12605   */\n              swap3\n              swap2\n              pop\n              pop\n              jump\t// out\n                /* \"#utility.yul\":12610:14005   */\n            tag_83:\n                /* \"#utility.yul\":12727:12764   */\n              tag_287\n                /* \"#utility.yul\":12760:12763   */\n              dup3\n                /* \"#utility.yul\":12727:12764   */\n              tag_105\n              jump\t// in\n            tag_287:\n                /* \"#utility.yul\":12829:12847   */\n              0xffffffffffffffff\n                /* \"#utility.yul\":12821:12827   */\n              dup2\n                /* \"#utility.yul\":12818:12848   */\n              gt\n                /* \"#utility.yul\":12815:12871   */\n              iszero\n              tag_288\n              jumpi\n                /* \"#utility.yul\":12851:12869   */\n              tag_289\n              tag_112\n              jump\t// in\n            tag_289:\n                /* \"#utility.yul\":12815:12871   */\n            tag_288:\n                /* \"#utility.yul\":12895:12933   */\n              tag_290\n                /* \"#utility.yul\":12927:12931   */\n              dup3\n                /* \"#utility.yul\":12921:12932   */\n              sload\n                /* \"#utility.yul\":12895:12933   */\n              tag_72\n              jump\t// in\n            tag_290:\n                /* \"#utility.yul\":12980:13047   */\n              tag_291\n                /* \"#utility.yul\":13040:13046   */\n              dup3\n                /* \"#utility.yul\":13032:13038   */\n              dup3\n                /* \"#utility.yul\":13026:13030   */\n              dup6\n                /* \"#utility.yul\":12980:13047   */\n              tag_133\n              jump\t// in\n            tag_291:\n                /* \"#utility.yul\":13074:13075   */\n              0x00\n                /* \"#utility.yul\":13098:13102   */\n              0x20\n                /* \"#utility.yul\":13085:13102   */\n              swap1\n              pop\n                /* \"#utility.yul\":13130:13132   */\n              0x1f\n                /* \"#utility.yul\":13122:13128   */\n              dup4\n                /* \"#utility.yul\":13119:13133   */\n              gt\n                /* \"#utility.yul\":13147:13148   */\n              0x01\n                /* \"#utility.yul\":13142:13760   */\n              dup2\n              eq\n              tag_293\n              jumpi\n                /* \"#utility.yul\":13804:13805   */\n              0x00\n                /* \"#utility.yul\":13821:13827   */\n              dup5\n                /* \"#utility.yul\":13818:13895   */\n              iszero\n              tag_294\n              jumpi\n                /* \"#utility.yul\":13870:13879   */\n              dup3\n                /* \"#utility.yul\":13865:13868   */\n              dup8\n                /* \"#utility.yul\":13861:13880   */\n              add\n                /* \"#utility.yul\":13855:13881   */\n              mload\n                /* \"#utility.yul\":13846:13881   */\n              swap1\n              pop\n                /* \"#utility.yul\":13818:13895   */\n            tag_294:\n                /* \"#utility.yul\":13921:13988   */\n              tag_295\n                /* \"#utility.yul\":13981:13987   */\n              dup6\n                /* \"#utility.yul\":13974:13979   */\n              dup3\n                /* \"#utility.yul\":13921:13988   */\n              tag_136\n              jump\t// in\n            tag_295:\n                /* \"#utility.yul\":13915:13919   */\n              dup7\n                /* \"#utility.yul\":13908:13989   */\n              sstore\n                /* \"#utility.yul\":13777:13999   */\n              pop\n                /* \"#utility.yul\":13112:13999   */\n              jump(tag_292)\n                /* \"#utility.yul\":13142:13760   */\n            tag_293:\n                /* \"#utility.yul\":13194:13198   */\n              0x1f\n                /* \"#utility.yul\":13190:13199   */\n              not\n                /* \"#utility.yul\":13182:13188   */\n              dup5\n                /* \"#utility.yul\":13178:13200   */\n              and\n                /* \"#utility.yul\":13228:13265   */\n              tag_296\n                /* \"#utility.yul\":13260:13264   */\n              dup7\n                /* \"#utility.yul\":13228:13265   */\n              tag_122\n              jump\t// in\n            tag_296:\n                /* \"#utility.yul\":13287:13288   */\n              0x00\n                /* \"#utility.yul\":13301:13509   */\n            tag_297:\n                /* \"#utility.yul\":13315:13322   */\n              dup3\n                /* \"#utility.yul\":13312:13313   */\n              dup2\n                /* \"#utility.yul\":13309:13323   */\n              lt\n                /* \"#utility.yul\":13301:13509   */\n              iszero\n              tag_299\n              jumpi\n                /* \"#utility.yul\":13394:13403   */\n              dup5\n                /* \"#utility.yul\":13389:13392   */\n              dup10\n                /* \"#utility.yul\":13385:13404   */\n              add\n                /* \"#utility.yul\":13379:13405   */\n              mload\n                /* \"#utility.yul\":13371:13377   */\n              dup3\n                /* \"#utility.yul\":13364:13406   */\n              sstore\n                /* \"#utility.yul\":13445:13446   */\n              0x01\n                /* \"#utility.yul\":13437:13443   */\n              dup3\n                /* \"#utility.yul\":13433:13447   */\n              add\n                /* \"#utility.yul\":13423:13447   */\n              swap2\n              pop\n                /* \"#utility.yul\":13492:13494   */\n              0x20\n                /* \"#utility.yul\":13481:13490   */\n              dup6\n                /* \"#utility.yul\":13477:13495   */\n              add\n                /* \"#utility.yul\":13464:13495   */\n              swap5\n              pop\n                /* \"#utility.yul\":13338:13342   */\n              0x20\n                /* \"#utility.yul\":13335:13336   */\n              dup2\n                /* \"#utility.yul\":13331:13343   */\n              add\n                /* \"#utility.yul\":13326:13343   */\n              swap1\n              pop\n                /* \"#utility.yul\":13301:13509   */\n              jump(tag_297)\n            tag_299:\n                /* \"#utility.yul\":13537:13543   */\n              dup7\n                /* \"#utility.yul\":13528:13535   */\n              dup4\n                /* \"#utility.yul\":13525:13544   */\n              lt\n                /* \"#utility.yul\":13522:13701   */\n              iszero\n              tag_300\n              jumpi\n                /* \"#utility.yul\":13595:13604   */\n              dup5\n                /* \"#utility.yul\":13590:13593   */\n              dup10\n                /* \"#utility.yul\":13586:13605   */\n              add\n                /* \"#utility.yul\":13580:13606   */\n              mload\n                /* \"#utility.yul\":13638:13686   */\n              tag_301\n                /* \"#utility.yul\":13680:13684   */\n              0x1f\n                /* \"#utility.yul\":13672:13678   */\n              dup10\n                /* \"#utility.yul\":13668:13685   */\n              and\n                /* \"#utility.yul\":13657:13666   */\n              dup3\n                /* \"#utility.yul\":13638:13686   */\n              tag_135\n              jump\t// in\n            tag_301:\n                /* \"#utility.yul\":13630:13636   */\n              dup4\n                /* \"#utility.yul\":13623:13687   */\n              sstore\n                /* \"#utility.yul\":13545:13701   */\n              pop\n                /* \"#utility.yul\":13522:13701   */\n            tag_300:\n                /* \"#utility.yul\":13747:13748   */\n              0x01\n                /* \"#utility.yul\":13743:13744   */\n              0x02\n                /* \"#utility.yul\":13735:13741   */\n              dup9\n                /* \"#utility.yul\":13731:13745   */\n              mul\n                /* \"#utility.yul\":13727:13749   */\n              add\n                /* \"#utility.yul\":13721:13725   */\n              dup9\n                /* \"#utility.yul\":13714:13750   */\n              sstore\n                /* \"#utility.yul\":13149:13760   */\n              pop\n              pop\n              pop\n                /* \"#utility.yul\":13112:13999   */\n            tag_292:\n              pop\n                /* \"#utility.yul\":12702:14005   */\n              pop\n              pop\n              pop\n                /* \"#utility.yul\":12610:14005   */\n              pop\n              pop\n              jump\t// out\n\n            auxdata: 0xa26469706673582212207cc892b3170bdf1103206e65ce7f42ee1eb55892a10568d09c45d5954ff8f73f64736f6c63430008110033\n        }\n    }\n\n    auxdata: 0xa2646970667358221220f5cb4969e89ff5f59ad5d926440d3dc0a9eb53d8433090f1242957da50ea37d664736f6c63430008110033\n}\n","bytecode":{"linkReferences":{},"object":"608060405234801561001057600080fd5b506115ed806100206000396000f3fe608060405234801561001057600080fd5b50600436106100415760003560e01c8063339d50a514610046578063a3303a7514610076578063a6b0363314610092575b600080fd5b610060600480360381019061005b9190610266565b6100b0565b60405161006d91906102d4565b60405180910390f35b610090600480360381019061008b9190610266565b6100ef565b005b61009a610190565b6040516100a791906103ad565b60405180910390f35b600081815481106100c057600080fd5b906000526020600020016000915054906101000a900473ffffffffffffffffffffffffffffffffffffffff1681565b600081336040516100ff9061021e565b61010a9291906103de565b604051809103906000f080158015610126573d6000803e3d6000fd5b5090506000819080600181540180825580915050600190039060005260206000200160009091909190916101000a81548173ffffffffffffffffffffffffffffffffffffffff021916908373ffffffffffffffffffffffffffffffffffffffff1602179055505050565b6060600080548060200260200160405190810160405280929190818152602001828054801561021457602002820191906000526020600020905b8160009054906101000a900473ffffffffffffffffffffffffffffffffffffffff1673ffffffffffffffffffffffffffffffffffffffff16815260200190600101908083116101ca575b5050505050905090565b6111b08061040883390190565b600080fd5b6000819050919050565b61024381610230565b811461024e57600080fd5b50565b6000813590506102608161023a565b92915050565b60006020828403121561027c5761027b61022b565b5b600061028a84828501610251565b91505092915050565b600073ffffffffffffffffffffffffffffffffffffffff82169050919050565b60006102be82610293565b9050919050565b6102ce816102b3565b82525050565b60006020820190506102e960008301846102c5565b92915050565b600081519050919050565b600082825260208201905092915050565b6000819050602082019050919050565b610324816102b3565b82525050565b6000610336838361031b565b60208301905092915050565b6000602082019050919050565b600061035a826102ef565b61036481856102fa565b935061036f8361030b565b8060005b838110156103a0578151610387888261032a565b975061039283610342565b925050600181019050610373565b5085935050505092915050565b600060208201905081810360008301526103c7818461034f565b905092915050565b6103d881610230565b82525050565b60006040820190506103f360008301856103cf565b61040060208301846102c5565b939250505056fe60806040523480156200001157600080fd5b50604051620011b0380380620011b083398181016040528101906200003791906200012c565b80600160006101000a81548173ffffffffffffffffffffffffffffffffffffffff021916908373ffffffffffffffffffffffffffffffffffffffff16021790555081600381905550505062000173565b600080fd5b6000819050919050565b620000a1816200008c565b8114620000ad57600080fd5b50565b600081519050620000c18162000096565b92915050565b600073ffffffffffffffffffffffffffffffffffffffff82169050919050565b6000620000f482620000c7565b9050919050565b6200010681620000e7565b81146200011257600080fd5b50565b6000815190506200012681620000fb565b92915050565b6000806040838503121562000146576200014562000087565b5b60006200015685828601620000b0565b9250506020620001698582860162000115565b9150509250929050565b61102d80620001836000396000f3fe6080604052600436106100915760003560e01c806381d12c581161005957806381d12c58146101815780638a9cfd55146101c2578063937e09b1146101eb578063d7bb99ba14610216578063d7d1bbdb1461022057610091565b806303441006146100965780631f6d4942146100bf5780634051ddac146100fc578063481c6a751461012b5780637569b3d714610156575b600080fd5b3480156100a257600080fd5b506100bd60048036038101906100b8919061081f565b610249565b005b3480156100cb57600080fd5b506100e660048036038101906100e191906108aa565b610383565b6040516100f391906108f2565b60405180910390f35b34801561010857600080fd5b506101116103a3565b60405161012295949392919061092b565b60405180910390f35b34801561013757600080fd5b506101406103e9565b60405161014d919061097e565b60405180910390f35b34801561016257600080fd5b5061016b61040f565b6040516101789190610999565b60405180910390f35b34801561018d57600080fd5b506101a860048036038101906101a3919061081f565b610415565b6040516101b9959493929190610a44565b60405180910390f35b3480156101ce57600080fd5b506101e960048036038101906101e49190610bd3565b610500565b005b3480156101f757600080fd5b50610200610611565b60405161020d9190610999565b60405180910390f35b61021e610617565b005b34801561022c57600080fd5b506102476004803603810190610242919061081f565b610697565b005b600160009054906101000a900473ffffffffffffffffffffffffffffffffffffffff1673ffffffffffffffffffffffffffffffffffffffff163373ffffffffffffffffffffffffffffffffffffffff16146102a357600080fd5b60006004600083815260200190815260200160002090508060010160009054906101000a900460ff16156102d657600080fd5b600280546102e49190610ca0565b8160030154116102f357600080fd5b60018160010160006101000a81548160ff0219169083151502179055508060010160019054906101000a900473ffffffffffffffffffffffffffffffffffffffff1673ffffffffffffffffffffffffffffffffffffffff166108fc82600001549081150290604051600060405180830381858888f1935050505015801561037e573d6000803e3d6000fd5b505050565b60056020528060005260406000206000915054906101000a900460ff1681565b600080600080600060035447600054600254600160009054906101000a900473ffffffffffffffffffffffffffffffffffffffff16945094509450945094509091929394565b600160009054906101000a900473ffffffffffffffffffffffffffffffffffffffff1681565b60025481565b60046020528060005260406000206000915090508060000154908060010160009054906101000a900460ff16908060010160019054906101000a900473ffffffffffffffffffffffffffffffffffffffff169080600201805461047790610d00565b80601f01602080910402602001604051908101604052809291908181526020018280546104a390610d00565b80156104f05780601f106104c5576101008083540402835291602001916104f0565b820191906000526020600020905b8154815290600101906020018083116104d357829003601f168201915b5050505050908060030154905085565b600160009054906101000a900473ffffffffffffffffffffffffffffffffffffffff1673ffffffffffffffffffffffffffffffffffffffff163373ffffffffffffffffffffffffffffffffffffffff161461055a57600080fd5b60006004600080600081548092919061057290610d31565b91905055815260200190815260200160002090508281600001819055506000816003018190555060008160010160006101000a81548160ff021916908315150217905550818160010160016101000a81548173ffffffffffffffffffffffffffffffffffffffff021916908373ffffffffffffffffffffffffffffffffffffffff1602179055508381600201908161060a9190610f25565b5050505050565b60035481565b600354341161062557600080fd5b6001600560003373ffffffffffffffffffffffffffffffffffffffff1673ffffffffffffffffffffffffffffffffffffffff16815260200190815260200160002060006101000a81548160ff0219169083151502179055506002600081548092919061069090610d31565b9190505550565b6000600460008381526020019081526020016000209050600560003373ffffffffffffffffffffffffffffffffffffffff1673ffffffffffffffffffffffffffffffffffffffff16815260200190815260200160002060009054906101000a900460ff1661070457600080fd5b8060040160003373ffffffffffffffffffffffffffffffffffffffff1673ffffffffffffffffffffffffffffffffffffffff16815260200190815260200160002060009054906101000a900460ff161561075d57600080fd5b80600301600081548092919061077290610d31565b919050555060018160040160003373ffffffffffffffffffffffffffffffffffffffff1673ffffffffffffffffffffffffffffffffffffffff16815260200190815260200160002060006101000a81548160ff0219169083151502179055505050565b6000604051905090565b600080fd5b600080fd5b6000819050919050565b6107fc816107e9565b811461080757600080fd5b50565b600081359050610819816107f3565b92915050565b600060208284031215610835576108346107df565b5b60006108438482850161080a565b91505092915050565b600073ffffffffffffffffffffffffffffffffffffffff82169050919050565b60006108778261084c565b9050919050565b6108878161086c565b811461089257600080fd5b50565b6000813590506108a48161087e565b92915050565b6000602082840312156108c0576108bf6107df565b5b60006108ce84828501610895565b91505092915050565b60008115159050919050565b6108ec816108d7565b82525050565b600060208201905061090760008301846108e3565b92915050565b610916816107e9565b82525050565b6109258161086c565b82525050565b600060a082019050610940600083018861090d565b61094d602083018761090d565b61095a604083018661090d565b610967606083018561090d565b610974608083018461091c565b9695505050505050565b6000602082019050610993600083018461091c565b92915050565b60006020820190506109ae600083018461090d565b92915050565b600081519050919050565b600082825260208201905092915050565b60005b838110156109ee5780820151818401526020810190506109d3565b60008484015250505050565b6000601f19601f8301169050919050565b6000610a16826109b4565b610a2081856109bf565b9350610a308185602086016109d0565b610a39816109fa565b840191505092915050565b600060a082019050610a59600083018861090d565b610a6660208301876108e3565b610a73604083018661091c565b8181036060830152610a858185610a0b565b9050610a94608083018461090d565b9695505050505050565b600080fd5b600080fd5b7f4e487b7100000000000000000000000000000000000000000000000000000000600052604160045260246000fd5b610ae0826109fa565b810181811067ffffffffffffffff82111715610aff57610afe610aa8565b5b80604052505050565b6000610b126107d5565b9050610b1e8282610ad7565b919050565b600067ffffffffffffffff821115610b3e57610b3d610aa8565b5b610b47826109fa565b9050602081019050919050565b82818337600083830152505050565b6000610b76610b7184610b23565b610b08565b905082815260208101848484011115610b9257610b91610aa3565b5b610b9d848285610b54565b509392505050565b600082601f830112610bba57610bb9610a9e565b5b8135610bca848260208601610b63565b91505092915050565b600080600060608486031215610bec57610beb6107df565b5b600084013567ffffffffffffffff811115610c0a57610c096107e4565b5b610c1686828701610ba5565b9350506020610c278682870161080a565b9250506040610c3886828701610895565b9150509250925092565b7f4e487b7100000000000000000000000000000000000000000000000000000000600052601260045260246000fd5b7f4e487b7100000000000000000000000000000000000000000000000000000000600052601160045260246000fd5b6000610cab826107e9565b9150610cb6836107e9565b925082610cc657610cc5610c42565b5b828204905092915050565b7f4e487b7100000000000000000000000000000000000000000000000000000000600052602260045260246000fd5b60006002820490506001821680610d1857607f821691505b602082108103610d2b57610d2a610cd1565b5b50919050565b6000610d3c826107e9565b91507fffffffffffffffffffffffffffffffffffffffffffffffffffffffffffffffff8203610d6e57610d6d610c71565b5b600182019050919050565b60008190508160005260206000209050919050565b60006020601f8301049050919050565b600082821b905092915050565b600060088302610ddb7fffffffffffffffffffffffffffffffffffffffffffffffffffffffffffffffff82610d9e565b610de58683610d9e565b95508019841693508086168417925050509392505050565b6000819050919050565b6000610e22610e1d610e18846107e9565b610dfd565b6107e9565b9050919050565b6000819050919050565b610e3c83610e07565b610e50610e4882610e29565b848454610dab565b825550505050565b600090565b610e65610e58565b610e70818484610e33565b505050565b5b81811015610e9457610e89600082610e5d565b600181019050610e76565b5050565b601f821115610ed957610eaa81610d79565b610eb384610d8e565b81016020851015610ec2578190505b610ed6610ece85610d8e565b830182610e75565b50505b505050565b600082821c905092915050565b6000610efc60001984600802610ede565b1980831691505092915050565b6000610f158383610eeb565b9150826002028217905092915050565b610f2e826109b4565b67ffffffffffffffff811115610f4757610f46610aa8565b5b610f518254610d00565b610f5c828285610e98565b600060209050601f831160018114610f8f5760008415610f7d578287015190505b610f878582610f09565b865550610fef565b601f198416610f9d86610d79565b60005b82811015610fc557848901518255600182019150602085019450602081019050610fa0565b86831015610fe25784890151610fde601f891682610eeb565b8355505b6001600288020188555050505b50505050505056fea26469706673582212207cc892b3170bdf1103206e65ce7f42ee1eb55892a10568d09c45d5954ff8f73f64736f6c63430008110033a2646970667358221220f5cb4969e89ff5f59ad5d926440d3dc0a9eb53d8433090f1242957da50ea37d664736f6c63430008110033","opcodes":"PUSH1 0x80 PUSH1 0x40 MSTORE CALLVALUE DUP1 ISZERO PUSH2 0x10 JUMPI PUSH1 0x0 DUP1 REVERT JUMPDEST POP PUSH2 0x15ED DUP1 PUSH2 0x20 PUSH1 0x0 CODECOPY PUSH1 0x0 RETURN INVALID PUSH1 0x80 PUSH1 0x40 MSTORE CALLVALUE DUP1 ISZERO PUSH2 0x10 JUMPI PUSH1 0x0 DUP1 REVERT JUMPDEST POP PUSH1 0x4 CALLDATASIZE LT PUSH2 0x41 JUMPI PUSH1 0x0 CALLDATALOAD PUSH1 0xE0 SHR DUP1 PUSH4 0x339D50A5 EQ PUSH2 0x46 JUMPI DUP1 PUSH4 0xA3303A75 EQ PUSH2 0x76 JUMPI DUP1 PUSH4 0xA6B03633 EQ PUSH2 0x92 JUMPI JUMPDEST PUSH1 0x0 DUP1 REVERT JUMPDEST PUSH2 0x60 PUSH1 0x4 DUP1 CALLDATASIZE SUB DUP2 ADD SWAP1 PUSH2 0x5B SWAP2 SWAP1 PUSH2 0x266 JUMP JUMPDEST PUSH2 0xB0 JUMP JUMPDEST PUSH1 0x40 MLOAD PUSH2 0x6D SWAP2 SWAP1 PUSH2 0x2D4 JUMP JUMPDEST PUSH1 0x40 MLOAD DUP1 SWAP2 SUB SWAP1 RETURN JUMPDEST PUSH2 0x90 PUSH1 0x4 DUP1 CALLDATASIZE SUB DUP2 ADD SWAP1 PUSH2 0x8B SWAP2 SWAP1 PUSH2 0x266 JUMP JUMPDEST PUSH2 0xEF JUMP JUMPDEST STOP JUMPDEST PUSH2 0x9A PUSH2 0x190 JUMP JUMPDEST PUSH1 0x40 MLOAD PUSH2 0xA7 SWAP2 SWAP1 PUSH2 0x3AD JUMP JUMPDEST PUSH1 0x40 MLOAD DUP1 SWAP2 SUB SWAP1 RETURN JUMPDEST PUSH1 0x0 DUP2 DUP2 SLOAD DUP2 LT PUSH2 0xC0 JUMPI PUSH1 0x0 DUP1 REVERT JUMPDEST SWAP1 PUSH1 0x0 MSTORE PUSH1 0x20 PUSH1 0x0 KECCAK256 ADD PUSH1 0x0 SWAP2 POP SLOAD SWAP1 PUSH2 0x100 EXP SWAP1 DIV PUSH20 0xFFFFFFFFFFFFFFFFFFFFFFFFFFFFFFFFFFFFFFFF AND DUP2 JUMP JUMPDEST PUSH1 0x0 DUP2 CALLER PUSH1 0x40 MLOAD PUSH2 0xFF SWAP1 PUSH2 0x21E JUMP JUMPDEST PUSH2 0x10A SWAP3 SWAP2 SWAP1 PUSH2 0x3DE JUMP JUMPDEST PUSH1 0x40 MLOAD DUP1 SWAP2 SUB SWAP1 PUSH1 0x0 CREATE DUP1 ISZERO DUP1 ISZERO PUSH2 0x126 JUMPI RETURNDATASIZE PUSH1 0x0 DUP1 RETURNDATACOPY RETURNDATASIZE PUSH1 0x0 REVERT JUMPDEST POP SWAP1 POP PUSH1 0x0 DUP2 SWAP1 DUP1 PUSH1 0x1 DUP2 SLOAD ADD DUP1 DUP3 SSTORE DUP1 SWAP2 POP POP PUSH1 0x1 SWAP1 SUB SWAP1 PUSH1 0x0 MSTORE PUSH1 0x20 PUSH1 0x0 KECCAK256 ADD PUSH1 0x0 SWAP1 SWAP2 SWAP1 SWAP2 SWAP1 SWAP2 PUSH2 0x100 EXP DUP2 SLOAD DUP2 PUSH20 0xFFFFFFFFFFFFFFFFFFFFFFFFFFFFFFFFFFFFFFFF MUL NOT AND SWAP1 DUP4 PUSH20 0xFFFFFFFFFFFFFFFFFFFFFFFFFFFFFFFFFFFFFFFF AND MUL OR SWAP1 SSTORE POP POP POP JUMP JUMPDEST PUSH1 0x60 PUSH1 0x0 DUP1 SLOAD DUP1 PUSH1 0x20 MUL PUSH1 0x20 ADD PUSH1 0x40 MLOAD SWAP1 DUP2 ADD PUSH1 0x40 MSTORE DUP1 SWAP3 SWAP2 SWAP1 DUP2 DUP2 MSTORE PUSH1 0x20 ADD DUP3 DUP1 SLOAD DUP1 ISZERO PUSH2 0x214 JUMPI PUSH1 0x20 MUL DUP3 ADD SWAP2 SWAP1 PUSH1 0x0 MSTORE PUSH1 0x20 PUSH1 0x0 KECCAK256 SWAP1 JUMPDEST DUP2 PUSH1 0x0 SWAP1 SLOAD SWAP1 PUSH2 0x100 EXP SWAP1 DIV PUSH20 0xFFFFFFFFFFFFFFFFFFFFFFFFFFFFFFFFFFFFFFFF AND PUSH20 0xFFFFFFFFFFFFFFFFFFFFFFFFFFFFFFFFFFFFFFFF AND DUP2 MSTORE PUSH1 0x20 ADD SWAP1 PUSH1 0x1 ADD SWAP1 DUP1 DUP4 GT PUSH2 0x1CA JUMPI JUMPDEST POP POP POP POP POP SWAP1 POP SWAP1 JUMP JUMPDEST PUSH2 0x11B0 DUP1 PUSH2 0x408 DUP4 CODECOPY ADD SWAP1 JUMP JUMPDEST PUSH1 0x0 DUP1 REVERT JUMPDEST PUSH1 0x0 DUP2 SWAP1 POP SWAP2 SWAP1 POP JUMP JUMPDEST PUSH2 0x243 DUP2 PUSH2 0x230 JUMP JUMPDEST DUP2 EQ PUSH2 0x24E JUMPI PUSH1 0x0 DUP1 REVERT JUMPDEST POP JUMP JUMPDEST PUSH1 0x0 DUP2 CALLDATALOAD SWAP1 POP PUSH2 0x260 DUP2 PUSH2 0x23A JUMP JUMPDEST SWAP3 SWAP2 POP POP JUMP JUMPDEST PUSH1 0x0 PUSH1 0x20 DUP3 DUP5 SUB SLT ISZERO PUSH2 0x27C JUMPI PUSH2 0x27B PUSH2 0x22B JUMP JUMPDEST JUMPDEST PUSH1 0x0 PUSH2 0x28A DUP5 DUP3 DUP6 ADD PUSH2 0x251 JUMP JUMPDEST SWAP2 POP POP SWAP3 SWAP2 POP POP JUMP JUMPDEST PUSH1 0x0 PUSH20 0xFFFFFFFFFFFFFFFFFFFFFFFFFFFFFFFFFFFFFFFF DUP3 AND SWAP1 POP SWAP2 SWAP1 POP JUMP JUMPDEST PUSH1 0x0 PUSH2 0x2BE DUP3 PUSH2 0x293 JUMP JUMPDEST SWAP1 POP SWAP2 SWAP1 POP JUMP JUMPDEST PUSH2 0x2CE DUP2 PUSH2 0x2B3 JUMP JUMPDEST DUP3 MSTORE POP POP JUMP JUMPDEST PUSH1 0x0 PUSH1 0x20 DUP3 ADD SWAP1 POP PUSH2 0x2E9 PUSH1 0x0 DUP4 ADD DUP5 PUSH2 0x2C5 JUMP JUMPDEST SWAP3 SWAP2 POP POP JUMP JUMPDEST PUSH1 0x0 DUP2 MLOAD SWAP1 POP SWAP2 SWAP1 POP JUMP JUMPDEST PUSH1 0x0 DUP3 DUP3 MSTORE PUSH1 0x20 DUP3 ADD SWAP1 POP SWAP3 SWAP2 POP POP JUMP JUMPDEST PUSH1 0x0 DUP2 SWAP1 POP PUSH1 0x20 DUP3 ADD SWAP1 POP SWAP2 SWAP1 POP JUMP JUMPDEST PUSH2 0x324 DUP2 PUSH2 0x2B3 JUMP JUMPDEST DUP3 MSTORE POP POP JUMP JUMPDEST PUSH1 0x0 PUSH2 0x336 DUP4 DUP4 PUSH2 0x31B JUMP JUMPDEST PUSH1 0x20 DUP4 ADD SWAP1 POP SWAP3 SWAP2 POP POP JUMP JUMPDEST PUSH1 0x0 PUSH1 0x20 DUP3 ADD SWAP1 POP SWAP2 SWAP1 POP JUMP JUMPDEST PUSH1 0x0 PUSH2 0x35A DUP3 PUSH2 0x2EF JUMP JUMPDEST PUSH2 0x364 DUP2 DUP6 PUSH2 0x2FA JUMP JUMPDEST SWAP4 POP PUSH2 0x36F DUP4 PUSH2 0x30B JUMP JUMPDEST DUP1 PUSH1 0x0 JUMPDEST DUP4 DUP2 LT ISZERO PUSH2 0x3A0 JUMPI DUP2 MLOAD PUSH2 0x387 DUP9 DUP3 PUSH2 0x32A JUMP JUMPDEST SWAP8 POP PUSH2 0x392 DUP4 PUSH2 0x342 JUMP JUMPDEST SWAP3 POP POP PUSH1 0x1 DUP2 ADD SWAP1 POP PUSH2 0x373 JUMP JUMPDEST POP DUP6 SWAP4 POP POP POP POP SWAP3 SWAP2 POP POP JUMP JUMPDEST PUSH1 0x0 PUSH1 0x20 DUP3 ADD SWAP1 POP DUP2 DUP2 SUB PUSH1 0x0 DUP4 ADD MSTORE PUSH2 0x3C7 DUP2 DUP5 PUSH2 0x34F JUMP JUMPDEST SWAP1 POP SWAP3 SWAP2 POP POP JUMP JUMPDEST PUSH2 0x3D8 DUP2 PUSH2 0x230 JUMP JUMPDEST DUP3 MSTORE POP POP JUMP JUMPDEST PUSH1 0x0 PUSH1 0x40 DUP3 ADD SWAP1 POP PUSH2 0x3F3 PUSH1 0x0 DUP4 ADD DUP6 PUSH2 0x3CF JUMP JUMPDEST PUSH2 0x400 PUSH1 0x20 DUP4 ADD DUP5 PUSH2 0x2C5 JUMP JUMPDEST SWAP4 SWAP3 POP POP POP JUMP INVALID PUSH1 0x80 PUSH1 0x40 MSTORE CALLVALUE DUP1 ISZERO PUSH3 0x11 JUMPI PUSH1 0x0 DUP1 REVERT JUMPDEST POP PUSH1 0x40 MLOAD PUSH3 0x11B0 CODESIZE SUB DUP1 PUSH3 0x11B0 DUP4 CODECOPY DUP2 DUP2 ADD PUSH1 0x40 MSTORE DUP2 ADD SWAP1 PUSH3 0x37 SWAP2 SWAP1 PUSH3 0x12C JUMP JUMPDEST DUP1 PUSH1 0x1 PUSH1 0x0 PUSH2 0x100 EXP DUP2 SLOAD DUP2 PUSH20 0xFFFFFFFFFFFFFFFFFFFFFFFFFFFFFFFFFFFFFFFF MUL NOT AND SWAP1 DUP4 PUSH20 0xFFFFFFFFFFFFFFFFFFFFFFFFFFFFFFFFFFFFFFFF AND MUL OR SWAP1 SSTORE POP DUP2 PUSH1 0x3 DUP2 SWAP1 SSTORE POP POP POP PUSH3 0x173 JUMP JUMPDEST PUSH1 0x0 DUP1 REVERT JUMPDEST PUSH1 0x0 DUP2 SWAP1 POP SWAP2 SWAP1 POP JUMP JUMPDEST PUSH3 0xA1 DUP2 PUSH3 0x8C JUMP JUMPDEST DUP2 EQ PUSH3 0xAD JUMPI PUSH1 0x0 DUP1 REVERT JUMPDEST POP JUMP JUMPDEST PUSH1 0x0 DUP2 MLOAD SWAP1 POP PUSH3 0xC1 DUP2 PUSH3 0x96 JUMP JUMPDEST SWAP3 SWAP2 POP POP JUMP JUMPDEST PUSH1 0x0 PUSH20 0xFFFFFFFFFFFFFFFFFFFFFFFFFFFFFFFFFFFFFFFF DUP3 AND SWAP1 POP SWAP2 SWAP1 POP JUMP JUMPDEST PUSH1 0x0 PUSH3 0xF4 DUP3 PUSH3 0xC7 JUMP JUMPDEST SWAP1 POP SWAP2 SWAP1 POP JUMP JUMPDEST PUSH3 0x106 DUP2 PUSH3 0xE7 JUMP JUMPDEST DUP2 EQ PUSH3 0x112 JUMPI PUSH1 0x0 DUP1 REVERT JUMPDEST POP JUMP JUMPDEST PUSH1 0x0 DUP2 MLOAD SWAP1 POP PUSH3 0x126 DUP2 PUSH3 0xFB JUMP JUMPDEST SWAP3 SWAP2 POP POP JUMP JUMPDEST PUSH1 0x0 DUP1 PUSH1 0x40 DUP4 DUP6 SUB SLT ISZERO PUSH3 0x146 JUMPI PUSH3 0x145 PUSH3 0x87 JUMP JUMPDEST JUMPDEST PUSH1 0x0 PUSH3 0x156 DUP6 DUP3 DUP7 ADD PUSH3 0xB0 JUMP JUMPDEST SWAP3 POP POP PUSH1 0x20 PUSH3 0x169 DUP6 DUP3 DUP7 ADD PUSH3 0x115 JUMP JUMPDEST SWAP2 POP POP SWAP3 POP SWAP3 SWAP1 POP JUMP JUMPDEST PUSH2 0x102D DUP1 PUSH3 0x183 PUSH1 0x0 CODECOPY PUSH1 0x0 RETURN INVALID PUSH1 0x80 PUSH1 0x40 MSTORE PUSH1 0x4 CALLDATASIZE LT PUSH2 0x91 JUMPI PUSH1 0x0 CALLDATALOAD PUSH1 0xE0 SHR DUP1 PUSH4 0x81D12C58 GT PUSH2 0x59 JUMPI DUP1 PUSH4 0x81D12C58 EQ PUSH2 0x181 JUMPI DUP1 PUSH4 0x8A9CFD55 EQ PUSH2 0x1C2 JUMPI DUP1 PUSH4 0x937E09B1 EQ PUSH2 0x1EB JUMPI DUP1 PUSH4 0xD7BB99BA EQ PUSH2 0x216 JUMPI DUP1 PUSH4 0xD7D1BBDB EQ PUSH2 0x220 JUMPI PUSH2 0x91 JUMP JUMPDEST DUP1 PUSH4 0x3441006 EQ PUSH2 0x96 JUMPI DUP1 PUSH4 0x1F6D4942 EQ PUSH2 0xBF JUMPI DUP1 PUSH4 0x4051DDAC EQ PUSH2 0xFC JUMPI DUP1 PUSH4 0x481C6A75 EQ PUSH2 0x12B JUMPI DUP1 PUSH4 0x7569B3D7 EQ PUSH2 0x156 JUMPI JUMPDEST PUSH1 0x0 DUP1 REVERT JUMPDEST CALLVALUE DUP1 ISZERO PUSH2 0xA2 JUMPI PUSH1 0x0 DUP1 REVERT JUMPDEST POP PUSH2 0xBD PUSH1 0x4 DUP1 CALLDATASIZE SUB DUP2 ADD SWAP1 PUSH2 0xB8 SWAP2 SWAP1 PUSH2 0x81F JUMP JUMPDEST PUSH2 0x249 JUMP JUMPDEST STOP JUMPDEST CALLVALUE DUP1 ISZERO PUSH2 0xCB JUMPI PUSH1 0x0 DUP1 REVERT JUMPDEST POP PUSH2 0xE6 PUSH1 0x4 DUP1 CALLDATASIZE SUB DUP2 ADD SWAP1 PUSH2 0xE1 SWAP2 SWAP1 PUSH2 0x8AA JUMP JUMPDEST PUSH2 0x383 JUMP JUMPDEST PUSH1 0x40 MLOAD PUSH2 0xF3 SWAP2 SWAP1 PUSH2 0x8F2 JUMP JUMPDEST PUSH1 0x40 MLOAD DUP1 SWAP2 SUB SWAP1 RETURN JUMPDEST CALLVALUE DUP1 ISZERO PUSH2 0x108 JUMPI PUSH1 0x0 DUP1 REVERT JUMPDEST POP PUSH2 0x111 PUSH2 0x3A3 JUMP JUMPDEST PUSH1 0x40 MLOAD PUSH2 0x122 SWAP6 SWAP5 SWAP4 SWAP3 SWAP2 SWAP1 PUSH2 0x92B JUMP JUMPDEST PUSH1 0x40 MLOAD DUP1 SWAP2 SUB SWAP1 RETURN JUMPDEST CALLVALUE DUP1 ISZERO PUSH2 0x137 JUMPI PUSH1 0x0 DUP1 REVERT JUMPDEST POP PUSH2 0x140 PUSH2 0x3E9 JUMP JUMPDEST PUSH1 0x40 MLOAD PUSH2 0x14D SWAP2 SWAP1 PUSH2 0x97E JUMP JUMPDEST PUSH1 0x40 MLOAD DUP1 SWAP2 SUB SWAP1 RETURN JUMPDEST CALLVALUE DUP1 ISZERO PUSH2 0x162 JUMPI PUSH1 0x0 DUP1 REVERT JUMPDEST POP PUSH2 0x16B PUSH2 0x40F JUMP JUMPDEST PUSH1 0x40 MLOAD PUSH2 0x178 SWAP2 SWAP1 PUSH2 0x999 JUMP JUMPDEST PUSH1 0x40 MLOAD DUP1 SWAP2 SUB SWAP1 RETURN JUMPDEST CALLVALUE DUP1 ISZERO PUSH2 0x18D JUMPI PUSH1 0x0 DUP1 REVERT JUMPDEST POP PUSH2 0x1A8 PUSH1 0x4 DUP1 CALLDATASIZE SUB DUP2 ADD SWAP1 PUSH2 0x1A3 SWAP2 SWAP1 PUSH2 0x81F JUMP JUMPDEST PUSH2 0x415 JUMP JUMPDEST PUSH1 0x40 MLOAD PUSH2 0x1B9 SWAP6 SWAP5 SWAP4 SWAP3 SWAP2 SWAP1 PUSH2 0xA44 JUMP JUMPDEST PUSH1 0x40 MLOAD DUP1 SWAP2 SUB SWAP1 RETURN JUMPDEST CALLVALUE DUP1 ISZERO PUSH2 0x1CE JUMPI PUSH1 0x0 DUP1 REVERT JUMPDEST POP PUSH2 0x1E9 PUSH1 0x4 DUP1 CALLDATASIZE SUB DUP2 ADD SWAP1 PUSH2 0x1E4 SWAP2 SWAP1 PUSH2 0xBD3 JUMP JUMPDEST PUSH2 0x500 JUMP JUMPDEST STOP JUMPDEST CALLVALUE DUP1 ISZERO PUSH2 0x1F7 JUMPI PUSH1 0x0 DUP1 REVERT JUMPDEST POP PUSH2 0x200 PUSH2 0x611 JUMP JUMPDEST PUSH1 0x40 MLOAD PUSH2 0x20D SWAP2 SWAP1 PUSH2 0x999 JUMP JUMPDEST PUSH1 0x40 MLOAD DUP1 SWAP2 SUB SWAP1 RETURN JUMPDEST PUSH2 0x21E PUSH2 0x617 JUMP JUMPDEST STOP JUMPDEST CALLVALUE DUP1 ISZERO PUSH2 0x22C JUMPI PUSH1 0x0 DUP1 REVERT JUMPDEST POP PUSH2 0x247 PUSH1 0x4 DUP1 CALLDATASIZE SUB DUP2 ADD SWAP1 PUSH2 0x242 SWAP2 SWAP1 PUSH2 0x81F JUMP JUMPDEST PUSH2 0x697 JUMP JUMPDEST STOP JUMPDEST PUSH1 0x1 PUSH1 0x0 SWAP1 SLOAD SWAP1 PUSH2 0x100 EXP SWAP1 DIV PUSH20 0xFFFFFFFFFFFFFFFFFFFFFFFFFFFFFFFFFFFFFFFF AND PUSH20 0xFFFFFFFFFFFFFFFFFFFFFFFFFFFFFFFFFFFFFFFF AND CALLER PUSH20 0xFFFFFFFFFFFFFFFFFFFFFFFFFFFFFFFFFFFFFFFF AND EQ PUSH2 0x2A3 JUMPI PUSH1 0x0 DUP1 REVERT JUMPDEST PUSH1 0x0 PUSH1 0x4 PUSH1 0x0 DUP4 DUP2 MSTORE PUSH1 0x20 ADD SWAP1 DUP2 MSTORE PUSH1 0x20 ADD PUSH1 0x0 KECCAK256 SWAP1 POP DUP1 PUSH1 0x1 ADD PUSH1 0x0 SWAP1 SLOAD SWAP1 PUSH2 0x100 EXP SWAP1 DIV PUSH1 0xFF AND ISZERO PUSH2 0x2D6 JUMPI PUSH1 0x0 DUP1 REVERT JUMPDEST PUSH1 0x2 DUP1 SLOAD PUSH2 0x2E4 SWAP2 SWAP1 PUSH2 0xCA0 JUMP JUMPDEST DUP2 PUSH1 0x3 ADD SLOAD GT PUSH2 0x2F3 JUMPI PUSH1 0x0 DUP1 REVERT JUMPDEST PUSH1 0x1 DUP2 PUSH1 0x1 ADD PUSH1 0x0 PUSH2 0x100 EXP DUP2 SLOAD DUP2 PUSH1 0xFF MUL NOT AND SWAP1 DUP4 ISZERO ISZERO MUL OR SWAP1 SSTORE POP DUP1 PUSH1 0x1 ADD PUSH1 0x1 SWAP1 SLOAD SWAP1 PUSH2 0x100 EXP SWAP1 DIV PUSH20 0xFFFFFFFFFFFFFFFFFFFFFFFFFFFFFFFFFFFFFFFF AND PUSH20 0xFFFFFFFFFFFFFFFFFFFFFFFFFFFFFFFFFFFFFFFF AND PUSH2 0x8FC DUP3 PUSH1 0x0 ADD SLOAD SWAP1 DUP2 ISZERO MUL SWAP1 PUSH1 0x40 MLOAD PUSH1 0x0 PUSH1 0x40 MLOAD DUP1 DUP4 SUB DUP2 DUP6 DUP9 DUP9 CALL SWAP4 POP POP POP POP ISZERO DUP1 ISZERO PUSH2 0x37E JUMPI RETURNDATASIZE PUSH1 0x0 DUP1 RETURNDATACOPY RETURNDATASIZE PUSH1 0x0 REVERT JUMPDEST POP POP POP JUMP JUMPDEST PUSH1 0x5 PUSH1 0x20 MSTORE DUP1 PUSH1 0x0 MSTORE PUSH1 0x40 PUSH1 0x0 KECCAK256 PUSH1 0x0 SWAP2 POP SLOAD SWAP1 PUSH2 0x100 EXP SWAP1 DIV PUSH1 0xFF AND DUP2 JUMP JUMPDEST PUSH1 0x0 DUP1 PUSH1 0x0 DUP1 PUSH1 0x0 PUSH1 0x3 SLOAD SELFBALANCE PUSH1 0x0 SLOAD PUSH1 0x2 SLOAD PUSH1 0x1 PUSH1 0x0 SWAP1 SLOAD SWAP1 PUSH2 0x100 EXP SWAP1 DIV PUSH20 0xFFFFFFFFFFFFFFFFFFFFFFFFFFFFFFFFFFFFFFFF AND SWAP5 POP SWAP5 POP SWAP5 POP SWAP5 POP SWAP5 POP SWAP1 SWAP2 SWAP3 SWAP4 SWAP5 JUMP JUMPDEST PUSH1 0x1 PUSH1 0x0 SWAP1 SLOAD SWAP1 PUSH2 0x100 EXP SWAP1 DIV PUSH20 0xFFFFFFFFFFFFFFFFFFFFFFFFFFFFFFFFFFFFFFFF AND DUP2 JUMP JUMPDEST PUSH1 0x2 SLOAD DUP2 JUMP JUMPDEST PUSH1 0x4 PUSH1 0x20 MSTORE DUP1 PUSH1 0x0 MSTORE PUSH1 0x40 PUSH1 0x0 KECCAK256 PUSH1 0x0 SWAP2 POP SWAP1 POP DUP1 PUSH1 0x0 ADD SLOAD SWAP1 DUP1 PUSH1 0x1 ADD PUSH1 0x0 SWAP1 SLOAD SWAP1 PUSH2 0x100 EXP SWAP1 DIV PUSH1 0xFF AND SWAP1 DUP1 PUSH1 0x1 ADD PUSH1 0x1 SWAP1 SLOAD SWAP1 PUSH2 0x100 EXP SWAP1 DIV PUSH20 0xFFFFFFFFFFFFFFFFFFFFFFFFFFFFFFFFFFFFFFFF AND SWAP1 DUP1 PUSH1 0x2 ADD DUP1 SLOAD PUSH2 0x477 SWAP1 PUSH2 0xD00 JUMP JUMPDEST DUP1 PUSH1 0x1F ADD PUSH1 0x20 DUP1 SWAP2 DIV MUL PUSH1 0x20 ADD PUSH1 0x40 MLOAD SWAP1 DUP2 ADD PUSH1 0x40 MSTORE DUP1 SWAP3 SWAP2 SWAP1 DUP2 DUP2 MSTORE PUSH1 0x20 ADD DUP3 DUP1 SLOAD PUSH2 0x4A3 SWAP1 PUSH2 0xD00 JUMP JUMPDEST DUP1 ISZERO PUSH2 0x4F0 JUMPI DUP1 PUSH1 0x1F LT PUSH2 0x4C5 JUMPI PUSH2 0x100 DUP1 DUP4 SLOAD DIV MUL DUP4 MSTORE SWAP2 PUSH1 0x20 ADD SWAP2 PUSH2 0x4F0 JUMP JUMPDEST DUP3 ADD SWAP2 SWAP1 PUSH1 0x0 MSTORE PUSH1 0x20 PUSH1 0x0 KECCAK256 SWAP1 JUMPDEST DUP2 SLOAD DUP2 MSTORE SWAP1 PUSH1 0x1 ADD SWAP1 PUSH1 0x20 ADD DUP1 DUP4 GT PUSH2 0x4D3 JUMPI DUP3 SWAP1 SUB PUSH1 0x1F AND DUP3 ADD SWAP2 JUMPDEST POP POP POP POP POP SWAP1 DUP1 PUSH1 0x3 ADD SLOAD SWAP1 POP DUP6 JUMP JUMPDEST PUSH1 0x1 PUSH1 0x0 SWAP1 SLOAD SWAP1 PUSH2 0x100 EXP SWAP1 DIV PUSH20 0xFFFFFFFFFFFFFFFFFFFFFFFFFFFFFFFFFFFFFFFF AND PUSH20 0xFFFFFFFFFFFFFFFFFFFFFFFFFFFFFFFFFFFFFFFF AND CALLER PUSH20 0xFFFFFFFFFFFFFFFFFFFFFFFFFFFFFFFFFFFFFFFF AND EQ PUSH2 0x55A JUMPI PUSH1 0x0 DUP1 REVERT JUMPDEST PUSH1 0x0 PUSH1 0x4 PUSH1 0x0 DUP1 PUSH1 0x0 DUP2 SLOAD DUP1 SWAP3 SWAP2 SWAP1 PUSH2 0x572 SWAP1 PUSH2 0xD31 JUMP JUMPDEST SWAP2 SWAP1 POP SSTORE DUP2 MSTORE PUSH1 0x20 ADD SWAP1 DUP2 MSTORE PUSH1 0x20 ADD PUSH1 0x0 KECCAK256 SWAP1 POP DUP3 DUP2 PUSH1 0x0 ADD DUP2 SWAP1 SSTORE POP PUSH1 0x0 DUP2 PUSH1 0x3 ADD DUP2 SWAP1 SSTORE POP PUSH1 0x0 DUP2 PUSH1 0x1 ADD PUSH1 0x0 PUSH2 0x100 EXP DUP2 SLOAD DUP2 PUSH1 0xFF MUL NOT AND SWAP1 DUP4 ISZERO ISZERO MUL OR SWAP1 SSTORE POP DUP2 DUP2 PUSH1 0x1 ADD PUSH1 0x1 PUSH2 0x100 EXP DUP2 SLOAD DUP2 PUSH20 0xFFFFFFFFFFFFFFFFFFFFFFFFFFFFFFFFFFFFFFFF MUL NOT AND SWAP1 DUP4 PUSH20 0xFFFFFFFFFFFFFFFFFFFFFFFFFFFFFFFFFFFFFFFF AND MUL OR SWAP1 SSTORE POP DUP4 DUP2 PUSH1 0x2 ADD SWAP1 DUP2 PUSH2 0x60A SWAP2 SWAP1 PUSH2 0xF25 JUMP JUMPDEST POP POP POP POP POP JUMP JUMPDEST PUSH1 0x3 SLOAD DUP2 JUMP JUMPDEST PUSH1 0x3 SLOAD CALLVALUE GT PUSH2 0x625 JUMPI PUSH1 0x0 DUP1 REVERT JUMPDEST PUSH1 0x1 PUSH1 0x5 PUSH1 0x0 CALLER PUSH20 0xFFFFFFFFFFFFFFFFFFFFFFFFFFFFFFFFFFFFFFFF AND PUSH20 0xFFFFFFFFFFFFFFFFFFFFFFFFFFFFFFFFFFFFFFFF AND DUP2 MSTORE PUSH1 0x20 ADD SWAP1 DUP2 MSTORE PUSH1 0x20 ADD PUSH1 0x0 KECCAK256 PUSH1 0x0 PUSH2 0x100 EXP DUP2 SLOAD DUP2 PUSH1 0xFF MUL NOT AND SWAP1 DUP4 ISZERO ISZERO MUL OR SWAP1 SSTORE POP PUSH1 0x2 PUSH1 0x0 DUP2 SLOAD DUP1 SWAP3 SWAP2 SWAP1 PUSH2 0x690 SWAP1 PUSH2 0xD31 JUMP JUMPDEST SWAP2 SWAP1 POP SSTORE POP JUMP JUMPDEST PUSH1 0x0 PUSH1 0x4 PUSH1 0x0 DUP4 DUP2 MSTORE PUSH1 0x20 ADD SWAP1 DUP2 MSTORE PUSH1 0x20 ADD PUSH1 0x0 KECCAK256 SWAP1 POP PUSH1 0x5 PUSH1 0x0 CALLER PUSH20 0xFFFFFFFFFFFFFFFFFFFFFFFFFFFFFFFFFFFFFFFF AND PUSH20 0xFFFFFFFFFFFFFFFFFFFFFFFFFFFFFFFFFFFFFFFF AND DUP2 MSTORE PUSH1 0x20 ADD SWAP1 DUP2 MSTORE PUSH1 0x20 ADD PUSH1 0x0 KECCAK256 PUSH1 0x0 SWAP1 SLOAD SWAP1 PUSH2 0x100 EXP SWAP1 DIV PUSH1 0xFF AND PUSH2 0x704 JUMPI PUSH1 0x0 DUP1 REVERT JUMPDEST DUP1 PUSH1 0x4 ADD PUSH1 0x0 CALLER PUSH20 0xFFFFFFFFFFFFFFFFFFFFFFFFFFFFFFFFFFFFFFFF AND PUSH20 0xFFFFFFFFFFFFFFFFFFFFFFFFFFFFFFFFFFFFFFFF AND DUP2 MSTORE PUSH1 0x20 ADD SWAP1 DUP2 MSTORE PUSH1 0x20 ADD PUSH1 0x0 KECCAK256 PUSH1 0x0 SWAP1 SLOAD SWAP1 PUSH2 0x100 EXP SWAP1 DIV PUSH1 0xFF AND ISZERO PUSH2 0x75D JUMPI PUSH1 0x0 DUP1 REVERT JUMPDEST DUP1 PUSH1 0x3 ADD PUSH1 0x0 DUP2 SLOAD DUP1 SWAP3 SWAP2 SWAP1 PUSH2 0x772 SWAP1 PUSH2 0xD31 JUMP JUMPDEST SWAP2 SWAP1 POP SSTORE POP PUSH1 0x1 DUP2 PUSH1 0x4 ADD PUSH1 0x0 CALLER PUSH20 0xFFFFFFFFFFFFFFFFFFFFFFFFFFFFFFFFFFFFFFFF AND PUSH20 0xFFFFFFFFFFFFFFFFFFFFFFFFFFFFFFFFFFFFFFFF AND DUP2 MSTORE PUSH1 0x20 ADD SWAP1 DUP2 MSTORE PUSH1 0x20 ADD PUSH1 0x0 KECCAK256 PUSH1 0x0 PUSH2 0x100 EXP DUP2 SLOAD DUP2 PUSH1 0xFF MUL NOT AND SWAP1 DUP4 ISZERO ISZERO MUL OR SWAP1 SSTORE POP POP POP JUMP JUMPDEST PUSH1 0x0 PUSH1 0x40 MLOAD SWAP1 POP SWAP1 JUMP JUMPDEST PUSH1 0x0 DUP1 REVERT JUMPDEST PUSH1 0x0 DUP1 REVERT JUMPDEST PUSH1 0x0 DUP2 SWAP1 POP SWAP2 SWAP1 POP JUMP JUMPDEST PUSH2 0x7FC DUP2 PUSH2 0x7E9 JUMP JUMPDEST DUP2 EQ PUSH2 0x807 JUMPI PUSH1 0x0 DUP1 REVERT JUMPDEST POP JUMP JUMPDEST PUSH1 0x0 DUP2 CALLDATALOAD SWAP1 POP PUSH2 0x819 DUP2 PUSH2 0x7F3 JUMP JUMPDEST SWAP3 SWAP2 POP POP JUMP JUMPDEST PUSH1 0x0 PUSH1 0x20 DUP3 DUP5 SUB SLT ISZERO PUSH2 0x835 JUMPI PUSH2 0x834 PUSH2 0x7DF JUMP JUMPDEST JUMPDEST PUSH1 0x0 PUSH2 0x843 DUP5 DUP3 DUP6 ADD PUSH2 0x80A JUMP JUMPDEST SWAP2 POP POP SWAP3 SWAP2 POP POP JUMP JUMPDEST PUSH1 0x0 PUSH20 0xFFFFFFFFFFFFFFFFFFFFFFFFFFFFFFFFFFFFFFFF DUP3 AND SWAP1 POP SWAP2 SWAP1 POP JUMP JUMPDEST PUSH1 0x0 PUSH2 0x877 DUP3 PUSH2 0x84C JUMP JUMPDEST SWAP1 POP SWAP2 SWAP1 POP JUMP JUMPDEST PUSH2 0x887 DUP2 PUSH2 0x86C JUMP JUMPDEST DUP2 EQ PUSH2 0x892 JUMPI PUSH1 0x0 DUP1 REVERT JUMPDEST POP JUMP JUMPDEST PUSH1 0x0 DUP2 CALLDATALOAD SWAP1 POP PUSH2 0x8A4 DUP2 PUSH2 0x87E JUMP JUMPDEST SWAP3 SWAP2 POP POP JUMP JUMPDEST PUSH1 0x0 PUSH1 0x20 DUP3 DUP5 SUB SLT ISZERO PUSH2 0x8C0 JUMPI PUSH2 0x8BF PUSH2 0x7DF JUMP JUMPDEST JUMPDEST PUSH1 0x0 PUSH2 0x8CE DUP5 DUP3 DUP6 ADD PUSH2 0x895 JUMP JUMPDEST SWAP2 POP POP SWAP3 SWAP2 POP POP JUMP JUMPDEST PUSH1 0x0 DUP2 ISZERO ISZERO SWAP1 POP SWAP2 SWAP1 POP JUMP JUMPDEST PUSH2 0x8EC DUP2 PUSH2 0x8D7 JUMP JUMPDEST DUP3 MSTORE POP POP JUMP JUMPDEST PUSH1 0x0 PUSH1 0x20 DUP3 ADD SWAP1 POP PUSH2 0x907 PUSH1 0x0 DUP4 ADD DUP5 PUSH2 0x8E3 JUMP JUMPDEST SWAP3 SWAP2 POP POP JUMP JUMPDEST PUSH2 0x916 DUP2 PUSH2 0x7E9 JUMP JUMPDEST DUP3 MSTORE POP POP JUMP JUMPDEST PUSH2 0x925 DUP2 PUSH2 0x86C JUMP JUMPDEST DUP3 MSTORE POP POP JUMP JUMPDEST PUSH1 0x0 PUSH1 0xA0 DUP3 ADD SWAP1 POP PUSH2 0x940 PUSH1 0x0 DUP4 ADD DUP9 PUSH2 0x90D JUMP JUMPDEST PUSH2 0x94D PUSH1 0x20 DUP4 ADD DUP8 PUSH2 0x90D JUMP JUMPDEST PUSH2 0x95A PUSH1 0x40 DUP4 ADD DUP7 PUSH2 0x90D JUMP JUMPDEST PUSH2 0x967 PUSH1 0x60 DUP4 ADD DUP6 PUSH2 0x90D JUMP JUMPDEST PUSH2 0x974 PUSH1 0x80 DUP4 ADD DUP5 PUSH2 0x91C JUMP JUMPDEST SWAP7 SWAP6 POP POP POP POP POP POP JUMP JUMPDEST PUSH1 0x0 PUSH1 0x20 DUP3 ADD SWAP1 POP PUSH2 0x993 PUSH1 0x0 DUP4 ADD DUP5 PUSH2 0x91C JUMP JUMPDEST SWAP3 SWAP2 POP POP JUMP JUMPDEST PUSH1 0x0 PUSH1 0x20 DUP3 ADD SWAP1 POP PUSH2 0x9AE PUSH1 0x0 DUP4 ADD DUP5 PUSH2 0x90D JUMP JUMPDEST SWAP3 SWAP2 POP POP JUMP JUMPDEST PUSH1 0x0 DUP2 MLOAD SWAP1 POP SWAP2 SWAP1 POP JUMP JUMPDEST PUSH1 0x0 DUP3 DUP3 MSTORE PUSH1 0x20 DUP3 ADD SWAP1 POP SWAP3 SWAP2 POP POP JUMP JUMPDEST PUSH1 0x0 JUMPDEST DUP4 DUP2 LT ISZERO PUSH2 0x9EE JUMPI DUP1 DUP3 ADD MLOAD DUP2 DUP5 ADD MSTORE PUSH1 0x20 DUP2 ADD SWAP1 POP PUSH2 0x9D3 JUMP JUMPDEST PUSH1 0x0 DUP5 DUP5 ADD MSTORE POP POP POP POP JUMP JUMPDEST PUSH1 0x0 PUSH1 0x1F NOT PUSH1 0x1F DUP4 ADD AND SWAP1 POP SWAP2 SWAP1 POP JUMP JUMPDEST PUSH1 0x0 PUSH2 0xA16 DUP3 PUSH2 0x9B4 JUMP JUMPDEST PUSH2 0xA20 DUP2 DUP6 PUSH2 0x9BF JUMP JUMPDEST SWAP4 POP PUSH2 0xA30 DUP2 DUP6 PUSH1 0x20 DUP7 ADD PUSH2 0x9D0 JUMP JUMPDEST PUSH2 0xA39 DUP2 PUSH2 0x9FA JUMP JUMPDEST DUP5 ADD SWAP2 POP POP SWAP3 SWAP2 POP POP JUMP JUMPDEST PUSH1 0x0 PUSH1 0xA0 DUP3 ADD SWAP1 POP PUSH2 0xA59 PUSH1 0x0 DUP4 ADD DUP9 PUSH2 0x90D JUMP JUMPDEST PUSH2 0xA66 PUSH1 0x20 DUP4 ADD DUP8 PUSH2 0x8E3 JUMP JUMPDEST PUSH2 0xA73 PUSH1 0x40 DUP4 ADD DUP7 PUSH2 0x91C JUMP JUMPDEST DUP2 DUP2 SUB PUSH1 0x60 DUP4 ADD MSTORE PUSH2 0xA85 DUP2 DUP6 PUSH2 0xA0B JUMP JUMPDEST SWAP1 POP PUSH2 0xA94 PUSH1 0x80 DUP4 ADD DUP5 PUSH2 0x90D JUMP JUMPDEST SWAP7 SWAP6 POP POP POP POP POP POP JUMP JUMPDEST PUSH1 0x0 DUP1 REVERT JUMPDEST PUSH1 0x0 DUP1 REVERT JUMPDEST PUSH32 0x4E487B7100000000000000000000000000000000000000000000000000000000 PUSH1 0x0 MSTORE PUSH1 0x41 PUSH1 0x4 MSTORE PUSH1 0x24 PUSH1 0x0 REVERT JUMPDEST PUSH2 0xAE0 DUP3 PUSH2 0x9FA JUMP JUMPDEST DUP2 ADD DUP2 DUP2 LT PUSH8 0xFFFFFFFFFFFFFFFF DUP3 GT OR ISZERO PUSH2 0xAFF JUMPI PUSH2 0xAFE PUSH2 0xAA8 JUMP JUMPDEST JUMPDEST DUP1 PUSH1 0x40 MSTORE POP POP POP JUMP JUMPDEST PUSH1 0x0 PUSH2 0xB12 PUSH2 0x7D5 JUMP JUMPDEST SWAP1 POP PUSH2 0xB1E DUP3 DUP3 PUSH2 0xAD7 JUMP JUMPDEST SWAP2 SWAP1 POP JUMP JUMPDEST PUSH1 0x0 PUSH8 0xFFFFFFFFFFFFFFFF DUP3 GT ISZERO PUSH2 0xB3E JUMPI PUSH2 0xB3D PUSH2 0xAA8 JUMP JUMPDEST JUMPDEST PUSH2 0xB47 DUP3 PUSH2 0x9FA JUMP JUMPDEST SWAP1 POP PUSH1 0x20 DUP2 ADD SWAP1 POP SWAP2 SWAP1 POP JUMP JUMPDEST DUP3 DUP2 DUP4 CALLDATACOPY PUSH1 0x0 DUP4 DUP4 ADD MSTORE POP POP POP JUMP JUMPDEST PUSH1 0x0 PUSH2 0xB76 PUSH2 0xB71 DUP5 PUSH2 0xB23 JUMP JUMPDEST PUSH2 0xB08 JUMP JUMPDEST SWAP1 POP DUP3 DUP2 MSTORE PUSH1 0x20 DUP2 ADD DUP5 DUP5 DUP5 ADD GT ISZERO PUSH2 0xB92 JUMPI PUSH2 0xB91 PUSH2 0xAA3 JUMP JUMPDEST JUMPDEST PUSH2 0xB9D DUP5 DUP3 DUP6 PUSH2 0xB54 JUMP JUMPDEST POP SWAP4 SWAP3 POP POP POP JUMP JUMPDEST PUSH1 0x0 DUP3 PUSH1 0x1F DUP4 ADD SLT PUSH2 0xBBA JUMPI PUSH2 0xBB9 PUSH2 0xA9E JUMP JUMPDEST JUMPDEST DUP2 CALLDATALOAD PUSH2 0xBCA DUP5 DUP3 PUSH1 0x20 DUP7 ADD PUSH2 0xB63 JUMP JUMPDEST SWAP2 POP POP SWAP3 SWAP2 POP POP JUMP JUMPDEST PUSH1 0x0 DUP1 PUSH1 0x0 PUSH1 0x60 DUP5 DUP7 SUB SLT ISZERO PUSH2 0xBEC JUMPI PUSH2 0xBEB PUSH2 0x7DF JUMP JUMPDEST JUMPDEST PUSH1 0x0 DUP5 ADD CALLDATALOAD PUSH8 0xFFFFFFFFFFFFFFFF DUP2 GT ISZERO PUSH2 0xC0A JUMPI PUSH2 0xC09 PUSH2 0x7E4 JUMP JUMPDEST JUMPDEST PUSH2 0xC16 DUP7 DUP3 DUP8 ADD PUSH2 0xBA5 JUMP JUMPDEST SWAP4 POP POP PUSH1 0x20 PUSH2 0xC27 DUP7 DUP3 DUP8 ADD PUSH2 0x80A JUMP JUMPDEST SWAP3 POP POP PUSH1 0x40 PUSH2 0xC38 DUP7 DUP3 DUP8 ADD PUSH2 0x895 JUMP JUMPDEST SWAP2 POP POP SWAP3 POP SWAP3 POP SWAP3 JUMP JUMPDEST PUSH32 0x4E487B7100000000000000000000000000000000000000000000000000000000 PUSH1 0x0 MSTORE PUSH1 0x12 PUSH1 0x4 MSTORE PUSH1 0x24 PUSH1 0x0 REVERT JUMPDEST PUSH32 0x4E487B7100000000000000000000000000000000000000000000000000000000 PUSH1 0x0 MSTORE PUSH1 0x11 PUSH1 0x4 MSTORE PUSH1 0x24 PUSH1 0x0 REVERT JUMPDEST PUSH1 0x0 PUSH2 0xCAB DUP3 PUSH2 0x7E9 JUMP JUMPDEST SWAP2 POP PUSH2 0xCB6 DUP4 PUSH2 0x7E9 JUMP JUMPDEST SWAP3 POP DUP3 PUSH2 0xCC6 JUMPI PUSH2 0xCC5 PUSH2 0xC42 JUMP JUMPDEST JUMPDEST DUP3 DUP3 DIV SWAP1 POP SWAP3 SWAP2 POP POP JUMP JUMPDEST PUSH32 0x4E487B7100000000000000000000000000000000000000000000000000000000 PUSH1 0x0 MSTORE PUSH1 0x22 PUSH1 0x4 MSTORE PUSH1 0x24 PUSH1 0x0 REVERT JUMPDEST PUSH1 0x0 PUSH1 0x2 DUP3 DIV SWAP1 POP PUSH1 0x1 DUP3 AND DUP1 PUSH2 0xD18 JUMPI PUSH1 0x7F DUP3 AND SWAP2 POP JUMPDEST PUSH1 0x20 DUP3 LT DUP2 SUB PUSH2 0xD2B JUMPI PUSH2 0xD2A PUSH2 0xCD1 JUMP JUMPDEST JUMPDEST POP SWAP2 SWAP1 POP JUMP JUMPDEST PUSH1 0x0 PUSH2 0xD3C DUP3 PUSH2 0x7E9 JUMP JUMPDEST SWAP2 POP PUSH32 0xFFFFFFFFFFFFFFFFFFFFFFFFFFFFFFFFFFFFFFFFFFFFFFFFFFFFFFFFFFFFFFFF DUP3 SUB PUSH2 0xD6E JUMPI PUSH2 0xD6D PUSH2 0xC71 JUMP JUMPDEST JUMPDEST PUSH1 0x1 DUP3 ADD SWAP1 POP SWAP2 SWAP1 POP JUMP JUMPDEST PUSH1 0x0 DUP2 SWAP1 POP DUP2 PUSH1 0x0 MSTORE PUSH1 0x20 PUSH1 0x0 KECCAK256 SWAP1 POP SWAP2 SWAP1 POP JUMP JUMPDEST PUSH1 0x0 PUSH1 0x20 PUSH1 0x1F DUP4 ADD DIV SWAP1 POP SWAP2 SWAP1 POP JUMP JUMPDEST PUSH1 0x0 DUP3 DUP3 SHL SWAP1 POP SWAP3 SWAP2 POP POP JUMP JUMPDEST PUSH1 0x0 PUSH1 0x8 DUP4 MUL PUSH2 0xDDB PUSH32 0xFFFFFFFFFFFFFFFFFFFFFFFFFFFFFFFFFFFFFFFFFFFFFFFFFFFFFFFFFFFFFFFF DUP3 PUSH2 0xD9E JUMP JUMPDEST PUSH2 0xDE5 DUP7 DUP4 PUSH2 0xD9E JUMP JUMPDEST SWAP6 POP DUP1 NOT DUP5 AND SWAP4 POP DUP1 DUP7 AND DUP5 OR SWAP3 POP POP POP SWAP4 SWAP3 POP POP POP JUMP JUMPDEST PUSH1 0x0 DUP2 SWAP1 POP SWAP2 SWAP1 POP JUMP JUMPDEST PUSH1 0x0 PUSH2 0xE22 PUSH2 0xE1D PUSH2 0xE18 DUP5 PUSH2 0x7E9 JUMP JUMPDEST PUSH2 0xDFD JUMP JUMPDEST PUSH2 0x7E9 JUMP JUMPDEST SWAP1 POP SWAP2 SWAP1 POP JUMP JUMPDEST PUSH1 0x0 DUP2 SWAP1 POP SWAP2 SWAP1 POP JUMP JUMPDEST PUSH2 0xE3C DUP4 PUSH2 0xE07 JUMP JUMPDEST PUSH2 0xE50 PUSH2 0xE48 DUP3 PUSH2 0xE29 JUMP JUMPDEST DUP5 DUP5 SLOAD PUSH2 0xDAB JUMP JUMPDEST DUP3 SSTORE POP POP POP POP JUMP JUMPDEST PUSH1 0x0 SWAP1 JUMP JUMPDEST PUSH2 0xE65 PUSH2 0xE58 JUMP JUMPDEST PUSH2 0xE70 DUP2 DUP5 DUP5 PUSH2 0xE33 JUMP JUMPDEST POP POP POP JUMP JUMPDEST JUMPDEST DUP2 DUP2 LT ISZERO PUSH2 0xE94 JUMPI PUSH2 0xE89 PUSH1 0x0 DUP3 PUSH2 0xE5D JUMP JUMPDEST PUSH1 0x1 DUP2 ADD SWAP1 POP PUSH2 0xE76 JUMP JUMPDEST POP POP JUMP JUMPDEST PUSH1 0x1F DUP3 GT ISZERO PUSH2 0xED9 JUMPI PUSH2 0xEAA DUP2 PUSH2 0xD79 JUMP JUMPDEST PUSH2 0xEB3 DUP5 PUSH2 0xD8E JUMP JUMPDEST DUP2 ADD PUSH1 0x20 DUP6 LT ISZERO PUSH2 0xEC2 JUMPI DUP2 SWAP1 POP JUMPDEST PUSH2 0xED6 PUSH2 0xECE DUP6 PUSH2 0xD8E JUMP JUMPDEST DUP4 ADD DUP3 PUSH2 0xE75 JUMP JUMPDEST POP POP JUMPDEST POP POP POP JUMP JUMPDEST PUSH1 0x0 DUP3 DUP3 SHR SWAP1 POP SWAP3 SWAP2 POP POP JUMP JUMPDEST PUSH1 0x0 PUSH2 0xEFC PUSH1 0x0 NOT DUP5 PUSH1 0x8 MUL PUSH2 0xEDE JUMP JUMPDEST NOT DUP1 DUP4 AND SWAP2 POP POP SWAP3 SWAP2 POP POP JUMP JUMPDEST PUSH1 0x0 PUSH2 0xF15 DUP4 DUP4 PUSH2 0xEEB JUMP JUMPDEST SWAP2 POP DUP3 PUSH1 0x2 MUL DUP3 OR SWAP1 POP SWAP3 SWAP2 POP POP JUMP JUMPDEST PUSH2 0xF2E DUP3 PUSH2 0x9B4 JUMP JUMPDEST PUSH8 0xFFFFFFFFFFFFFFFF DUP2 GT ISZERO PUSH2 0xF47 JUMPI PUSH2 0xF46 PUSH2 0xAA8 JUMP JUMPDEST JUMPDEST PUSH2 0xF51 DUP3 SLOAD PUSH2 0xD00 JUMP JUMPDEST PUSH2 0xF5C DUP3 DUP3 DUP6 PUSH2 0xE98 JUMP JUMPDEST PUSH1 0x0 PUSH1 0x20 SWAP1 POP PUSH1 0x1F DUP4 GT PUSH1 0x1 DUP2 EQ PUSH2 0xF8F JUMPI PUSH1 0x0 DUP5 ISZERO PUSH2 0xF7D JUMPI DUP3 DUP8 ADD MLOAD SWAP1 POP JUMPDEST PUSH2 0xF87 DUP6 DUP3 PUSH2 0xF09 JUMP JUMPDEST DUP7 SSTORE POP PUSH2 0xFEF JUMP JUMPDEST PUSH1 0x1F NOT DUP5 AND PUSH2 0xF9D DUP7 PUSH2 0xD79 JUMP JUMPDEST PUSH1 0x0 JUMPDEST DUP3 DUP2 LT ISZERO PUSH2 0xFC5 JUMPI DUP5 DUP10 ADD MLOAD DUP3 SSTORE PUSH1 0x1 DUP3 ADD SWAP2 POP PUSH1 0x20 DUP6 ADD SWAP5 POP PUSH1 0x20 DUP2 ADD SWAP1 POP PUSH2 0xFA0 JUMP JUMPDEST DUP7 DUP4 LT ISZERO PUSH2 0xFE2 JUMPI DUP5 DUP10 ADD MLOAD PUSH2 0xFDE PUSH1 0x1F DUP10 AND DUP3 PUSH2 0xEEB JUMP JUMPDEST DUP4 SSTORE POP JUMPDEST PUSH1 0x1 PUSH1 0x2 DUP9 MUL ADD DUP9 SSTORE POP POP POP JUMPDEST POP POP POP POP POP POP JUMP INVALID LOG2 PUSH5 0x6970667358 0x22 SLT KECCAK256 PUSH29 0xC892B3170BDF1103206E65CE7F42EE1EB55892A10568D09C45D5954FF8 0xF7 EXTCODEHASH PUSH5 0x736F6C6343 STOP ADDMOD GT STOP CALLER LOG2 PUSH5 0x6970667358 0x22 SLT KECCAK256 CREATE2 0xCB 0x49 PUSH10 0xE89FF5F59AD5D926440D RETURNDATASIZE 0xC0 0xA9 0xEB MSTORE8 0xD8 NUMBER ADDRESS SWAP1 CALL 0x24 0x29 JUMPI 0xDA POP 0xEA CALLDATACOPY 0xD6 PUSH5 0x736F6C6343 STOP ADDMOD GT STOP CALLER "},"gasEstimates":{"creation":{"codeDepositCost":"1122600","executionCost":"1167","totalCost":"1123767"},"external":{"createCampaign(uint256)":"infinite","deployedCampaigns(uint256)":"4934","getCampaigns()":"infinite"}},"methodIdentifiers":{"createCampaign(uint256)":"a3303a75","deployedCampaigns(uint256)":"339d50a5","getCampaigns()":"a6b03633"}},"storageLayout":{"storage":[{"astId":4,"contract":"Campaign.sol:CampaignFactory","label":"deployedCampaigns","offset":0,"slot":"0","type":"t_array(t_address)dyn_storage"}],"types":{"t_address":{"encoding":"inplace","label":"address","numberOfBytes":"20"},"t_array(t_address)dyn_storage":{"base":"t_address","encoding":"dynamic_array","label":"address[]","numberOfBytes":"32"}}},"userdoc":{"kind":"user","methods":{},"version":1}}